{
  "contractName": "GameContract",
  "abi": [
    {
      "anonymous": false,
      "inputs": [
        {
          "indexed": true,
          "internalType": "address",
          "name": "challengerAddress",
          "type": "address"
        },
        {
          "indexed": false,
          "internalType": "uint256",
          "name": "gameId",
          "type": "uint256"
        }
      ],
      "name": "GameCreated",
      "type": "event"
    },
    {
      "anonymous": false,
      "inputs": [
        {
          "indexed": true,
          "internalType": "address",
          "name": "winnerAddress",
          "type": "address"
        },
        {
          "indexed": false,
          "internalType": "uint256",
          "name": "gameId",
          "type": "uint256"
        }
      ],
      "name": "GameEnd",
      "type": "event"
    },
    {
      "anonymous": false,
      "inputs": [
        {
          "indexed": true,
          "internalType": "address",
          "name": "challengerAddress",
          "type": "address"
        },
        {
          "indexed": true,
          "internalType": "address",
          "name": "challengeAcceptorAddress",
          "type": "address"
        },
        {
          "indexed": false,
          "internalType": "uint256",
          "name": "gameId",
          "type": "uint256"
        }
      ],
      "name": "GameJoined",
      "type": "event"
    },
    {
      "anonymous": false,
      "inputs": [
        {
          "indexed": true,
          "internalType": "address",
          "name": "winnerAddress",
          "type": "address"
        },
        {
          "indexed": false,
          "internalType": "uint256",
          "name": "gameId",
          "type": "uint256"
        },
        {
          "indexed": false,
          "internalType": "bool",
          "name": "isRare",
          "type": "bool"
        }
      ],
      "name": "NFTCreated",
      "type": "event"
    },
    {
      "anonymous": false,
      "inputs": [
        {
          "indexed": true,
          "internalType": "address",
          "name": "previousOwner",
          "type": "address"
        },
        {
          "indexed": true,
          "internalType": "address",
          "name": "newOwner",
          "type": "address"
        }
      ],
      "name": "OwnershipTransferred",
      "type": "event"
    },
    {
      "inputs": [],
      "name": "owner",
      "outputs": [
        {
          "internalType": "address",
          "name": "",
          "type": "address"
        }
      ],
      "stateMutability": "view",
      "type": "function",
      "constant": true
    },
    {
      "inputs": [],
      "name": "renounceOwnership",
      "outputs": [],
      "stateMutability": "nonpayable",
      "type": "function"
    },
    {
      "inputs": [
        {
          "internalType": "address",
          "name": "newOwnerAddress",
          "type": "address"
        }
      ],
      "name": "setOwnership",
      "outputs": [],
      "stateMutability": "nonpayable",
      "type": "function"
    },
    {
      "inputs": [
        {
          "internalType": "address",
          "name": "newOwner",
          "type": "address"
        }
      ],
      "name": "transferOwnership",
      "outputs": [],
      "stateMutability": "nonpayable",
      "type": "function"
    },
    {
      "inputs": [],
      "name": "getContractBalance",
      "outputs": [
        {
          "internalType": "uint256",
          "name": "",
          "type": "uint256"
        }
      ],
      "stateMutability": "view",
      "type": "function",
      "constant": true
    },
    {
      "inputs": [
        {
          "internalType": "uint256",
          "name": "newGameFee",
          "type": "uint256"
        }
      ],
      "name": "updateGameFees",
      "outputs": [],
      "stateMutability": "nonpayable",
      "type": "function"
    },
    {
      "inputs": [],
      "name": "createGame",
      "outputs": [],
      "stateMutability": "payable",
      "type": "function",
      "payable": true
    },
    {
      "inputs": [
        {
          "internalType": "uint256",
          "name": "gameId",
          "type": "uint256"
        }
      ],
      "name": "joinGame",
      "outputs": [],
      "stateMutability": "payable",
      "type": "function",
      "payable": true
    },
    {
      "inputs": [
        {
          "internalType": "uint256",
          "name": "gameId",
          "type": "uint256"
        },
        {
          "internalType": "address",
          "name": "winnerAddress",
          "type": "address"
        },
        {
          "internalType": "uint256",
          "name": "winTime",
          "type": "uint256"
        }
      ],
      "name": "endGame",
      "outputs": [],
      "stateMutability": "nonpayable",
      "type": "function"
    },
    {
      "inputs": [
        {
          "internalType": "uint256",
          "name": "gameId",
          "type": "uint256"
        },
        {
          "internalType": "bool",
          "name": "isRare",
          "type": "bool"
        },
        {
          "internalType": "uint256",
          "name": "winTime",
          "type": "uint256"
        },
        {
          "internalType": "uint8",
          "name": "killScore",
          "type": "uint8"
        }
      ],
      "name": "mintNFT",
      "outputs": [],
      "stateMutability": "nonpayable",
      "type": "function"
    }
  ],
  "bytecode": "0x60a06040819052600060808190526002556611c37937e0800060065562000026906200014c565b62000031906200017c565b604051809103906000f0801580156200004e573d6000803e3d6000fd5b50600780546001600160a01b0319166001600160a01b039290921691909117905560405130906200007f906200015a565b6200008b919062000168565b604051809103906000f080158015620000a8573d6000803e3d6000fd5b50600880546001600160a01b0319166001600160a01b0392909216919091179055348015620000d657600080fd5b506001600055620000f0620000ea620000f6565b620000fa565b620001b6565b3390565b600180546001600160a01b038381166001600160a01b0319831681179093556040519116919082907f8be0079c531659141344cd1fd0a4f28419497f9722a3daafe3b4186f6b6457e090600090a35050565b610c4080620016dd83390190565b612639806200231d83390190565b6001600160a01b0391909116815260200190565b60408082526005908201526432ba3432b960d91b60608201526080602082018190526003908201526208aa8960eb1b60a082015260c00190565b61151780620001c66000396000f3fe6080604052600436106100915760003560e01c8063bc0185bb11610059578063bc0185bb14610122578063cd36194214610142578063efaa55a014610162578063f2fde38b14610175578063fba7a9c11461019557610091565b80636f9fb98a14610096578063715018a6146100c15780637255d729146100d85780638da5cb5b146100e0578063a701602314610102575b600080fd5b3480156100a257600080fd5b506100ab6101b5565b6040516100b8919061144a565b60405180910390f35b3480156100cd57600080fd5b506100d66101b9565b005b6100d661020d565b3480156100ec57600080fd5b506100f56103f8565b6040516100b89190610ee7565b34801561010e57600080fd5b506100d661011d366004610de3565b610407565b34801561012e57600080fd5b506100d661013d366004610e19565b610413565b34801561014e57600080fd5b506100d661015d366004610e7d565b610457565b6100d6610170366004610e19565b6105f0565b34801561018157600080fd5b506100d6610190366004610de3565b610811565b3480156101a157600080fd5b506100d66101b0366004610e49565b61087f565b4790565b6101c161095b565b6001600160a01b03166101d26103f8565b6001600160a01b0316146102015760405162461bcd60e51b81526004016101f8906111ca565b60405180910390fd5b61020b600061095f565b565b600260005414156102305760405162461bcd60e51b81526004016101f89061137b565b6002600090815561023f6109b1565b6000818152600360205260408120549192506001600160a01b03909116906102656109c2565b6001600160a01b0316826001600160a01b031614159050801561029a5760405162461bcd60e51b81526004016101f8906113b2565b60006102a46109c2565b6001600160a01b0316836001600160a01b03161415905080156102d95760405162461bcd60e51b81526004016101f8906110fd565b6006543410156102fb5760405162461bcd60e51b81526004016101f8906112a2565b60006103056109c2565b6001600160a01b038581166000908152600460205260409020548116911614801591506103445760405162461bcd60e51b81526004016101f890611332565b600061034e6109c2565b6000878152600560205260409020546001600160a01b039081169116148015915061038b5760405162461bcd60e51b81526004016101f890610f98565b6103936109c7565b6007546103aa906001600160a01b03163034610a10565b336001600160a01b03167f306841c3fce8498c2d9b7194b8da4c04d03847394e237b625ce6d029b107f077876040516103e3919061144a565b60405180910390a25050600160005550505050565b6001546001600160a01b031690565b61041081610811565b50565b61041b61095b565b6001600160a01b031661042c6103f8565b6001600160a01b0316146104525760405162461bcd60e51b81526004016101f8906111ca565b600655565b6002600054141561047a5760405162461bcd60e51b81526004016101f89061137b565b60026000556104876109c2565b6001600160a01b0316336001600160a01b031614156104b85760405162461bcd60e51b81526004016101f8906111ff565b6000848152600360205260408120546001600160a01b0316906104d96109c2565b6001600160a01b0316826001600160a01b0316141590508061050d5760405162461bcd60e51b81526004016101f890611183565b60006105176109c2565b6001600160a01b038481166000908152600460205260409020548116911614159050806105565760405162461bcd60e51b81526004016101f89061113e565b6000878152600560205260408120546001600160a01b0316906105776109c2565b6001600160a01b0316826001600160a01b031614159050806105ab5760405162461bcd60e51b81526004016101f890610f61565b336001600160a01b038316146105d35760405162461bcd60e51b81526004016101f8906113f9565b6105e089838a8a8a610af9565b5050600160005550505050505050565b600260005414156106135760405162461bcd60e51b81526004016101f89061137b565b60026000908155818152600360205260408120546001600160a01b0316906106396109c2565b6001600160a01b0316826001600160a01b0316141590508061066d5760405162461bcd60e51b81526004016101f890611183565b60006106776109c2565b6001600160a01b0316836001600160a01b031614159050806106ab5760405162461bcd60e51b81526004016101f890610feb565b6006543410156106cd5760405162461bcd60e51b81526004016101f8906112a2565b6001600160a01b03808416600090815260046020526040812054909116906106f36109c2565b6001600160a01b0316826001600160a01b03161415905080156107285760405162461bcd60e51b81526004016101f890611332565b6001600160a01b0385163314156107515760405162461bcd60e51b81526004016101f890611073565b600061075b6109c2565b6000888152600560205260409020546001600160a01b03908116911614801591506107985760405162461bcd60e51b81526004016101f890610f98565b6107a187610bab565b6007546107b8906001600160a01b03163034610a10565b336001600160a01b0316866001600160a01b03167f35d26844d53f502705f032c5740880dacbfb67e9ce4906507947c665fd4a9996896040516107fb919061144a565b60405180910390a3505060016000555050505050565b61081961095b565b6001600160a01b031661082a6103f8565b6001600160a01b0316146108505760405162461bcd60e51b81526004016101f8906111ca565b6001600160a01b0381166108765760405162461bcd60e51b81526004016101f89061102d565b6104108161095f565b600260005414156108a25760405162461bcd60e51b81526004016101f89061137b565b60026000556108af61095b565b6001600160a01b03166108c06103f8565b6001600160a01b0316146108e65760405162461bcd60e51b81526004016101f8906111ca565b600081116109065760405162461bcd60e51b81526004016101f890611236565b6109108284610be1565b816001600160a01b03167f2a2354125f81ee487bda88be7f56f045ff7d068431bfdb0ddb0a286c17b9524484604051610949919061144a565b60405180910390a25050600160005550565b3390565b600180546001600160a01b038381166001600160a01b0319831681179093556040519116919082907f8be0079c531659141344cd1fd0a4f28419497f9722a3daafe3b4186f6b6457e090600090a35050565b60006109bd6002610c0f565b905090565b600090565b33600360006109d46109b1565b815260200190815260200160002060006101000a8154816001600160a01b0302191690836001600160a01b0316021790555061020b6002610c17565b600081846001600160a01b031663dd62ed3e30866040518363ffffffff1660e01b8152600401610a41929190610efb565b60206040518083038186803b158015610a5957600080fd5b505afa158015610a6d573d6000803e3d6000fd5b505050506040513d601f19601f82011682018060405250810190610a919190610e31565b610a9b9190611483565b9050610af38463095ea7b360e01b8584604051602401610abc929190610f15565b60408051601f198184030181529190526020810180516001600160e01b03166001600160e01b031990931692909217909152610c20565b50505050565b6008546040516347e3955360e11b81526001600160a01b0390911690638fc72aa690610b2f908890869086908990600401611463565b600060405180830381600087803b158015610b4957600080fd5b505af1158015610b5d573d6000803e3d6000fd5b50505050836001600160a01b03167f3de783f9d670d5639f2acef925c39a874e41e3aa39966962eb1b3aaa6177c0c48685604051610b9c929190611453565b60405180910390a25050505050565b6000908152600360209081526040808320546001600160a01b031683526004909152902080546001600160a01b03191633179055565b600090815260056020526040902080546001600160a01b0319166001600160a01b0392909216919091179055565b80545b919050565b80546001019055565b6000610c75826040518060400160405280602081526020017f5361666545524332303a206c6f772d6c6576656c2063616c6c206661696c6564815250856001600160a01b0316610cb49092919063ffffffff16565b805190915015610caf5780806020019051810190610c939190610dfd565b610caf5760405162461bcd60e51b81526004016101f8906112e8565b505050565b6060610cc38484600085610ccd565b90505b9392505050565b606082471015610cef5760405162461bcd60e51b81526004016101f8906110b7565b610cf885610d8d565b610d145760405162461bcd60e51b81526004016101f89061126b565b600080866001600160a01b03168587604051610d309190610ecb565b60006040518083038185875af1925050503d8060008114610d6d576040519150601f19603f3d011682016040523d82523d6000602084013e610d72565b606091505b5091509150610d82828286610d93565b979650505050505050565b3b151590565b60608315610da2575081610cc6565b825115610db25782518084602001fd5b8160405162461bcd60e51b81526004016101f89190610f2e565b80356001600160a01b0381168114610c1257600080fd5b600060208284031215610df4578081fd5b610cc682610dcc565b600060208284031215610e0e578081fd5b8151610cc6816114d3565b600060208284031215610e2a578081fd5b5035919050565b600060208284031215610e42578081fd5b5051919050565b600080600060608486031215610e5d578182fd5b83359250610e6d60208501610dcc565b9150604084013590509250925092565b60008060008060808587031215610e92578081fd5b843593506020850135610ea4816114d3565b925060408501359150606085013560ff81168114610ec0578182fd5b939692955090935050565b60008251610edd8184602087016114a7565b9190910192915050565b6001600160a01b0391909116815260200190565b6001600160a01b0392831681529116602082015260400190565b6001600160a01b03929092168252602082015260400190565b6000602082528251806020840152610f4d8160408501602087016114a7565b601f01601f19169190910160400192915050565b60208082526019908201527f57696e6e65722061646472657373206973206e6f742073657400000000000000604082015260600190565b60208082526033908201527f57696e6e657220616464726573732063616e6e6f7420626520736574206265666040820152726f7265207468652067616d652073746172747360681b606082015260800190565b60208082526022908201527f4368616c6c656e676572206164647265737320646f6573206e6f742065786973604082015261747360f01b606082015260800190565b60208082526026908201527f4f776e61626c653a206e6577206f776e657220697320746865207a65726f206160408201526564647265737360d01b606082015260800190565b60208082526024908201527f426f746820706c6179657220616464726573732073686f756c6420626520756e6040820152636971756560e01b606082015260800190565b60208082526026908201527f416464726573733a20696e73756666696369656e742062616c616e636520666f6040820152651c8818d85b1b60d21b606082015260800190565b60208082526021908201527f4368616c6c656e676572206164647265737320616c72656164792065786973746040820152607360f81b606082015260800190565b60208082526025908201527f4368616c6c656e6765206163636570746f722061646472657373206973206e6f6040820152641d081cd95d60da1b606082015260800190565b60208082526027908201527f412067616d6520776974682073706563696669656420494420646f6573206e6f6040820152661d08195e1a5cdd60ca1b606082015260800190565b6020808252818101527f4f776e61626c653a2063616c6c6572206973206e6f7420746865206f776e6572604082015260600190565b6020808252601b908201527f43616c6c65722061646472657373206973206e6f742076616c69640000000000604082015260600190565b6020808252818101527f57696e54696d652068617320746f2062652067726561746572207468616e2030604082015260600190565b6020808252601d908201527f416464726573733a2063616c6c20746f206e6f6e2d636f6e7472616374000000604082015260600190565b60208082526026908201527f53656e742076616c75652073686f756c6420626520657175616c20746f2067616040820152656d652066656560d01b606082015260800190565b6020808252602a908201527f5361666545524332303a204552433230206f7065726174696f6e20646964206e6040820152691bdd081cdd58d8d9595960b21b606082015260800190565b60208082526029908201527f4368616c6c656e6765206163636570746f72206164647265737320616c72656160408201526864792065786973747360b81b606082015260800190565b6020808252601f908201527f5265656e7472616e637947756172643a207265656e7472616e742063616c6c00604082015260600190565b60208082526027908201527f412067616d6520776974682073706563696669656420494420616c72656164796040820152662065786973747360c81b606082015260800190565b60208082526031908201527f4f6e6c79207468652077696e6e6572206f66207468652067616d652063616e206040820152701b5a5b9d081d1a19481391950818d85c99607a1b606082015260800190565b90815260200190565b9182521515602082015260400190565b938452602084019290925260ff1660408301521515606082015260800190565b600082198211156114a257634e487b7160e01b81526011600452602481fd5b500190565b60005b838110156114c25781810151838201526020016114aa565b83811115610af35750506000910152565b801515811461041057600080fdfea26469706673582212205ac116862cb650176e1b7b03bde7e70efe7e6cc77db0a57034404c9b450515e764736f6c6343000800003360806040523480156200001157600080fd5b5060405162000c4038038062000c408339810160408190526200003491620001b9565b81516200004990600390602085019062000068565b5080516200005f90600490602084019062000068565b50505062000273565b828054620000769062000220565b90600052602060002090601f0160209004810192826200009a5760008555620000e5565b82601f10620000b557805160ff1916838001178555620000e5565b82800160010185558215620000e5579182015b82811115620000e5578251825591602001919060010190620000c8565b50620000f3929150620000f7565b5090565b5b80821115620000f35760008155600101620000f8565b600082601f8301126200011f578081fd5b81516001600160401b03808211156200013c576200013c6200025d565b6040516020601f8401601f19168201810183811183821017156200016457620001646200025d565b60405283825285840181018710156200017b578485fd5b8492505b838310156200019e57858301810151828401820152918201916200017f565b83831115620001af57848185840101525b5095945050505050565b60008060408385031215620001cc578182fd5b82516001600160401b0380821115620001e3578384fd5b620001f1868387016200010e565b9350602085015191508082111562000207578283fd5b5062000216858286016200010e565b9150509250929050565b6002810460018216806200023557607f821691505b602082108114156200025757634e487b7160e01b600052602260045260246000fd5b50919050565b634e487b7160e01b600052604160045260246000fd5b6109bd80620002836000396000f3fe608060405234801561001057600080fd5b50600436106100a95760003560e01c80633950935111610071578063395093511461012957806370a082311461013c57806395d89b411461014f578063a457c2d714610157578063a9059cbb1461016a578063dd62ed3e1461017d576100a9565b806306fdde03146100ae578063095ea7b3146100cc57806318160ddd146100ec57806323b872dd14610101578063313ce56714610114575b600080fd5b6100b6610190565b6040516100c391906106dd565b60405180910390f35b6100df6100da3660046106a9565b610222565b6040516100c391906106d2565b6100f461023f565b6040516100c39190610911565b6100df61010f36600461066e565b610245565b61011c6102de565b6040516100c3919061091a565b6100df6101373660046106a9565b6102e3565b6100f461014a36600461061b565b610337565b6100b6610356565b6100df6101653660046106a9565b610365565b6100df6101783660046106a9565b6103de565b6100f461018b36600461063c565b6103f2565b60606003805461019f9061094c565b80601f01602080910402602001604051908101604052809291908181526020018280546101cb9061094c565b80156102185780601f106101ed57610100808354040283529160200191610218565b820191906000526020600020905b8154815290600101906020018083116101fb57829003601f168201915b5050505050905090565b600061023661022f61041d565b8484610421565b50600192915050565b60025490565b60006102528484846104d5565b6001600160a01b03841660009081526001602052604081208161027361041d565b6001600160a01b03166001600160a01b03168152602001908152602001600020549050828110156102bf5760405162461bcd60e51b81526004016102b6906107fb565b60405180910390fd5b6102d3856102cb61041d565b858403610421565b506001949350505050565b601290565b60006102366102f061041d565b8484600160006102fe61041d565b6001600160a01b03908116825260208083019390935260409182016000908120918b16815292529020546103329190610928565b610421565b6001600160a01b0381166000908152602081905260409020545b919050565b60606004805461019f9061094c565b6000806001600061037461041d565b6001600160a01b03908116825260208083019390935260409182016000908120918816815292529020549050828110156103c05760405162461bcd60e51b81526004016102b6906108cc565b6103d46103cb61041d565b85858403610421565b5060019392505050565b60006102366103eb61041d565b84846104d5565b6001600160a01b03918216600090815260016020908152604080832093909416825291909152205490565b3390565b6001600160a01b0383166104475760405162461bcd60e51b81526004016102b690610888565b6001600160a01b03821661046d5760405162461bcd60e51b81526004016102b690610773565b6001600160a01b0380841660008181526001602090815260408083209487168084529490915290819020849055517f8c5be1e5ebec7d5bd14f71427d1e84f3dd0314c0f7b2291e5b200ac8c7c3b925906104c8908590610911565b60405180910390a3505050565b6001600160a01b0383166104fb5760405162461bcd60e51b81526004016102b690610843565b6001600160a01b0382166105215760405162461bcd60e51b81526004016102b690610730565b61052c8383836105ff565b6001600160a01b038316600090815260208190526040902054818110156105655760405162461bcd60e51b81526004016102b6906107b5565b6001600160a01b0380851660009081526020819052604080822085850390559185168152908120805484929061059c908490610928565b92505081905550826001600160a01b0316846001600160a01b03167fddf252ad1be2c89b69c2b068fc378daa952ba7f163c4a11628f55a4df523b3ef846040516105e69190610911565b60405180910390a36105f98484846105ff565b50505050565b505050565b80356001600160a01b038116811461035157600080fd5b60006020828403121561062c578081fd5b61063582610604565b9392505050565b6000806040838503121561064e578081fd5b61065783610604565b915061066560208401610604565b90509250929050565b600080600060608486031215610682578081fd5b61068b84610604565b925061069960208501610604565b9150604084013590509250925092565b600080604083850312156106bb578182fd5b6106c483610604565b946020939093013593505050565b901515815260200190565b6000602080835283518082850152825b81811015610709578581018301518582016040015282016106ed565b8181111561071a5783604083870101525b50601f01601f1916929092016040019392505050565b60208082526023908201527f45524332303a207472616e7366657220746f20746865207a65726f206164647260408201526265737360e81b606082015260800190565b60208082526022908201527f45524332303a20617070726f766520746f20746865207a65726f206164647265604082015261737360f01b606082015260800190565b60208082526026908201527f45524332303a207472616e7366657220616d6f756e7420657863656564732062604082015265616c616e636560d01b606082015260800190565b60208082526028908201527f45524332303a207472616e7366657220616d6f756e74206578636565647320616040820152676c6c6f77616e636560c01b606082015260800190565b60208082526025908201527f45524332303a207472616e736665722066726f6d20746865207a65726f206164604082015264647265737360d81b606082015260800190565b60208082526024908201527f45524332303a20617070726f76652066726f6d20746865207a65726f206164646040820152637265737360e01b606082015260800190565b60208082526025908201527f45524332303a2064656372656173656420616c6c6f77616e63652062656c6f77604082015264207a65726f60d81b606082015260800190565b90815260200190565b60ff91909116815260200190565b6000821982111561094757634e487b7160e01b81526011600452602481fd5b500190565b60028104600182168061096057607f821691505b6020821081141561098157634e487b7160e01b600052602260045260246000fd5b5091905056fea2646970667358221220823cbb63cb58a09416d4d9fdbc4e7e66e7be29cc5ef704dedbc5fec7ee6fe87b64736f6c6343000800003360a060405260006080819052600855662386f26fc100006009553480156200002657600080fd5b506040516200263938038062002639833981016040819052620000499162000253565b604080518082018252600b81526a10d212d35055114813919560aa1b60208083019182528351808501909452600784526643484b4d41544560c81b90840152600160008190558251929392620000a09290620001ad565b508051620000b6906002906020840190620001ad565b505050620000d3620000cd6200014860201b60201c565b6200014c565b620000dd62000148565b6001600160a01b0316620000f06200019e565b6001600160a01b031614620001225760405162461bcd60e51b8152600401620001199062000283565b60405180910390fd5b600a80546001600160a01b0319166001600160a01b0392909216919091179055620002f5565b3390565b600780546001600160a01b038381166001600160a01b0319831681179093556040519116919082907f8be0079c531659141344cd1fd0a4f28419497f9722a3daafe3b4186f6b6457e090600090a35050565b6007546001600160a01b031690565b828054620001bb90620002b8565b90600052602060002090601f016020900481019282620001df57600085556200022a565b82601f10620001fa57805160ff19168380011785556200022a565b828001600101855582156200022a579182015b828111156200022a5782518255916020019190600101906200020d565b50620002389291506200023c565b5090565b5b808211156200023857600081556001016200023d565b60006020828403121562000265578081fd5b81516001600160a01b03811681146200027c578182fd5b9392505050565b6020808252818101527f4f776e61626c653a2063616c6c6572206973206e6f7420746865206f776e6572604082015260600190565b600281046001821680620002cd57607f821691505b60208210811415620002ef57634e487b7160e01b600052602260045260246000fd5b50919050565b61233480620003056000396000f3fe608060405234801561001057600080fd5b50600436106101425760003560e01c80638fc72aa6116100b8578063b88d4fde1161007c578063b88d4fde1461028c578063c7673e8a1461029f578063c87b56dd146102b2578063e985e9c5146102c5578063ee54ae79146102d8578063f2fde38b146102e057610142565b80638fc72aa61461023857806395d89b411461024b578063a22cb46514610253578063a701602314610266578063a8773a7b1461027957610142565b80632a5c792a1161010a5780632a5c792a146101cd57806342842e0e146101e25780636352211e146101f557806370a0823114610208578063715018a6146102285780638da5cb5b1461023057610142565b806301ffc9a71461014757806306fdde0314610170578063081812fc14610185578063095ea7b3146101a557806323b872dd146101ba575b600080fd5b61015a610155366004611916565b6102f3565b6040516101679190611b60565b60405180910390f35b61017861033b565b6040516101679190611b6b565b61019861019336600461194e565b6103cd565b6040516101679190611a6e565b6101b86101b33660046118ed565b610419565b005b6101b86101c83660046117bd565b6104b1565b6101d56104e9565b6040516101679190611abf565b6101b86101f03660046117bd565b61061b565b61019861020336600461194e565b610636565b61021b610216366004611771565b61066b565b60405161016791906121b6565b6101b86106af565b6101986106fa565b6101b8610246366004611966565b610709565b61017861083c565b6101b86102613660046118c4565b61084b565b6101b8610274366004611771565b610919565b6101b8610287366004611771565b610925565b6101b861029a3660046117f8565b610986565b6101b86102ad36600461194e565b6109c5565b6101786102c036600461194e565b610a09565b61015a6102d336600461178b565b610a8c565b6101d5610aba565b6101b86102ee366004611771565b610cdd565b60006001600160e01b031982166380ac58cd60e01b148061032457506001600160e01b03198216635b5e139f60e01b145b80610333575061033382610d4b565b90505b919050565b60606001805461034a9061223c565b80601f01602080910402602001604051908101604052809291908181526020018280546103769061223c565b80156103c35780601f10610398576101008083540402835291602001916103c3565b820191906000526020600020905b8154815290600101906020018083116103a657829003601f168201915b5050505050905090565b60006103d882610d64565b6103fd5760405162461bcd60e51b81526004016103f490611f9d565b60405180910390fd5b506000908152600560205260409020546001600160a01b031690565b600061042482610636565b9050806001600160a01b0316836001600160a01b031614156104585760405162461bcd60e51b81526004016103f4906120b6565b806001600160a01b031661046a610d81565b6001600160a01b031614806104865750610486816102d3610d81565b6104a25760405162461bcd60e51b81526004016103f490611e37565b6104ac8383610d85565b505050565b6104c26104bc610d81565b82610df3565b6104de5760405162461bcd60e51b81526004016103f49061212e565b6104ac838383610e78565b6060600b805480602002602001604051908101604052809291908181526020016000905b8282101561061257838290600052602060002090600502016040518060c00160405290816000820180546105409061223c565b80601f016020809104026020016040519081016040528092919081815260200182805461056c9061223c565b80156105b95780601f1061058e576101008083540402835291602001916105b9565b820191906000526020600020905b81548152906001019060200180831161059c57829003601f168201915b5050509183525050600182810154602080840191909152600284015460408401526003840154606084015260049093015460ff808216608085015261010090910416151560a0909201919091529183529201910161050d565b50505050905090565b6104ac83838360405180602001604052806000815250610986565b6000818152600360205260408120546001600160a01b0316806103335760405162461bcd60e51b81526004016103f490611ede565b60006001600160a01b0382166106935760405162461bcd60e51b81526004016103f490611e94565b506001600160a01b031660009081526004602052604090205490565b6106b7610d81565b6001600160a01b03166106c86106fa565b6001600160a01b0316146106ee5760405162461bcd60e51b81526004016103f490611fe9565b6106f86000610fa5565b565b6007546001600160a01b031690565b6002600054141561072c5760405162461bcd60e51b81526004016103f49061217f565b6002600055610739610d81565b6001600160a01b031661074a6106fa565b6001600160a01b0316146107705760405162461bcd60e51b81526004016103f490611fe9565b8383600061077c610ff7565b9050610786611008565b600a546001600160a01b03908116911614156107b45760405162461bcd60e51b81526004016103f490611f5c565b600954600a546001600160a01b03163110156107e25760405162461bcd60e51b81526004016103f490611c93565b600b5481146108035760405162461bcd60e51b81526004016103f4906120f7565b600082116108235760405162461bcd60e51b81526004016103f490611d43565b61082e86868661100d565b505060016000555050505050565b60606002805461034a9061223c565b610853610d81565b6001600160a01b0316826001600160a01b031614156108845760405162461bcd60e51b81526004016103f490611d0c565b8060066000610891610d81565b6001600160a01b03908116825260208083019390935260409182016000908120918716808252919093529120805460ff1916921515929092179091556108d5610d81565b6001600160a01b03167f17307eab39ab6107e8899845ad3d59bd9653f200f220920489ca2b5937696c318360405161090d9190611b60565b60405180910390a35050565b61092281610cdd565b50565b61092d610d81565b6001600160a01b031661093e6106fa565b6001600160a01b0316146109645760405162461bcd60e51b81526004016103f490611fe9565b600a80546001600160a01b0319166001600160a01b0392909216919091179055565b610997610991610d81565b83610df3565b6109b35760405162461bcd60e51b81526004016103f49061212e565b6109bf848484846110af565b50505050565b6109cd610d81565b6001600160a01b03166109de6106fa565b6001600160a01b031614610a045760405162461bcd60e51b81526004016103f490611fe9565b600955565b6060610a1482610d64565b610a305760405162461bcd60e51b81526004016103f490612067565b6000610a3a6110e2565b90506000815111610a5a5760405180602001604052806000815250610a85565b80610a64846110f4565b604051602001610a759291906119fa565b6040516020818303038152906040525b9392505050565b6001600160a01b03918216600090815260066020908152604080832093909416825291909152205460ff1690565b60606000610ac6610ff7565b905060008167ffffffffffffffff811115610af157634e487b7160e01b600052604160045260246000fd5b604051908082528060200260200182016040528015610b2a57816020015b610b17611676565b815260200190600190039081610b0f5790505b5090506000805b83811015610cd45733610b4382610636565b6001600160a01b03161415610cc2576000600b8281548110610b7557634e487b7160e01b600052603260045260246000fd5b90600052602060002090600502016040518060c0016040529081600082018054610b9e9061223c565b80601f0160208091040260200160405190810160405280929190818152602001828054610bca9061223c565b8015610c175780601f10610bec57610100808354040283529160200191610c17565b820191906000526020600020905b815481529060010190602001808311610bfa57829003601f168201915b505050918352505060018201546020820152600282015460408201526003820154606082015260049091015460ff808216608084015261010090910416151560a09091015284519091508190859085908110610c8357634e487b7160e01b600052603260045260246000fd5b6020908102919091010152600080610c9c85600161120f565b9150915081610cbd5760405162461bcd60e51b81526004016103f490611b7e565b935050505b80610ccc81612277565b915050610b31565b50909250505090565b610ce5610d81565b6001600160a01b0316610cf66106fa565b6001600160a01b031614610d1c5760405162461bcd60e51b81526004016103f490611fe9565b6001600160a01b038116610d425760405162461bcd60e51b81526004016103f490611c16565b61092281610fa5565b6001600160e01b031981166301ffc9a760e01b14919050565b6000908152600360205260409020546001600160a01b0316151590565b3390565b600081815260056020526040902080546001600160a01b0319166001600160a01b0384169081179091558190610dba82610636565b6001600160a01b03167f8c5be1e5ebec7d5bd14f71427d1e84f3dd0314c0f7b2291e5b200ac8c7c3b92560405160405180910390a45050565b6000610dfe82610d64565b610e1a5760405162461bcd60e51b81526004016103f490611d84565b6000610e2583610636565b9050806001600160a01b0316846001600160a01b03161480610e605750836001600160a01b0316610e55846103cd565b6001600160a01b0316145b80610e705750610e708185610a8c565b949350505050565b826001600160a01b0316610e8b82610636565b6001600160a01b031614610eb15760405162461bcd60e51b81526004016103f49061201e565b6001600160a01b038216610ed75760405162461bcd60e51b81526004016103f490611cc8565b610ee28383836104ac565b610eed600082610d85565b6001600160a01b0383166000908152600460205260408120805460019290610f169084906121f9565b90915550506001600160a01b0382166000908152600460205260408120805460019290610f449084906121cd565b909155505060008181526003602052604080822080546001600160a01b0319166001600160a01b0386811691821790925591518493918716917fddf252ad1be2c89b69c2b068fc378daa952ba7f163c4a11628f55a4df523b3ef91a4505050565b600780546001600160a01b038381166001600160a01b0319831681179093556040519116919082907f8be0079c531659141344cd1fd0a4f28419497f9722a3daafe3b4186f6b6457e090600090a35050565b60006110036008611238565b905090565b600090565b6000611017610ff7565b90506110258185858561123c565b61102f338261136c565b336001600160a01b03167f96234cb3d6c373a1aaa06497a540bc166d4b0359243a088eaf95e21d7253d0be82600b848154811061107c57634e487b7160e01b600052603260045260246000fd5b90600052602060002090600502016002015460405161109c9291906121bf565b60405180910390a2506104ac600861138a565b6110ba848484610e78565b6110c684848484611393565b6109bf5760405162461bcd60e51b81526004016103f490611bc4565b60408051602081019091526000815290565b60608161111957506040805180820190915260018152600360fc1b6020820152610336565b8160005b8115611143578061112d81612277565b915061113c9050600a836121e5565b915061111d565b60008167ffffffffffffffff81111561116c57634e487b7160e01b600052604160045260246000fd5b6040519080825280601f01601f191660200182016040528015611196576020820181803683370190505b5090505b8415610e70576111ab6001836121f9565b91506111b8600a86612292565b6111c39060306121cd565b60f81b8183815181106111e657634e487b7160e01b600052603260045260246000fd5b60200101906001600160f81b031916908160001a905350611208600a866121e5565b945061119a565b6000808383018481101561122a576000809250925050611231565b6001925090505b9250929050565b5490565b600042338660405160200161125393929190611a46565b6040516020818303038152906040529050600061126f826114ae565b90506000866040516020016112849190611a29565b60408051601f1981840301815260c08301825280835260208381018b90529183018590526060830189905260ff8816608084015286151560a0840152600b805460018101825560009190915283518051929550849360059092027f0175b7a638427703f0dbe7bb9bbf987a2551717b34e79f33b5b1008d1fa01db9019261130e92849201906116b1565b5060208201516001820155604082015160028201556060820151600382015560808201516004909101805460a09093015115156101000261ff001960ff90931660ff1990941693909317919091169190911790555050505050505050565b611386828260405180602001604052806000815250611520565b5050565b80546001019055565b60006113a7846001600160a01b0316611553565b156114a357836001600160a01b031663150b7a026113c3610d81565b8786866040518563ffffffff1660e01b81526004016113e59493929190611a82565b602060405180830381600087803b1580156113ff57600080fd5b505af192505050801561142f575060408051601f3d908101601f1916820190925261142c91810190611932565b60015b611489573d80801561145d576040519150601f19603f3d011682016040523d82523d6000602084013e611462565b606091505b5080516114815760405162461bcd60e51b81526004016103f490611bc4565b805181602001fd5b6001600160e01b031916630a85bd0160e11b149050610e70565b506001949350505050565b600080662386f26fc1000090506000836040516020016114ce91906119de565b6040516020818303038152906040528051906020012060001c90506000806114f68385611559565b91509150816115175760405162461bcd60e51b81526004016103f490611dd0565b95945050505050565b61152a8383611597565b6115376000848484611393565b6104ac5760405162461bcd60e51b81526004016103f490611bc4565b3b151590565b6000808261156c57506000905080611231565b600183858161158b57634e487b7160e01b600052601260045260246000fd5b06915091509250929050565b6001600160a01b0382166115bd5760405162461bcd60e51b81526004016103f490611f27565b6115c681610d64565b156115e35760405162461bcd60e51b81526004016103f490611c5c565b6115ef600083836104ac565b6001600160a01b03821660009081526004602052604081208054600192906116189084906121cd565b909155505060008181526003602052604080822080546001600160a01b0319166001600160a01b03861690811790915590518392907fddf252ad1be2c89b69c2b068fc378daa952ba7f163c4a11628f55a4df523b3ef908290a45050565b6040518060c0016040528060608152602001600081526020016000815260200160008152602001600060ff1681526020016000151581525090565b8280546116bd9061223c565b90600052602060002090601f0160209004810192826116df5760008555611725565b82601f106116f857805160ff1916838001178555611725565b82800160010185558215611725579182015b8281111561172557825182559160200191906001019061170a565b50611731929150611735565b5090565b5b808211156117315760008155600101611736565b80356001600160a01b038116811461033657600080fd5b8035801515811461033657600080fd5b600060208284031215611782578081fd5b610a858261174a565b6000806040838503121561179d578081fd5b6117a68361174a565b91506117b46020840161174a565b90509250929050565b6000806000606084860312156117d1578081fd5b6117da8461174a565b92506117e86020850161174a565b9150604084013590509250925092565b6000806000806080858703121561180d578081fd5b6118168561174a565b9350602061182581870161174a565b935060408601359250606086013567ffffffffffffffff80821115611848578384fd5b818801915088601f83011261185b578384fd5b81358181111561186d5761186d6122d2565b604051601f8201601f1916810185018381118282101715611890576118906122d2565b60405281815283820185018b10156118a6578586fd5b81858501868301379081019093019390935250939692955090935050565b600080604083850312156118d6578182fd5b6118df8361174a565b91506117b460208401611761565b600080604083850312156118ff578182fd5b6119088361174a565b946020939093013593505050565b600060208284031215611927578081fd5b8135610a85816122e8565b600060208284031215611943578081fd5b8151610a85816122e8565b60006020828403121561195f578081fd5b5035919050565b6000806000806080858703121561197b578384fd5b8435935060208501359250604085013560ff81168114611999578283fd5b91506119a760608601611761565b905092959194509250565b600081518084526119ca816020860160208601612210565b601f01601f19169290920160200192915050565b600082516119f0818460208701612210565b9190910192915050565b60008351611a0c818460208801612210565b835190830190611a20818360208801612210565b01949350505050565b6843484b4d415445202360b81b8152600981019190915260290190565b92835260609190911b6bffffffffffffffffffffffff19166020830152603482015260540190565b6001600160a01b0391909116815260200190565b6001600160a01b0385811682528416602082015260408101839052608060608201819052600090611ab5908301846119b2565b9695505050505050565b60208082528251828201819052600091906040908185019080840286018301878501865b83811015611b5257603f19898403018552815160c08151818652611b09828701826119b2565b838b0151878c0152898401518a8801526060808501519088015260808085015160ff169088015260a0938401511515939096019290925250509386019390860190600101611ae3565b509098975050505050505050565b901515815260200190565b600060208252610a8560208301846119b2565b60208082526026908201527f496e7465676572206f766572666c6f7720666f722060696e7465726e616c436f60408201526503ab73a32b9360d51b606082015260800190565b60208082526032908201527f4552433732313a207472616e7366657220746f206e6f6e20455243373231526560408201527131b2b4bb32b91034b6b83632b6b2b73a32b960711b606082015260800190565b60208082526026908201527f4f776e61626c653a206e6577206f776e657220697320746865207a65726f206160408201526564647265737360d01b606082015260800190565b6020808252601c908201527f4552433732313a20746f6b656e20616c7265616479206d696e74656400000000604082015260600190565b6020808252818101527f4e6f7420656e6f7567682066756e647320696e2047616d65436f6e7472616374604082015260600190565b60208082526024908201527f4552433732313a207472616e7366657220746f20746865207a65726f206164646040820152637265737360e01b606082015260800190565b60208082526019908201527f4552433732313a20617070726f766520746f2063616c6c657200000000000000604082015260600190565b60208082526021908201527f57696e2074696d652073686f756c642062652067726561746f72207468616e206040820152600360fc1b606082015260800190565b6020808252602c908201527f4552433732313a206f70657261746f7220717565727920666f72206e6f6e657860408201526b34b9ba32b73a103a37b5b2b760a11b606082015260800190565b60208082526041908201527f496e7465676572206f766572666c6f7720666f72206d6f64206f70657261746960408201527f6f6e207768696c652067656e65726174696e672072616e646f6d206e756d62656060820152603960f91b608082015260a00190565b60208082526038908201527f4552433732313a20617070726f76652063616c6c6572206973206e6f74206f7760408201527f6e6572206e6f7220617070726f76656420666f7220616c6c0000000000000000606082015260800190565b6020808252602a908201527f4552433732313a2062616c616e636520717565727920666f7220746865207a65604082015269726f206164647265737360b01b606082015260800190565b60208082526029908201527f4552433732313a206f776e657220717565727920666f72206e6f6e657869737460408201526832b73a103a37b5b2b760b91b606082015260800190565b6020808252818101527f4552433732313a206d696e7420746f20746865207a65726f2061646472657373604082015260600190565b60208082526021908201527f47616d65436f6e74726163742061646472657373206973206e6f742076616c696040820152601960fa1b606082015260800190565b6020808252602c908201527f4552433732313a20617070726f76656420717565727920666f72206e6f6e657860408201526b34b9ba32b73a103a37b5b2b760a11b606082015260800190565b6020808252818101527f4f776e61626c653a2063616c6c6572206973206e6f7420746865206f776e6572604082015260600190565b60208082526029908201527f4552433732313a207472616e73666572206f6620746f6b656e2074686174206960408201526839903737ba1037bbb760b91b606082015260800190565b6020808252602f908201527f4552433732314d657461646174613a2055524920717565727920666f72206e6f60408201526e3732bc34b9ba32b73a103a37b5b2b760891b606082015260800190565b60208082526021908201527f4552433732313a20617070726f76616c20746f2063757272656e74206f776e656040820152603960f91b606082015260800190565b60208082526018908201527f54686520746f6b656e20616c7265616479206578697374730000000000000000604082015260600190565b60208082526031908201527f4552433732313a207472616e736665722063616c6c6572206973206e6f74206f6040820152701ddb995c881b9bdc88185c1c1c9bdd9959607a1b606082015260800190565b6020808252601f908201527f5265656e7472616e637947756172643a207265656e7472616e742063616c6c00604082015260600190565b90815260200190565b918252602082015260400190565b600082198211156121e0576121e06122a6565b500190565b6000826121f4576121f46122bc565b500490565b60008282101561220b5761220b6122a6565b500390565b60005b8381101561222b578181015183820152602001612213565b838111156109bf5750506000910152565b60028104600182168061225057607f821691505b6020821081141561227157634e487b7160e01b600052602260045260246000fd5b50919050565b600060001982141561228b5761228b6122a6565b5060010190565b6000826122a1576122a16122bc565b500690565b634e487b7160e01b600052601160045260246000fd5b634e487b7160e01b600052601260045260246000fd5b634e487b7160e01b600052604160045260246000fd5b6001600160e01b03198116811461092257600080fdfea2646970667358221220a166269d02f961de627a71b0f9217e321e1f12b7899b6a1e6511ceeeb63cae7d64736f6c63430008000033",
  "immutableReferences": {},
  "source": "// SPDX-License-Identifier: MIT\n\npragma solidity ^0.8.0;\n\nimport \"@openzeppelin/contracts/token/ERC20/utils/SafeERC20.sol\";\nimport \"@openzeppelin/contracts/token/ERC20/ERC20.sol\";\nimport \"@openzeppelin/contracts/token/ERC20/IERC20.sol\";\nimport \"@openzeppelin/contracts/security/ReentrancyGuard.sol\";\nimport \"@openzeppelin/contracts/utils/Address.sol\";\nimport \"@openzeppelin/contracts/access/Ownable.sol\";\nimport './BaseContract.sol';\nimport \"./NFTContract.sol\";\nimport './Helpers.sol';\n\ncontract GameContract is BaseContract {\n    \n    using SafeERC20 for IERC20;\n    using Address for address;\n    \n    event GameCreated(address indexed challengerAddress, uint gameId);\n    event GameJoined(address indexed challengerAddress, address indexed challengeAcceptorAddress, uint gameId);\n    event GameEnd(address indexed winnerAddress, uint gameId);\n    event NFTCreated(address indexed winnerAddress, uint gameId, bool isRare);\n    \n    enum ActionType {\n        CreateGame,\n        JoinGame,\n        EndGame\n    }\n    \n    // modifier validGame(uint gameId, uint valuePassed, ActionType action, address _winnerAddress) {\n    //     // Check and verify if the caller address is valid\n    //     require(msg.sender != Helpers.nullAddress(), \"Caller address is not valid\");\n\n    //     AddressMapping memory addressMapping = _games[gameId];\n    //     address challengerAddress = addressMapping.challengerAddress;\n    //     address challengeAcceptorAddress = addressMapping.challengeAcceptorAddress;\n    //     address winnerAddress = addressMapping.winnerAddress;\n    //     bool gameExists = challengerAddress != Helpers.nullAddress() || challengeAcceptorAddress != Helpers.nullAddress() || winnerAddress != Helpers.nullAddress();\n\n    //     if (action == ActionType.CreateGame) {\n    //         // Check and verify if a game with specified ID  already exists.\n    //         require(!gameExists, \"A game with specified ID already exists\");\n    //         // Check and verify if a value equal to or greater than `_baseGameFee` was sent along with the transaction.\n    //         require(valuePassed == _baseGameFee, \"Sent value should be equal to game fee\");\n    //         // Check and verify if the winner address is not set.\n    //         require(challengerAddress == Helpers.nullAddress(), \"Challenger address is already set\");\n    //         // Check and verify if challenge acceptor address is not set yet.\n    //         require(challengeAcceptorAddress == Helpers.nullAddress(), \"Challenge acceptor address is already set\");\n    //         // Check and verify if the winner address is not set.\n    //         require(winnerAddress == Helpers.nullAddress(), \"Winner address cannot be set before the game ends\");\n    //     } else if (action == ActionType.JoinGame) {\n    //         // Check and verify if a game currently exists for specified `gameId`.\n    //         require(gameExists, \"A game with specified ID does not exists\");\n    //         // Check and verify if challenger address is already set for the game.\n    //         require(challengerAddress != Helpers.nullAddress(), \"No challenger address set for the game\");\n    //         // Check and verify if challenger address is not equal to caller address.\n    //         require(challengerAddress != msg.sender, \"Challenger and challenge acceptor address cannot be same address\");\n    //         // Check and verify if challenge acceptor address is not equal to caller address.\n    //         require(challengeAcceptorAddress != msg.sender, \"The player already accepted the challenge\");\n    //         // Check and verify if challenge acceptor address is not set yet.\n    //         require(challengeAcceptorAddress == Helpers.nullAddress(), \"A player already accepted this challenge\");\n    //         // Check and verify if a value equal to or greater than `_baseGameFee` was sent along with the transaction.\n    //         require(valuePassed == _baseGameFee, \"Sent value should be equal to game fee\");\n    //         // Check and verify if the winner address is not set.\n    //         require(winnerAddress == Helpers.nullAddress(), \"Winner address cannot be set before the game ends\");\n    //     } else if (action == ActionType.EndGame) {\n    //         // Check and verify if a game exists for the specified `gameId`.\n    //         require(gameExists, \"A game with specified ID does not exists.\");\n    //         // Check and verify if challengerAddress is valid.\n    //         require(challengerAddress != Helpers.nullAddress(), \"Challenger address is not valid.\");\n    //         // Check and verify if challenge acceptor address is valid.\n    //         require(challengeAcceptorAddress != Helpers.nullAddress(), \"Challenge acceptor address is not valid\");\n    //         // Check and verify if the winner address is not set.\n    //         require(winnerAddress == Helpers.nullAddress(), \"Winner address is already set\");\n    //         // Check and verify if the passed _winnerAddress is valid\n    //         require(_winnerAddress != Helpers.nullAddress(), \"Winner address is not valid\");\n    //         // Check and verify if passed _winnerAddress is equal to either player of the game\n    //         require(_winnerAddress == challengerAddress || _winnerAddress == challengeAcceptorAddress, \"Winner address does not belong to either player of the game\");\n    //     } else {\n    //         require(false, \"Action invalid.\");\n    //     }\n    //     _;\n    // }\n\n    mapping(uint => address) private _gamesMap;\n    mapping(address => address) private _playersMap;\n    mapping(uint => address) private _winnersMap;\n\n    uint private _baseGameFee = 0.005 ether;\n    IERC20 private _token = new ERC20(\"ether\", \"ETH\");\n    NFTContract private nftContract = new NFTContract(address(this));\n    \n    /**\n     * @dev Call this to get the current balance of \n     */\n    function getContractBalance() external view returns (uint) {\n        return address(this).balance;\n    }\n    \n    /**\n     * @dev Call this to update the current base game fee. This method can only be called via owner of this contract.\n     *\n     * @param newGameFee new fee value to be used for creating a new game.\n     */\n    function updateGameFees(uint newGameFee) external onlyOwner() {\n      _baseGameFee = newGameFee;\n    }\n    \n    /**\n    * @dev Create a new game by depositing a gameFee.\n    * \n    */\n    function createGame() external payable nonReentrant {\n        uint currentCounter = currentCounterValue();\n        address challengerAddress = _gamesMap[currentCounter];\n        bool gameExists = challengerAddress != Helpers.nullAddress();\n        // Check and verify if a game with specified ID  already exists.\n        require(!gameExists, \"A game with specified ID already exists\");\n        // Check and verify if a challenger address does not already exists.\n        bool challengerExists = challengerAddress != Helpers.nullAddress();\n        require(!challengerExists, \"Challenger address already exists\");\n        // Check and verify if a value equal to or greater than `_baseGameFee` was sent along with the transaction.\n        require(msg.value >= _baseGameFee, \"Sent value should be equal to game fee\");\n        bool challengeAcceptorExists = _playersMap[challengerAddress] != Helpers.nullAddress();\n        // Check and verify if the challenge acceptor address exist\n        require(!challengeAcceptorExists, \"Challenge acceptor address already exists\");\n        bool winnerExists = _winnersMap[currentCounter] != Helpers.nullAddress();\n        // Check and verify if the winner address is not set.\n        require(!winnerExists, \"Winner address cannot be set before the game starts\");\n        // Create a new game after the funds are locked\n        _createGame();\n        // Safe increase allowance for this contract to spend `_baseGameFee` after the game is finished\n        SafeERC20.safeIncreaseAllowance(_token, address(this), msg.value);\n        // Emit new game event\n        emit GameCreated(msg.sender, currentCounter);\n    }\n    \n    /**\n     * @dev Call this to join a game with provided `gameId`. Throw an exeption if no game for this `gameId` exists.\n     * \n     * @param gameId id of game to be ended\n     */\n    function joinGame(uint gameId) external payable nonReentrant {\n        address challengerAddress = _gamesMap[gameId];\n        bool gameExists = challengerAddress != Helpers.nullAddress();\n        // Check and verify if a game with specified ID  already exists.\n        require(gameExists, \"A game with specified ID does not exist\");\n        // Check and verify if a challenger address exists.\n        bool challengerExists = challengerAddress != Helpers.nullAddress();\n        require(challengerExists, \"Challenger address does not exists\");\n        // Check and verify if a value equal to or greater than `_baseGameFee` was sent along with the transaction.\n        require(msg.value >= _baseGameFee, \"Sent value should be equal to game fee\");\n        address challengeAcceptorAddress = _playersMap[challengerAddress];\n        bool challengeAcceptorExists = challengeAcceptorAddress != Helpers.nullAddress();\n        // Check and verify if the challenge acceptor address exist\n        require(!challengeAcceptorExists, \"Challenge acceptor address already exists\");\n        // Check and verify if both player address are unique\n        require(challengerAddress != msg.sender, \"Both player address should be unique\");\n        bool winnerExists = _winnersMap[gameId] != Helpers.nullAddress();\n        // Check and verify if the winner address is not set.\n        require(!winnerExists, \"Winner address cannot be set before the game starts\");\n        // Join an already created game with specified `gameId`\n        _joinGame(gameId);\n        // Safe increase allowance for this contract to spend `msg.value` after the game is finished\n        SafeERC20.safeIncreaseAllowance(_token, address(this), msg.value);\n        // Emit game joined event\n        emit GameJoined(challengerAddress, msg.sender, gameId);\n    }\n    \n    /**\n     * @dev Call this to end a game with specified `gameId`. A game would end either when one player wins or if no \n     * player accepts a challenge within 30 minutes.\n     * \n     * @param gameId id of this game\n     * @param winnerAddress address of player who won the game\n     * @param winTime time taken (in seconds) to win the game\n     */\n    function endGame(\n        uint gameId, \n        address winnerAddress, \n        uint winTime\n    ) external nonReentrant onlyOwner() {\n        // Check and verify if the `winTime` is greater than 0\n        require(winTime > 0, \"WinTime has to be greater than 0\");\n        // End the current game and update winner address\n        _endGame(winnerAddress, gameId);\n        // Emit end game event\n        emit GameEnd(winnerAddress, gameId);\n    }\n    \n    /**\n     * @dev Winner of the game can call this to mint the winning card NFT.\n     *\n     * @param gameId id of this game\n     * @param isRare true if this NFT is rare\n     * @param winTime time taken (in seconds) to win the game\n     * @param killScore count of longest consecutive kill by one single piece on board\n     */\n    function mintNFT(\n        uint gameId, \n        bool isRare,\n        uint winTime, \n        uint8 killScore\n    ) external nonReentrant {\n        // Check and verify if the caller address is valid\n        require(msg.sender != Helpers.nullAddress(), \"Caller address is not valid\");\n        address challengerAddress = _gamesMap[gameId];\n        bool gameExists = challengerAddress != Helpers.nullAddress();\n        // Check and verify if a game with specified ID  already exists.\n        require(gameExists, \"A game with specified ID does not exist\");\n        bool challengeAcceptorExists = _playersMap[challengerAddress] != Helpers.nullAddress();\n        // Check and verify if the challenge acceptor address exist\n        require(challengeAcceptorExists, \"Challenge acceptor address is not set\");\n        address winnerAddress = _winnersMap[gameId];\n        bool winnerExists = winnerAddress != Helpers.nullAddress();\n        // Check and verify if the winner address is not set.\n        require(winnerExists, \"Winner address is not set\");\n        // Check and verify if the caller address matches to winner address\n        require(msg.sender == winnerAddress, \"Only the winner of the game can mint the NFT card\");\n        // Create and mint NFT and assign it to winner address\n        _createAndMintNFT(gameId, winnerAddress, isRare, winTime, killScore);\n    }\n    \n    /**\n     * @dev Create a new game and update the mapping for `games`.\n     */\n    function _createGame() private increment() {\n        _gamesMap[currentCounterValue()] = msg.sender;\n    }\n    \n    /**\n     * @dev Call this to join a game with provided `gameId`.\n     * \n     * @param gameId id of game to be ended\n     */\n    function _joinGame(uint gameId) private {\n        _playersMap[_gamesMap[gameId]] = msg.sender;\n    }\n    \n    /**\n     * @dev Call this to set the `winnerAddress` when a game finishes\n     * \n     * @param winnerAddress address of player who won the game\n     * @param gameId id of this game\n     */\n    function _endGame(address winnerAddress, uint gameId) private {\n        _winnersMap[gameId] = winnerAddress;\n    }\n\n    /**\n     * @dev Call this method when the game ends to create and mint NFT.\n     * \n     * @param gameId id of this game.\n     * @param winnerAddress address of player who won the game\n     * @param isRare true if this NFT is rare\n     * @param winTime time taken (in seconds) to win the game\n     * @param killScore count of longest consecutive kill by one single piece on board\n     */\n    function _createAndMintNFT(\n        uint gameId, \n        address winnerAddress, \n        bool isRare,\n        uint winTime, \n        uint8 killScore\n    ) private {\n        // Create nft here and once created then emit NFTCreated event \n        nftContract.createAndMintToken(gameId, winTime, killScore, isRare);\n        emit NFTCreated(winnerAddress, gameId, isRare);\n    }\n}",
  "sourcePath": "/Users/saurabh-macbook/Documents/dapps/chkmate/frontend_base_dapp/contracts/GameContract.sol",
  "compiler": {
    "name": "solc",
    "version": "0.8.0+commit.c7dfd78e.Emscripten.clang"
  },
  "schemaVersion": "3.4.3",
  "updatedAt": "2021-10-03T04:05:24.252Z",
  "networkType": "ethereum",
  "devdoc": {
    "kind": "dev",
    "methods": {
      "createGame()": {
        "details": "Create a new game by depositing a gameFee. "
      },
      "endGame(uint256,address,uint256)": {
        "details": "Call this to end a game with specified `gameId`. A game would end either when one player wins or if no  player accepts a challenge within 30 minutes. ",
        "params": {
          "gameId": "id of this game",
          "winTime": "time taken (in seconds) to win the game",
          "winnerAddress": "address of player who won the game"
        }
      },
      "getContractBalance()": {
        "details": "Call this to get the current balance of "
      },
      "joinGame(uint256)": {
        "details": "Call this to join a game with provided `gameId`. Throw an exeption if no game for this `gameId` exists. ",
        "params": {
          "gameId": "id of game to be ended"
        }
      },
      "mintNFT(uint256,bool,uint256,uint8)": {
        "details": "Winner of the game can call this to mint the winning card NFT.",
        "params": {
          "gameId": "id of this game",
          "isRare": "true if this NFT is rare",
          "killScore": "count of longest consecutive kill by one single piece on board",
          "winTime": "time taken (in seconds) to win the game"
        }
      },
      "owner()": {
        "details": "Returns the address of the current owner."
      },
      "renounceOwnership()": {
        "details": "Leaves the contract without owner. It will not be possible to call `onlyOwner` functions anymore. Can only be called by the current owner. NOTE: Renouncing ownership will leave the contract without an owner, thereby removing any functionality that is only available to the owner."
      },
      "setOwnership(address)": {
        "details": "Call this method to update ownership in future (if needed). This external  method can only be called by the owner of this contract. Since `transferOwnership()` already have this check it's not required for this method. ",
        "params": {
          "newOwnerAddress": "address of new owner to which ownership is to be transfered."
        }
      },
      "transferOwnership(address)": {
        "details": "Transfers ownership of the contract to a new account (`newOwner`). Can only be called by the current owner."
      },
      "updateGameFees(uint256)": {
        "details": "Call this to update the current base game fee. This method can only be called via owner of this contract.",
        "params": {
          "newGameFee": "new fee value to be used for creating a new game."
        }
      }
    },
    "version": 1
  },
  "userdoc": {
    "kind": "user",
    "methods": {},
    "version": 1
  }
}