{
  "contractName": "GameContract",
  "abi": [
    {
      "inputs": [],
      "stateMutability": "nonpayable",
      "type": "constructor"
    },
    {
      "anonymous": false,
      "inputs": [
        {
          "indexed": true,
          "internalType": "address",
          "name": "challengerAddress",
          "type": "address"
        },
        {
          "indexed": false,
          "internalType": "uint256",
          "name": "gameId",
          "type": "uint256"
        }
      ],
      "name": "GameCreated",
      "type": "event"
    },
    {
      "anonymous": false,
      "inputs": [
        {
          "indexed": true,
          "internalType": "address",
          "name": "challengeAcceptorAddress",
          "type": "address"
        },
        {
          "indexed": false,
          "internalType": "uint256",
          "name": "gameId",
          "type": "uint256"
        }
      ],
      "name": "GameJoined",
      "type": "event"
    },
    {
      "anonymous": false,
      "inputs": [
        {
          "indexed": true,
          "internalType": "address",
          "name": "winnerAddress",
          "type": "address"
        },
        {
          "indexed": false,
          "internalType": "uint256",
          "name": "gameId",
          "type": "uint256"
        },
        {
          "indexed": false,
          "internalType": "bool",
          "name": "isRare",
          "type": "bool"
        }
      ],
      "name": "NFTCreated",
      "type": "event"
    },
    {
      "anonymous": false,
      "inputs": [
        {
          "indexed": true,
          "internalType": "address",
          "name": "previousOwner",
          "type": "address"
        },
        {
          "indexed": true,
          "internalType": "address",
          "name": "newOwner",
          "type": "address"
        }
      ],
      "name": "OwnershipTransferred",
      "type": "event"
    },
    {
      "inputs": [],
      "name": "owner",
      "outputs": [
        {
          "internalType": "address",
          "name": "",
          "type": "address"
        }
      ],
      "stateMutability": "view",
      "type": "function",
      "constant": true
    },
    {
      "inputs": [],
      "name": "renounceOwnership",
      "outputs": [],
      "stateMutability": "nonpayable",
      "type": "function"
    },
    {
      "inputs": [
        {
          "internalType": "address",
          "name": "newOwnerAddress",
          "type": "address"
        }
      ],
      "name": "setOwnership",
      "outputs": [],
      "stateMutability": "nonpayable",
      "type": "function"
    },
    {
      "inputs": [
        {
          "internalType": "address",
          "name": "newOwner",
          "type": "address"
        }
      ],
      "name": "transferOwnership",
      "outputs": [],
      "stateMutability": "nonpayable",
      "type": "function"
    },
    {
      "inputs": [],
      "name": "getAllGames",
      "outputs": [
        {
          "components": [
            {
              "internalType": "uint256",
              "name": "id",
              "type": "uint256"
            },
            {
              "internalType": "uint256",
              "name": "gameFee",
              "type": "uint256"
            },
            {
              "internalType": "address",
              "name": "challengerAddress",
              "type": "address"
            },
            {
              "internalType": "address",
              "name": "challengeAcceptorAddress",
              "type": "address"
            },
            {
              "internalType": "address",
              "name": "winnerAddress",
              "type": "address"
            },
            {
              "internalType": "bool",
              "name": "inProgress",
              "type": "bool"
            }
          ],
          "internalType": "struct GameContract.Game[]",
          "name": "",
          "type": "tuple[]"
        }
      ],
      "stateMutability": "view",
      "type": "function",
      "constant": true
    },
    {
      "inputs": [],
      "name": "getContractBalance",
      "outputs": [
        {
          "internalType": "uint256",
          "name": "",
          "type": "uint256"
        }
      ],
      "stateMutability": "view",
      "type": "function",
      "constant": true
    },
    {
      "inputs": [
        {
          "internalType": "uint256",
          "name": "newGameFee",
          "type": "uint256"
        }
      ],
      "name": "updateGameFees",
      "outputs": [],
      "stateMutability": "nonpayable",
      "type": "function"
    },
    {
      "inputs": [],
      "name": "createGame",
      "outputs": [],
      "stateMutability": "payable",
      "type": "function",
      "payable": true
    },
    {
      "inputs": [
        {
          "internalType": "uint256",
          "name": "gameId",
          "type": "uint256"
        }
      ],
      "name": "joinGame",
      "outputs": [],
      "stateMutability": "payable",
      "type": "function",
      "payable": true
    },
    {
      "inputs": [
        {
          "internalType": "uint256",
          "name": "gameId",
          "type": "uint256"
        },
        {
          "internalType": "uint256",
          "name": "winTime",
          "type": "uint256"
        },
        {
          "internalType": "uint8",
          "name": "killScore",
          "type": "uint8"
        },
        {
          "internalType": "bool",
          "name": "isRare",
          "type": "bool"
        }
      ],
      "name": "endGame",
      "outputs": [],
      "stateMutability": "payable",
      "type": "function",
      "payable": true
    }
  ],
  "bytecode": "0x60a06040819052600060808190526002556611c37937e080006004556200002690620001aa565b6200003190620001da565b604051809103906000f0801580156200004e573d6000803e3d6000fd5b50600580546001600160a01b0319166001600160a01b039290921691909117905560405130906200007f90620001b8565b6200008b9190620001c6565b604051809103906000f080158015620000a8573d6000803e3d6000fd5b50600680546001600160a01b0319166001600160a01b0392909216919091179055348015620000d657600080fd5b506001600055620000f0620000ea62000145565b62000149565b620000fa62000145565b6001600160a01b03166200010d6200019b565b6001600160a01b0316146200013f5760405162461bcd60e51b8152600401620001369062000214565b60405180910390fd5b62000249565b3390565b600180546001600160a01b038381166001600160a01b0319831681179093556040519116919082907f8be0079c531659141344cd1fd0a4f28419497f9722a3daafe3b4186f6b6457e090600090a35050565b6001546001600160a01b031690565b610c40806200159783390190565b6129e880620021d783390190565b6001600160a01b0391909116815260200190565b60408082526005908201526432ba3432b960d91b60608201526080602082018190526003908201526208aa8960eb1b60a082015260c00190565b6020808252818101527f4f776e61626c653a2063616c6c6572206973206e6f7420746865206f776e6572604082015260600190565b61133e80620002596000396000f3fe6080604052600436106100915760003560e01c8063bc0185bb11610059578063bc0185bb14610122578063db1c45f914610142578063efaa55a014610164578063f2fde38b14610177578063f85364591461019757610091565b80636f9fb98a14610096578063715018a6146100c15780637255d729146100d85780638da5cb5b146100e0578063a701602314610102575b600080fd5b3480156100a257600080fd5b506100ab6101aa565b6040516100b891906112d4565b60405180910390f35b3480156100cd57600080fd5b506100d66101f9565b005b6100d6610244565b3480156100ec57600080fd5b506100f561034a565b6040516100b89190610ec7565b34801561010e57600080fd5b506100d661011d366004610e2f565b610359565b34801561012e57600080fd5b506100d661013d366004610e5d565b610365565b34801561014e57600080fd5b506101576103a9565b6040516100b89190610edb565b6100d6610172366004610e5d565b610458565b34801561018357600080fd5b506100d6610192366004610e2f565b610692565b6100d66101a5366004610e75565b610700565b60006101b46108d3565b6001600160a01b03166101c561034a565b6001600160a01b0316146101f45760405162461bcd60e51b81526004016101eb9061118d565b60405180910390fd5b504790565b6102016108d3565b6001600160a01b031661021261034a565b6001600160a01b0316146102385760405162461bcd60e51b81526004016101eb9061118d565b61024260006108d7565b565b600260005414156102675760405162461bcd60e51b81526004016101eb9061129d565b600260009081553390610278610929565b600354909150811461029c5760405162461bcd60e51b81526004016101eb90611144565b6102a461093a565b6001600160a01b0316826001600160a01b031614156102d55760405162461bcd60e51b81526004016101eb906110c4565b6004543410156102f75760405162461bcd60e51b81526004016101eb90610ff2565b6103003461093f565b816001600160a01b03167f306841c3fce8498c2d9b7194b8da4c04d03847394e237b625ce6d029b107f0778260405161033991906112d4565b60405180910390a250506001600055565b6001546001600160a01b031690565b61036281610692565b50565b61036d6108d3565b6001600160a01b031661037e61034a565b6001600160a01b0316146103a45760405162461bcd60e51b81526004016101eb9061118d565b600455565b60606003805480602002602001604051908101604052809291908181526020016000905b8282101561044f5760008481526020908190206040805160c08101825260058602909201805483526001808201548486015260028201546001600160a01b03908116938501939093526003820154831660608501526004909101549182166080840152600160a01b90910460ff16151560a083015290835290920191016103cd565b50505050905090565b6002600054141561047b5760405162461bcd60e51b81526004016101eb9061129d565b60026000553361048961093a565b6001600160a01b0316816001600160a01b031614156104ba5760405162461bcd60e51b81526004016101eb90610fab565b600354158015906104cd57506003548211155b6104e95760405162461bcd60e51b81526004016101eb906111c2565b60006003838154811061050c57634e487b7160e01b600052603260045260246000fd5b60009182526020918290206040805160c0810182526005939093029091018054835260018101549383019390935260028301546001600160a01b03908116918301919091526003830154811660608301526004909201549182166080820152600160a01b90910460ff16151560a0820152905061058761093a565b6001600160a01b031681604001516001600160a01b031614156105bc5760405162461bcd60e51b81526004016101eb90611048565b6105c461093a565b6001600160a01b031681606001516001600160a01b0316146105f85760405162461bcd60e51b81526004016101eb9061120d565b8060a001516106195760405162461bcd60e51b81526004016101eb9061107f565b602081015134811461063d5760405162461bcd60e51b81526004016101eb90611256565b61064684610acc565b826001600160a01b03167fc7f886847371dba98b78e0d0d59e29f4abfaf6e953d6897a761992cb2627e6878560405161067f91906112d4565b60405180910390a2505060016000555050565b61069a6108d3565b6001600160a01b03166106ab61034a565b6001600160a01b0316146106d15760405162461bcd60e51b81526004016101eb9061118d565b6001600160a01b0381166106f75760405162461bcd60e51b81526004016101eb90610f65565b610362816108d7565b600260005414156107235760405162461bcd60e51b81526004016101eb9061129d565b60026000553361073161093a565b6001600160a01b0316816001600160a01b031614156107625760405162461bcd60e51b81526004016101eb906110fb565b6003541580159061077557506003548511155b6107915760405162461bcd60e51b81526004016101eb906111c2565b6000600386815481106107b457634e487b7160e01b600052603260045260246000fd5b60009182526020918290206040805160c0810182526005939093029091018054835260018101549383019390935260028301546001600160a01b03908116918301919091526003830154811660608301526004909201549182166080820152600160a01b90910460ff16151560a0820152905061082f61093a565b6001600160a01b031681604001516001600160a01b031614156108645760405162461bcd60e51b81526004016101eb906110c4565b8060a0015161087257600080fd5b6000851161087f57600080fd5b80608001516001600160a01b0316826001600160a01b0316146108a157600080fd5b60008460ff16116108b157600080fd5b6108ba86610c14565b6108c686868686610cba565b5050600160005550505050565b3390565b600180546001600160a01b038381166001600160a01b0319831681179093556040519116919082907f8be0079c531659141344cd1fd0a4f28419497f9722a3daafe3b4186f6b6457e090600090a35050565b60006109356002610e22565b905090565b600090565b60006040518060c00160405280610954610929565b81526020810184905233604082015260600161096e61093a565b6001600160a01b0316815260200161098461093a565b6001600160a01b03908116825260016020928301819052600380549182018155600052835160059091027fc2575a0e9e593c00f959f8c92f12db2869c3395a3b0502d05e2516446f71f85b810191909155918301517fc2575a0e9e593c00f959f8c92f12db2869c3395a3b0502d05e2516446f71f85c83015560408301517fc2575a0e9e593c00f959f8c92f12db2869c3395a3b0502d05e2516446f71f85d830180549183166001600160a01b031992831617905560608401517fc2575a0e9e593c00f959f8c92f12db2869c3395a3b0502d05e2516446f71f85e8401805491841691831691909117905560808401517fc2575a0e9e593c00f959f8c92f12db2869c3395a3b0502d05e2516446f71f85f909301805460a0909501511515600160a01b0260ff60a01b1994909316949091169390931791909116179055506103626002610e26565b600060038281548110610aef57634e487b7160e01b600052603260045260246000fd5b60009182526020918290206040805160c0810182526005939093029091018054835260018101549383019390935260028301546001600160a01b03908116918301919091526004909201549182166080820152600160a01b90910460ff16151560a082015233606082015260038054919250829184908110610b8157634e487b7160e01b600052603260045260246000fd5b6000918252602091829020835160059092020190815590820151600182015560408201516002820180546001600160a01b039283166001600160a01b031991821617909155606084015160038401805491841691831691909117905560808401516004909301805460a0909501511515600160a01b0260ff60a01b19949093169490911693909317919091161790555050565b600060038281548110610c3757634e487b7160e01b600052603260045260246000fd5b600091825260208083206040805160c08101825260059094029091018054845260018101549284019290925260028201546001600160a01b039081169184019190915260039182015416606083015233608083015260a0820192909252815490925082919084908110610b8157634e487b7160e01b600052603260045260246000fd5b60026000541415610cdd5760405162461bcd60e51b81526004016101eb9061129d565b600260009081556003805486908110610d0657634e487b7160e01b600052603260045260246000fd5b60009182526020918290206040805160c08101825260059093029091018054835260018101549383019390935260028301546001600160a01b0390811683830152600384015481166060840152600493840154808216608085015260ff600160a01b90910416151560a08401526006549151637f82625b60e01b81529294501691637f82625b91610d9d91889188918891016112ed565b600060405180830381600087803b158015610db757600080fd5b505af1158015610dcb573d6000803e3d6000fd5b5050505080608001516001600160a01b03167f3de783f9d670d5639f2acef925c39a874e41e3aa39966962eb1b3aaa6177c0c48684604051610e0e9291906112dd565b60405180910390a250506001600055505050565b5490565b80546001019055565b600060208284031215610e40578081fd5b81356001600160a01b0381168114610e56578182fd5b9392505050565b600060208284031215610e6e578081fd5b5035919050565b60008060008060808587031215610e8a578283fd5b8435935060208501359250604085013560ff81168114610ea8578283fd5b915060608501358015158114610ebc578182fd5b939692955090935050565b6001600160a01b0391909116815260200190565b602080825282518282018190526000919060409081850190868401855b82811015610f58578151805185528681015187860152858101516001600160a01b03908116878701526060808301518216908701526080808301519091169086015260a09081015115159085015260c09093019290850190600101610ef8565b5091979650505050505050565b60208082526026908201527f4f776e61626c653a206e6577206f776e657220697320746865207a65726f206160408201526564647265737360d01b606082015260800190565b60208082526027908201527f4368616c6c656e6765206163636570746f722061646472657373206973206e6f6040820152661d081d985b1a5960ca1b606082015260800190565b60208082526036908201527f53656e742076616c75652073686f756c6420626520657175616c20746f206f726040820152752067726561746572207468616e2067616d652066656560501b606082015260800190565b6020808252601d908201527f4368616c6c656e676572206164647265737320697320696e76616c6964000000604082015260600190565b60208082526025908201527f43757272656e742067616d65206973206e6f206c6f6e67657220696e2070726f604082015264677265737360d81b606082015260800190565b6020808252601f908201527f4368616c6c656e6765722061646472657373206973206e6f742076616c696400604082015260600190565b60208082526029908201527f412076616c6964206164647265737320697320726571756972656420746f20656040820152686e6420612067616d6560b81b606082015260800190565b60208082526029908201527f412067616d6520616c72656164792065786973747320666f722063757272656e6040820152683a1031b7bab73a32b960b91b606082015260800190565b6020808252818101527f4f776e61626c653a2063616c6c6572206973206e6f7420746865206f776e6572604082015260600190565b6020808252602b908201527f412067616d6520666f72207370656369666965642067616d65496420646f657360408201526a206e6f742065786973747360a81b606082015260800190565b60208082526029908201527f4368616c6c656e6765206163636570746f72206164647265737320697320616c6040820152681c9958591e481cd95d60ba1b606082015260800190565b60208082526027908201527f53656e742076616c75652073686f756c6420626520657175616c7420746f2067604082015266616d652066656560c81b606082015260800190565b6020808252601f908201527f5265656e7472616e637947756172643a207265656e7472616e742063616c6c00604082015260600190565b90815260200190565b9182521515602082015260400190565b92835260ff919091166020830152151560408201526060019056fea2646970667358221220d80e93de1392776ac5c0776a6649b8a164a408dbe1ff540b8b9f1c3493feb08964736f6c6343000800003360806040523480156200001157600080fd5b5060405162000c4038038062000c408339810160408190526200003491620001b9565b81516200004990600390602085019062000068565b5080516200005f90600490602084019062000068565b50505062000273565b828054620000769062000220565b90600052602060002090601f0160209004810192826200009a5760008555620000e5565b82601f10620000b557805160ff1916838001178555620000e5565b82800160010185558215620000e5579182015b82811115620000e5578251825591602001919060010190620000c8565b50620000f3929150620000f7565b5090565b5b80821115620000f35760008155600101620000f8565b600082601f8301126200011f578081fd5b81516001600160401b03808211156200013c576200013c6200025d565b6040516020601f8401601f19168201810183811183821017156200016457620001646200025d565b60405283825285840181018710156200017b578485fd5b8492505b838310156200019e57858301810151828401820152918201916200017f565b83831115620001af57848185840101525b5095945050505050565b60008060408385031215620001cc578182fd5b82516001600160401b0380821115620001e3578384fd5b620001f1868387016200010e565b9350602085015191508082111562000207578283fd5b5062000216858286016200010e565b9150509250929050565b6002810460018216806200023557607f821691505b602082108114156200025757634e487b7160e01b600052602260045260246000fd5b50919050565b634e487b7160e01b600052604160045260246000fd5b6109bd80620002836000396000f3fe608060405234801561001057600080fd5b50600436106100a95760003560e01c80633950935111610071578063395093511461012957806370a082311461013c57806395d89b411461014f578063a457c2d714610157578063a9059cbb1461016a578063dd62ed3e1461017d576100a9565b806306fdde03146100ae578063095ea7b3146100cc57806318160ddd146100ec57806323b872dd14610101578063313ce56714610114575b600080fd5b6100b6610190565b6040516100c391906106dd565b60405180910390f35b6100df6100da3660046106a9565b610222565b6040516100c391906106d2565b6100f461023f565b6040516100c39190610911565b6100df61010f36600461066e565b610245565b61011c6102de565b6040516100c3919061091a565b6100df6101373660046106a9565b6102e3565b6100f461014a36600461061b565b610337565b6100b6610356565b6100df6101653660046106a9565b610365565b6100df6101783660046106a9565b6103de565b6100f461018b36600461063c565b6103f2565b60606003805461019f9061094c565b80601f01602080910402602001604051908101604052809291908181526020018280546101cb9061094c565b80156102185780601f106101ed57610100808354040283529160200191610218565b820191906000526020600020905b8154815290600101906020018083116101fb57829003601f168201915b5050505050905090565b600061023661022f61041d565b8484610421565b50600192915050565b60025490565b60006102528484846104d5565b6001600160a01b03841660009081526001602052604081208161027361041d565b6001600160a01b03166001600160a01b03168152602001908152602001600020549050828110156102bf5760405162461bcd60e51b81526004016102b6906107fb565b60405180910390fd5b6102d3856102cb61041d565b858403610421565b506001949350505050565b601290565b60006102366102f061041d565b8484600160006102fe61041d565b6001600160a01b03908116825260208083019390935260409182016000908120918b16815292529020546103329190610928565b610421565b6001600160a01b0381166000908152602081905260409020545b919050565b60606004805461019f9061094c565b6000806001600061037461041d565b6001600160a01b03908116825260208083019390935260409182016000908120918816815292529020549050828110156103c05760405162461bcd60e51b81526004016102b6906108cc565b6103d46103cb61041d565b85858403610421565b5060019392505050565b60006102366103eb61041d565b84846104d5565b6001600160a01b03918216600090815260016020908152604080832093909416825291909152205490565b3390565b6001600160a01b0383166104475760405162461bcd60e51b81526004016102b690610888565b6001600160a01b03821661046d5760405162461bcd60e51b81526004016102b690610773565b6001600160a01b0380841660008181526001602090815260408083209487168084529490915290819020849055517f8c5be1e5ebec7d5bd14f71427d1e84f3dd0314c0f7b2291e5b200ac8c7c3b925906104c8908590610911565b60405180910390a3505050565b6001600160a01b0383166104fb5760405162461bcd60e51b81526004016102b690610843565b6001600160a01b0382166105215760405162461bcd60e51b81526004016102b690610730565b61052c8383836105ff565b6001600160a01b038316600090815260208190526040902054818110156105655760405162461bcd60e51b81526004016102b6906107b5565b6001600160a01b0380851660009081526020819052604080822085850390559185168152908120805484929061059c908490610928565b92505081905550826001600160a01b0316846001600160a01b03167fddf252ad1be2c89b69c2b068fc378daa952ba7f163c4a11628f55a4df523b3ef846040516105e69190610911565b60405180910390a36105f98484846105ff565b50505050565b505050565b80356001600160a01b038116811461035157600080fd5b60006020828403121561062c578081fd5b61063582610604565b9392505050565b6000806040838503121561064e578081fd5b61065783610604565b915061066560208401610604565b90509250929050565b600080600060608486031215610682578081fd5b61068b84610604565b925061069960208501610604565b9150604084013590509250925092565b600080604083850312156106bb578182fd5b6106c483610604565b946020939093013593505050565b901515815260200190565b6000602080835283518082850152825b81811015610709578581018301518582016040015282016106ed565b8181111561071a5783604083870101525b50601f01601f1916929092016040019392505050565b60208082526023908201527f45524332303a207472616e7366657220746f20746865207a65726f206164647260408201526265737360e81b606082015260800190565b60208082526022908201527f45524332303a20617070726f766520746f20746865207a65726f206164647265604082015261737360f01b606082015260800190565b60208082526026908201527f45524332303a207472616e7366657220616d6f756e7420657863656564732062604082015265616c616e636560d01b606082015260800190565b60208082526028908201527f45524332303a207472616e7366657220616d6f756e74206578636565647320616040820152676c6c6f77616e636560c01b606082015260800190565b60208082526025908201527f45524332303a207472616e736665722066726f6d20746865207a65726f206164604082015264647265737360d81b606082015260800190565b60208082526024908201527f45524332303a20617070726f76652066726f6d20746865207a65726f206164646040820152637265737360e01b606082015260800190565b60208082526025908201527f45524332303a2064656372656173656420616c6c6f77616e63652062656c6f77604082015264207a65726f60d81b606082015260800190565b90815260200190565b60ff91909116815260200190565b6000821982111561094757634e487b7160e01b81526011600452602481fd5b500190565b60028104600182168061096057607f821691505b6020821081141561098157634e487b7160e01b600052602260045260246000fd5b5091905056fea2646970667358221220823cbb63cb58a09416d4d9fdbc4e7e66e7be29cc5ef704dedbc5fec7ee6fe87b64736f6c6343000800003360a060405260006080819052600855662386f26fc100006009553480156200002657600080fd5b50604051620029e8380380620029e8833981016040819052620000499162000253565b604080518082018252600b81526a10d212d35055114813919560aa1b60208083019182528351808501909452600784526643484b4d41544560c81b90840152600160008190558251929392620000a09290620001ad565b508051620000b6906002906020840190620001ad565b505050620000d3620000cd6200014860201b60201c565b6200014c565b620000dd62000148565b6001600160a01b0316620000f06200019e565b6001600160a01b031614620001225760405162461bcd60e51b8152600401620001199062000283565b60405180910390fd5b600a80546001600160a01b0319166001600160a01b0392909216919091179055620002f5565b3390565b600780546001600160a01b038381166001600160a01b0319831681179093556040519116919082907f8be0079c531659141344cd1fd0a4f28419497f9722a3daafe3b4186f6b6457e090600090a35050565b6007546001600160a01b031690565b828054620001bb90620002b8565b90600052602060002090601f016020900481019282620001df57600085556200022a565b82601f10620001fa57805160ff19168380011785556200022a565b828001600101855582156200022a579182015b828111156200022a5782518255916020019190600101906200020d565b50620002389291506200023c565b5090565b5b808211156200023857600081556001016200023d565b60006020828403121562000265578081fd5b81516001600160a01b03811681146200027c578182fd5b9392505050565b6020808252818101527f4f776e61626c653a2063616c6c6572206973206e6f7420746865206f776e6572604082015260600190565b600281046001821680620002cd57607f821691505b60208210811415620002ef57634e487b7160e01b600052602260045260246000fd5b50919050565b6126e380620003056000396000f3fe6080604052600436106101355760003560e01c80638da5cb5b116100ab578063b88d4fde1161006f578063b88d4fde14610342578063c7673e8a14610362578063c87b56dd14610382578063e985e9c5146103a2578063ee54ae79146103c2578063f2fde38b146103d757610135565b80638da5cb5b146102b857806395d89b41146102cd578063a22cb465146102e2578063a701602314610302578063a8773a7b1461032257610135565b80632a5c792a116100fd5780632a5c792a1461020157806342842e0e146102235780636352211e1461024357806370a0823114610263578063715018a6146102905780637f82625b146102a557610135565b806301ffc9a71461013a57806306fdde0314610170578063081812fc14610192578063095ea7b3146101bf57806323b872dd146101e1575b600080fd5b34801561014657600080fd5b5061015a610155366004611ba4565b6103f7565b6040516101679190611de7565b60405180910390f35b34801561017c57600080fd5b5061018561043f565b6040516101679190611df2565b34801561019e57600080fd5b506101b26101ad366004611bdc565b6104d1565b6040516101679190611cf5565b3480156101cb57600080fd5b506101df6101da366004611b7b565b61051d565b005b3480156101ed57600080fd5b506101df6101fc366004611a4b565b6105b5565b34801561020d57600080fd5b506102166105ed565b6040516101679190611d46565b34801561022f57600080fd5b506101df61023e366004611a4b565b61071f565b34801561024f57600080fd5b506101b261025e366004611bdc565b61073a565b34801561026f57600080fd5b5061028361027e3660046119ff565b61076f565b6040516101679190612565565b34801561029c57600080fd5b506101df6107b3565b6101df6102b3366004611bf4565b6107fe565b3480156102c457600080fd5b506101b26109c8565b3480156102d957600080fd5b506101856109d7565b3480156102ee57600080fd5b506101df6102fd366004611b52565b6109e6565b34801561030e57600080fd5b506101df61031d3660046119ff565b610ab4565b34801561032e57600080fd5b506101df61033d3660046119ff565b610ac0565b34801561034e57600080fd5b506101df61035d366004611a86565b610b21565b34801561036e57600080fd5b506101df61037d366004611bdc565b610b60565b34801561038e57600080fd5b5061018561039d366004611bdc565b610ba4565b3480156103ae57600080fd5b5061015a6103bd366004611a19565b610c27565b3480156103ce57600080fd5b50610216610c55565b3480156103e357600080fd5b506101df6103f23660046119ff565b610e78565b60006001600160e01b031982166380ac58cd60e01b148061042857506001600160e01b03198216635b5e139f60e01b145b80610437575061043782610ee6565b90505b919050565b60606001805461044e906125eb565b80601f016020809104026020016040519081016040528092919081815260200182805461047a906125eb565b80156104c75780601f1061049c576101008083540402835291602001916104c7565b820191906000526020600020905b8154815290600101906020018083116104aa57829003601f168201915b5050505050905090565b60006104dc82610eff565b6105015760405162461bcd60e51b81526004016104f890612315565b60405180910390fd5b506000908152600560205260409020546001600160a01b031690565b60006105288261073a565b9050806001600160a01b0316836001600160a01b0316141561055c5760405162461bcd60e51b81526004016104f89061242e565b806001600160a01b031661056e610f1c565b6001600160a01b0316148061058a575061058a816103bd610f1c565b6105a65760405162461bcd60e51b81526004016104f8906121af565b6105b08383610f20565b505050565b6105c66105c0610f1c565b82610f8e565b6105e25760405162461bcd60e51b81526004016104f8906124a6565b6105b0838383611013565b6060600b805480602002602001604051908101604052809291908181526020016000905b8282101561071657838290600052602060002090600502016040518060c0016040529081600082018054610644906125eb565b80601f0160208091040260200160405190810160405280929190818152602001828054610670906125eb565b80156106bd5780601f10610692576101008083540402835291602001916106bd565b820191906000526020600020905b8154815290600101906020018083116106a057829003601f168201915b5050509183525050600182810154602080840191909152600284015460408401526003840154606084015260049093015460ff808216608085015261010090910416151560a09092019190915291835292019101610611565b50505050905090565b6105b083838360405180602001604052806000815250610b21565b6000818152600360205260408120546001600160a01b0316806104375760405162461bcd60e51b81526004016104f890612256565b60006001600160a01b0382166107975760405162461bcd60e51b81526004016104f89061220c565b506001600160a01b031660009081526004602052604090205490565b6107bb610f1c565b6001600160a01b03166107cc6109c8565b6001600160a01b0316146107f25760405162461bcd60e51b81526004016104f890612361565b6107fc6000611140565b565b600260005414156108215760405162461bcd60e51b81526004016104f89061252e565b600260005561082e610f1c565b6001600160a01b031661083f6109c8565b6001600160a01b0316146108655760405162461bcd60e51b81526004016104f890612361565b826000610870611192565b905060095434146108935760405162461bcd60e51b81526004016104f890611e05565b61089b6111a3565b600a546001600160a01b03908116911614156108c95760405162461bcd60e51b81526004016104f8906122d4565b600954600a546001600160a01b03163110156108f75760405162461bcd60e51b81526004016104f890611f77565b6108ff6111a3565b6001600160a01b03166109118261073a565b6001600160a01b0316146109375760405162461bcd60e51b81526004016104f8906124f7565b600b818154811061095857634e487b7160e01b600052603260045260246000fd5b9060005260206000209060050201600101546000146109895760405162461bcd60e51b81526004016104f89061246f565b600082116109a95760405162461bcd60e51b81526004016104f890612027565b6109b48585856111a8565b6109bc61124a565b50506001600055505050565b6007546001600160a01b031690565b60606002805461044e906125eb565b6109ee610f1c565b6001600160a01b0316826001600160a01b03161415610a1f5760405162461bcd60e51b81526004016104f890611ff0565b8060066000610a2c610f1c565b6001600160a01b03908116825260208083019390935260409182016000908120918716808252919093529120805460ff191692151592909217909155610a70610f1c565b6001600160a01b03167f17307eab39ab6107e8899845ad3d59bd9653f200f220920489ca2b5937696c3183604051610aa89190611de7565b60405180910390a35050565b610abd81610e78565b50565b610ac8610f1c565b6001600160a01b0316610ad96109c8565b6001600160a01b031614610aff5760405162461bcd60e51b81526004016104f890612361565b600a80546001600160a01b0319166001600160a01b0392909216919091179055565b610b32610b2c610f1c565b83610f8e565b610b4e5760405162461bcd60e51b81526004016104f8906124a6565b610b5a848484846112a1565b50505050565b610b68610f1c565b6001600160a01b0316610b796109c8565b6001600160a01b031614610b9f5760405162461bcd60e51b81526004016104f890612361565b600955565b6060610baf82610eff565b610bcb5760405162461bcd60e51b81526004016104f8906123df565b6000610bd56112d4565b90506000815111610bf55760405180602001604052806000815250610c20565b80610bff846112e6565b604051602001610c10929190611c7e565b6040516020818303038152906040525b9392505050565b6001600160a01b03918216600090815260066020908152604080832093909416825291909152205460ff1690565b60606000610c61611192565b905060008167ffffffffffffffff811115610c8c57634e487b7160e01b600052604160045260246000fd5b604051908082528060200260200182016040528015610cc557816020015b610cb2611904565b815260200190600190039081610caa5790505b5090506000805b83811015610e6f5733610cde8261073a565b6001600160a01b03161415610e5d576000600b8281548110610d1057634e487b7160e01b600052603260045260246000fd5b90600052602060002090600502016040518060c0016040529081600082018054610d39906125eb565b80601f0160208091040260200160405190810160405280929190818152602001828054610d65906125eb565b8015610db25780601f10610d8757610100808354040283529160200191610db2565b820191906000526020600020905b815481529060010190602001808311610d9557829003601f168201915b505050918352505060018201546020820152600282015460408201526003820154606082015260049091015460ff808216608084015261010090910416151560a09091015284519091508190859085908110610e1e57634e487b7160e01b600052603260045260246000fd5b6020908102919091010152600080610e37856001611401565b9150915081610e585760405162461bcd60e51b81526004016104f890611e62565b935050505b80610e6781612626565b915050610ccc565b50909250505090565b610e80610f1c565b6001600160a01b0316610e916109c8565b6001600160a01b031614610eb75760405162461bcd60e51b81526004016104f890612361565b6001600160a01b038116610edd5760405162461bcd60e51b81526004016104f890611efa565b610abd81611140565b6001600160e01b031981166301ffc9a760e01b14919050565b6000908152600360205260409020546001600160a01b0316151590565b3390565b600081815260056020526040902080546001600160a01b0319166001600160a01b0384169081179091558190610f558261073a565b6001600160a01b03167f8c5be1e5ebec7d5bd14f71427d1e84f3dd0314c0f7b2291e5b200ac8c7c3b92560405160405180910390a45050565b6000610f9982610eff565b610fb55760405162461bcd60e51b81526004016104f8906120fc565b6000610fc08361073a565b9050806001600160a01b0316846001600160a01b03161480610ffb5750836001600160a01b0316610ff0846104d1565b6001600160a01b0316145b8061100b575061100b8185610c27565b949350505050565b826001600160a01b03166110268261073a565b6001600160a01b03161461104c5760405162461bcd60e51b81526004016104f890612396565b6001600160a01b0382166110725760405162461bcd60e51b81526004016104f890611fac565b61107d8383836105b0565b611088600082610f20565b6001600160a01b03831660009081526004602052604081208054600192906110b19084906125a8565b90915550506001600160a01b03821660009081526004602052604081208054600192906110df90849061257c565b909155505060008181526003602052604080822080546001600160a01b0319166001600160a01b0386811691821790925591518493918716917fddf252ad1be2c89b69c2b068fc378daa952ba7f163c4a11628f55a4df523b3ef91a4505050565b600780546001600160a01b038381166001600160a01b0319831681179093556040519116919082907f8be0079c531659141344cd1fd0a4f28419497f9722a3daafe3b4186f6b6457e090600090a35050565b600061119e600861142a565b905090565b600090565b60006111b2611192565b90506111c08185858561142e565b6111ca338261155e565b336001600160a01b03167f96234cb3d6c373a1aaa06497a540bc166d4b0359243a088eaf95e21d7253d0be82600b848154811061121757634e487b7160e01b600052603260045260246000fd5b90600052602060002090600502016002015460405161123792919061256e565b60405180910390a2506105b0600861157c565b611252610f1c565b6001600160a01b03166112636109c8565b6001600160a01b0316146112895760405162461bcd60e51b81526004016104f890612361565b60006112936109c8565b9050610abd81600954611585565b6112ac848484611013565b6112b884848484611621565b610b5a5760405162461bcd60e51b81526004016104f890611ea8565b60408051602081019091526000815290565b60608161130b57506040805180820190915260018152600360fc1b602082015261043a565b8160005b8115611335578061131f81612626565b915061132e9050600a83612594565b915061130f565b60008167ffffffffffffffff81111561135e57634e487b7160e01b600052604160045260246000fd5b6040519080825280601f01601f191660200182016040528015611388576020820181803683370190505b5090505b841561100b5761139d6001836125a8565b91506113aa600a86612641565b6113b590603061257c565b60f81b8183815181106113d857634e487b7160e01b600052603260045260246000fd5b60200101906001600160f81b031916908160001a9053506113fa600a86612594565b945061138c565b6000808383018481101561141c576000809250925050611423565b6001925090505b9250929050565b5490565b600042338660405160200161144593929190611ccd565b604051602081830303815290604052905060006114618261173c565b90506000866040516020016114769190611cb0565b60408051601f1981840301815260c08301825280835260208381018b90529183018590526060830189905260ff8816608084015286151560a0840152600b805460018101825560009190915283518051929550849360059092027f0175b7a638427703f0dbe7bb9bbf987a2551717b34e79f33b5b1008d1fa01db90192611500928492019061193f565b5060208201516001820155604082015160028201556060820151600382015560808201516004909101805460a09093015115156101000261ff001960ff90931660ff1990941693909317919091169190911790555050505050505050565b6115788282604051806020016040528060008152506117ae565b5050565b80546001019055565b804710156115a55760405162461bcd60e51b81526004016104f8906120c5565b6000826001600160a01b0316826040516115be90611cad565b60006040518083038185875af1925050503d80600081146115fb576040519150601f19603f3d011682016040523d82523d6000602084013e611600565b606091505b50509050806105b05760405162461bcd60e51b81526004016104f890612068565b6000611635846001600160a01b03166117e1565b1561173157836001600160a01b031663150b7a02611651610f1c565b8786866040518563ffffffff1660e01b81526004016116739493929190611d09565b602060405180830381600087803b15801561168d57600080fd5b505af19250505080156116bd575060408051601f3d908101601f191682019092526116ba91810190611bc0565b60015b611717573d8080156116eb576040519150601f19603f3d011682016040523d82523d6000602084013e6116f0565b606091505b50805161170f5760405162461bcd60e51b81526004016104f890611ea8565b805181602001fd5b6001600160e01b031916630a85bd0160e11b14905061100b565b506001949350505050565b600080662386f26fc10000905060008360405160200161175c9190611c62565b6040516020818303038152906040528051906020012060001c905060008061178483856117e7565b91509150816117a55760405162461bcd60e51b81526004016104f890612148565b95945050505050565b6117b88383611825565b6117c56000848484611621565b6105b05760405162461bcd60e51b81526004016104f890611ea8565b3b151590565b600080826117fa57506000905080611423565b600183858161181957634e487b7160e01b600052601260045260246000fd5b06915091509250929050565b6001600160a01b03821661184b5760405162461bcd60e51b81526004016104f89061229f565b61185481610eff565b156118715760405162461bcd60e51b81526004016104f890611f40565b61187d600083836105b0565b6001600160a01b03821660009081526004602052604081208054600192906118a690849061257c565b909155505060008181526003602052604080822080546001600160a01b0319166001600160a01b03861690811790915590518392907fddf252ad1be2c89b69c2b068fc378daa952ba7f163c4a11628f55a4df523b3ef908290a45050565b6040518060c0016040528060608152602001600081526020016000815260200160008152602001600060ff1681526020016000151581525090565b82805461194b906125eb565b90600052602060002090601f01602090048101928261196d57600085556119b3565b82601f1061198657805160ff19168380011785556119b3565b828001600101855582156119b3579182015b828111156119b3578251825591602001919060010190611998565b506119bf9291506119c3565b5090565b5b808211156119bf57600081556001016119c4565b80356001600160a01b038116811461043a57600080fd5b8035801515811461043a57600080fd5b600060208284031215611a10578081fd5b610c20826119d8565b60008060408385031215611a2b578081fd5b611a34836119d8565b9150611a42602084016119d8565b90509250929050565b600080600060608486031215611a5f578081fd5b611a68846119d8565b9250611a76602085016119d8565b9150604084013590509250925092565b60008060008060808587031215611a9b578081fd5b611aa4856119d8565b93506020611ab38187016119d8565b935060408601359250606086013567ffffffffffffffff80821115611ad6578384fd5b818801915088601f830112611ae9578384fd5b813581811115611afb57611afb612681565b604051601f8201601f1916810185018381118282101715611b1e57611b1e612681565b60405281815283820185018b1015611b34578586fd5b81858501868301379081019093019390935250939692955090935050565b60008060408385031215611b64578182fd5b611b6d836119d8565b9150611a42602084016119ef565b60008060408385031215611b8d578182fd5b611b96836119d8565b946020939093013593505050565b600060208284031215611bb5578081fd5b8135610c2081612697565b600060208284031215611bd1578081fd5b8151610c2081612697565b600060208284031215611bed578081fd5b5035919050565b600080600060608486031215611c08578283fd5b83359250602084013560ff81168114611c1f578283fd5b9150611c2d604085016119ef565b90509250925092565b60008151808452611c4e8160208601602086016125bf565b601f01601f19169290920160200192915050565b60008251611c748184602087016125bf565b9190910192915050565b60008351611c908184602088016125bf565b835190830190611ca48183602088016125bf565b01949350505050565b90565b6843484b4d415445202360b81b8152600981019190915260290190565b92835260609190911b6bffffffffffffffffffffffff19166020830152603482015260540190565b6001600160a01b0391909116815260200190565b6001600160a01b0385811682528416602082015260408101839052608060608201819052600090611d3c90830184611c36565b9695505050505050565b60208082528251828201819052600091906040908185019080840286018301878501865b83811015611dd957603f19898403018552815160c08151818652611d9082870182611c36565b838b0151878c0152898401518a8801526060808501519088015260808085015160ff169088015260a0938401511515939096019290925250509386019390860190600101611d6a565b509098975050505050505050565b901515815260200190565b600060208252610c206020830184611c36565b6020808252603a908201527f50617373656420746f6b656e2076616c75652073686f756c642062652065717560408201527f616c20746f2063757272656e74206d696e74696e67206665652e000000000000606082015260800190565b60208082526026908201527f496e7465676572206f766572666c6f7720666f722060696e7465726e616c436f60408201526503ab73a32b9360d51b606082015260800190565b60208082526032908201527f4552433732313a207472616e7366657220746f206e6f6e20455243373231526560408201527131b2b4bb32b91034b6b83632b6b2b73a32b960711b606082015260800190565b60208082526026908201527f4f776e61626c653a206e6577206f776e657220697320746865207a65726f206160408201526564647265737360d01b606082015260800190565b6020808252601c908201527f4552433732313a20746f6b656e20616c7265616479206d696e74656400000000604082015260600190565b6020808252818101527f4e6f7420656e6f7567682066756e647320696e2047616d65436f6e7472616374604082015260600190565b60208082526024908201527f4552433732313a207472616e7366657220746f20746865207a65726f206164646040820152637265737360e01b606082015260800190565b60208082526019908201527f4552433732313a20617070726f766520746f2063616c6c657200000000000000604082015260600190565b60208082526021908201527f57696e2074696d652073686f756c642062652067726561746f72207468616e206040820152600360fc1b606082015260800190565b6020808252603a908201527f416464726573733a20756e61626c6520746f2073656e642076616c75652c207260408201527f6563697069656e74206d61792068617665207265766572746564000000000000606082015260800190565b6020808252601d908201527f416464726573733a20696e73756666696369656e742062616c616e6365000000604082015260600190565b6020808252602c908201527f4552433732313a206f70657261746f7220717565727920666f72206e6f6e657860408201526b34b9ba32b73a103a37b5b2b760a11b606082015260800190565b60208082526041908201527f496e7465676572206f766572666c6f7720666f72206d6f64206f70657261746960408201527f6f6e207768696c652067656e65726174696e672072616e646f6d206e756d62656060820152603960f91b608082015260a00190565b60208082526038908201527f4552433732313a20617070726f76652063616c6c6572206973206e6f74206f7760408201527f6e6572206e6f7220617070726f76656420666f7220616c6c0000000000000000606082015260800190565b6020808252602a908201527f4552433732313a2062616c616e636520717565727920666f7220746865207a65604082015269726f206164647265737360b01b606082015260800190565b60208082526029908201527f4552433732313a206f776e657220717565727920666f72206e6f6e657869737460408201526832b73a103a37b5b2b760b91b606082015260800190565b6020808252818101527f4552433732313a206d696e7420746f20746865207a65726f2061646472657373604082015260600190565b60208082526021908201527f47616d65436f6e74726163742061646472657373206973206e6f742076616c696040820152601960fa1b606082015260800190565b6020808252602c908201527f4552433732313a20617070726f76656420717565727920666f72206e6f6e657860408201526b34b9ba32b73a103a37b5b2b760a11b606082015260800190565b6020808252818101527f4f776e61626c653a2063616c6c6572206973206e6f7420746865206f776e6572604082015260600190565b60208082526029908201527f4552433732313a207472616e73666572206f6620746f6b656e2074686174206960408201526839903737ba1037bbb760b91b606082015260800190565b6020808252602f908201527f4552433732314d657461646174613a2055524920717565727920666f72206e6f60408201526e3732bc34b9ba32b73a103a37b5b2b760891b606082015260800190565b60208082526021908201527f4552433732313a20617070726f76616c20746f2063757272656e74206f776e656040820152603960f91b606082015260800190565b60208082526018908201527f54686520746f6b656e20616c7265616479206578697374730000000000000000604082015260600190565b60208082526031908201527f4552433732313a207472616e736665722063616c6c6572206973206e6f74206f6040820152701ddb995c881b9bdc88185c1c1c9bdd9959607a1b606082015260800190565b6020808252601d908201527f54686520746f6b656e20616c7265616479206861732061206f776e6572000000604082015260600190565b6020808252601f908201527f5265656e7472616e637947756172643a207265656e7472616e742063616c6c00604082015260600190565b90815260200190565b918252602082015260400190565b6000821982111561258f5761258f612655565b500190565b6000826125a3576125a361266b565b500490565b6000828210156125ba576125ba612655565b500390565b60005b838110156125da5781810151838201526020016125c2565b83811115610b5a5750506000910152565b6002810460018216806125ff57607f821691505b6020821081141561262057634e487b7160e01b600052602260045260246000fd5b50919050565b600060001982141561263a5761263a612655565b5060010190565b6000826126505761265061266b565b500690565b634e487b7160e01b600052601160045260246000fd5b634e487b7160e01b600052601260045260246000fd5b634e487b7160e01b600052604160045260246000fd5b6001600160e01b031981168114610abd57600080fdfea264697066735822122090b1488af494a55a862fc314bb87f7af8cd2ef7d5590e48deafb4531997a77d264736f6c63430008000033",
  "immutableReferences": {},
  "source": "// SPDX-License-Identifier: MIT\n\npragma solidity ^0.8.0;\n\nimport \"@openzeppelin/contracts/token/ERC20/utils/SafeERC20.sol\";\nimport \"@openzeppelin/contracts/token/ERC20/ERC20.sol\";\nimport \"@openzeppelin/contracts/token/ERC20/IERC20.sol\";\nimport \"@openzeppelin/contracts/security/ReentrancyGuard.sol\";\nimport \"@openzeppelin/contracts/utils/Address.sol\";\nimport \"@openzeppelin/contracts/access/Ownable.sol\";\nimport './BaseContract.sol';\nimport \"./NFTContract.sol\";\nimport './Helpers.sol';\n\ncontract GameContract is BaseContract {\n    \n    using SafeMath for uint;\n    using SafeERC20 for IERC20;\n    using Address for address;\n    \n    event GameCreated(address indexed challengerAddress, uint gameId);\n    event GameJoined(address indexed challengeAcceptorAddress, uint gameId);\n    event NFTCreated(address indexed winnerAddress, uint gameId, bool isRare);\n    \n    struct Game {\n        uint id;\n        uint gameFee; // base game fee set by the challenger\n        address challengerAddress;\n        address challengeAcceptorAddress;\n        address winnerAddress;\n        bool inProgress;\n    }\n\n    Game[] private _games;\n\n    uint private _gameFee = 0.005 ether;\n    IERC20 private _token = new ERC20(\"ether\", \"ETH\");\n    NFTContract private nftContract = new NFTContract(address(this));\n    \n    /**\n     * @dev This contract can only be deployed by the owner\n     */\n    constructor() onlyOwner() {}\n\n    /**\n     * @dev Call this to get a list of all tokens which are currently minted.\n     *\n     * @return list of currently minted tokens\n     */\n    function getAllGames() external view returns (Game[] memory) {\n      return _games;\n    }\n    \n    function getContractBalance() external view onlyOwner() returns (uint) {\n        return address(this).balance;\n    }\n    \n    /**\n     * @dev Call this to update the current base game fee. This method can only be called via owner of this contract.\n     *\n     * @param newGameFee new fee value to be used for creating a new game.\n     */\n    function updateGameFees(uint newGameFee) external onlyOwner() {\n      _gameFee = newGameFee;\n    }\n    \n    /**\n    * @dev Create a new game by depositing a gameFee. If no other player accepts the request within next 30 minutes\n    * \n    */\n    function createGame() external payable nonReentrant {\n        address challenger = msg.sender;\n        uint currentCounter = currentCounterValue();\n        // Check and verify if there is no game already created for current `_gameCounter` value\n        require(_games.length == currentCounter, \"A game already exists for current counter\");\n        // Check and verify if the challenger address is valid\n        require(challenger != Helpers.nullAddress(), \"Challenger address is not valid\");\n        // Check and verify if the depositAmount is equal to `gameFee`\n        require(msg.value >= _gameFee, \"Sent value should be equal to or greater than game fee\");\n        // Create a new game after the funds are locked\n        _createGame(msg.value);\n        // Emit a new event after the game is created\n        emit GameCreated(challenger, currentCounter);\n        // Safe increase allowance for this contract to spend `_gameFee` after the game is finished\n        //SafeERC20.safeIncreaseAllowance(_token, address(this), msg.value);\n    }\n    \n    /**\n     * @dev Call this to join a game with provided `gameId`. Throw an exeption if no game for this `gameId` exists.\n     * \n     * @param gameId id of game to be ended\n     */\n    function joinGame(uint gameId) external payable nonReentrant {\n        // Check and verify if the challenger address is valid\n        address challengeAcceptor = msg.sender;\n        require(challengeAcceptor != Helpers.nullAddress(), \"Challenge acceptor address is not valid\");\n        // Check and verify if a game exists for specified `gameId` \n        require(_games.length > 0 && _games.length >= gameId, \"A game for specified gameId does not exists\");\n        Game memory onGoingGame = _games[gameId];\n        // Check and verify if challenger address is already set\n        require(onGoingGame.challengerAddress != Helpers.nullAddress(), \"Challenger address is invalid\");\n        // Check and verify if challengeAcceptor address is not set\n        require(onGoingGame.challengeAcceptorAddress == Helpers.nullAddress(), \"Challenge acceptor address is already set\");\n        // Check and verify if the current game is in progress\n        require(onGoingGame.inProgress, \"Current game is no longer in progress\");\n        // Check and verify if a fee matching the current game fee was sent along with this transaction\n        uint currentGameFee = onGoingGame.gameFee;\n        require(msg.value == currentGameFee, \"Sent value should be equalt to game fee\");\n        // Join an already created game with specified `gameId`\n        _joinGame(gameId);\n        // Emit event\n        emit GameJoined(challengeAcceptor, gameId);\n        // Safe increase allowance for this contract to spend `msg.value` after the game is finished\n        //SafeERC20.safeIncreaseAllowance(_token, address(this), msg.value);\n    }\n    \n    /**\n     * @dev Call this to end a game with specified `gameId`. A game would end either when one player wins or if no \n     * player accepts a challenge within 30 minutes.\n     * \n     * @param gameId id of this game\n     * @param winTime total win time in seconds for this game\n     * @param killScore total kill score of this game\n     * @param isRare true if this NFT is rare\n     */\n    function endGame(uint gameId, uint winTime, uint8 killScore, bool isRare) public payable nonReentrant {\n        // Check and verify if the caller address is valid\n        address callerAddress = msg.sender;\n        require(callerAddress != Helpers.nullAddress(), \"A valid address is required to end a game\");\n        // Check and verify if a game exists for the specified `gameId`\n        require(_games.length > 0 && _games.length >= gameId, \"A game for specified gameId does not exists\");\n        Game memory currentGame = _games[gameId];\n        // Check and verify if challengerAddress is valid\n        require(currentGame.challengerAddress != Helpers.nullAddress(), \"Challenger address is not valid\");\n        // Check and verify if the current game is in progress\n        require(currentGame.inProgress);\n        // Check and verify `winTime` is greater than 0\n        require(winTime > 0);\n        // Check and verify if the caller is the winner of the game\n        require(callerAddress == currentGame.winnerAddress);\n        // Check and verify if the `killScore` is greater than 0\n        require(killScore > 0);\n        // Transfer locked funds into contract address\n        // address addr = address(this);\n        // address payable payableGameContractAddress = payable(addr);\n        // SafeERC20.safeTransferFrom(_token, currentGame.challengerAddress, payableGameContractAddress, currentGame.gameFee);\n        // if (currentGame.challengeAcceptorAddress != Helpers.nullAddress()) {\n        //     SafeERC20.safeTransferFrom(_token, currentGame.challengeAcceptorAddress, payableGameContractAddress, currentGame.gameFee);\n        // }\n        // End the game\n        _endGame(gameId);\n        // Create and mint NFT and assign it to winner address\n        _createAndMintNFT(gameId, winTime, killScore, isRare);\n    }\n    \n    /**\n     * @dev Call this method when the game ends to create and mint NFT.\n     * \n     * @param gameId id of this game\n     * @param winTime total win time in seconds for this game\n     * @param killScore total kill score of this game\n     * @param isRare true if this NFT is rare\n     */\n    function _createAndMintNFT(uint gameId, uint winTime, uint8 killScore, bool isRare) private nonReentrant {\n        Game memory currentGame = _games[gameId];\n        // Create nft here and once created then emit NFTCreated event \n        nftContract.createAndMintToken(winTime, killScore, isRare);\n        emit NFTCreated(currentGame.winnerAddress, gameId, isRare);\n    }\n    \n    /**\n     * @dev Create a new game and update the mapping for `games`.\n     * \n     * @param gameFee current fee required to create a game.\n     */\n    function _createGame(uint gameFee) private increment() {\n        Game memory game = Game({\n            id: currentCounterValue(),\n            gameFee: gameFee,\n            challengerAddress: msg.sender,\n            challengeAcceptorAddress: Helpers.nullAddress(),\n            winnerAddress: Helpers.nullAddress(),\n            inProgress: true\n        });\n        _games.push(game);\n    }\n    \n    /**\n     * @dev Call this to join a game with provided `gameId`.\n     * \n     * @param gameId id of game to be ended\n     */\n    function _joinGame(uint gameId) private {\n        Game memory onGoingGame = _games[gameId];\n        onGoingGame.challengeAcceptorAddress = msg.sender;\n        _games[gameId] = onGoingGame;\n    }\n    \n    /**\n     * @dev Call this to end a game with specified `gameId` and update its win time.\n     * \n     * @param gameId id of game to be ended\n     */\n    function _endGame(uint gameId) private {\n        Game memory onGoingGame = _games[gameId];\n        onGoingGame.winnerAddress = msg.sender;\n        onGoingGame.inProgress = false;\n        _games[gameId] = onGoingGame;\n    }\n}",
  "sourcePath": "/Users/saurabh-macbook/Documents/dapps/chkmate/frontend_base_dapp/contracts/GameContract.sol",
  "compiler": {
    "name": "solc",
    "version": "0.8.0+commit.c7dfd78e.Emscripten.clang"
  },
  "schemaVersion": "3.4.3",
  "updatedAt": "2021-09-08T20:48:36.668Z",
  "networkType": "ethereum",
  "devdoc": {
    "kind": "dev",
    "methods": {
      "constructor": {
        "details": "This contract can only be deployed by the owner"
      },
      "createGame()": {
        "details": "Create a new game by depositing a gameFee. If no other player accepts the request within next 30 minutes "
      },
      "endGame(uint256,uint256,uint8,bool)": {
        "details": "Call this to end a game with specified `gameId`. A game would end either when one player wins or if no  player accepts a challenge within 30 minutes. ",
        "params": {
          "gameId": "id of this game",
          "isRare": "true if this NFT is rare",
          "killScore": "total kill score of this game",
          "winTime": "total win time in seconds for this game"
        }
      },
      "getAllGames()": {
        "details": "Call this to get a list of all tokens which are currently minted.",
        "returns": {
          "_0": "list of currently minted tokens"
        }
      },
      "joinGame(uint256)": {
        "details": "Call this to join a game with provided `gameId`. Throw an exeption if no game for this `gameId` exists. ",
        "params": {
          "gameId": "id of game to be ended"
        }
      },
      "owner()": {
        "details": "Returns the address of the current owner."
      },
      "renounceOwnership()": {
        "details": "Leaves the contract without owner. It will not be possible to call `onlyOwner` functions anymore. Can only be called by the current owner. NOTE: Renouncing ownership will leave the contract without an owner, thereby removing any functionality that is only available to the owner."
      },
      "setOwnership(address)": {
        "details": "Call this method to update ownership in future (if needed). This external  method can only be called by the owner of this contract. Since `transferOwnership()` already have this check it's not required for this method. ",
        "params": {
          "newOwnerAddress": "address of new owner to which ownership is to be transfered."
        }
      },
      "transferOwnership(address)": {
        "details": "Transfers ownership of the contract to a new account (`newOwner`). Can only be called by the current owner."
      },
      "updateGameFees(uint256)": {
        "details": "Call this to update the current base game fee. This method can only be called via owner of this contract.",
        "params": {
          "newGameFee": "new fee value to be used for creating a new game."
        }
      }
    },
    "version": 1
  },
  "userdoc": {
    "kind": "user",
    "methods": {},
    "version": 1
  }
}