{
  "contractName": "GameContract",
  "abi": [
    {
      "anonymous": false,
      "inputs": [
        {
          "indexed": true,
          "internalType": "address",
          "name": "challengerAddress",
          "type": "address"
        },
        {
          "indexed": false,
          "internalType": "string",
          "name": "gameId",
          "type": "string"
        }
      ],
      "name": "GameCreated",
      "type": "event"
    },
    {
      "anonymous": false,
      "inputs": [
        {
          "indexed": true,
          "internalType": "address",
          "name": "winnerAddress",
          "type": "address"
        },
        {
          "indexed": false,
          "internalType": "string",
          "name": "gameId",
          "type": "string"
        }
      ],
      "name": "GameEnd",
      "type": "event"
    },
    {
      "anonymous": false,
      "inputs": [
        {
          "indexed": true,
          "internalType": "address",
          "name": "challengerAddress",
          "type": "address"
        },
        {
          "indexed": true,
          "internalType": "address",
          "name": "challengeAcceptorAddress",
          "type": "address"
        },
        {
          "indexed": false,
          "internalType": "string",
          "name": "gameId",
          "type": "string"
        }
      ],
      "name": "GameJoined",
      "type": "event"
    },
    {
      "anonymous": false,
      "inputs": [
        {
          "indexed": true,
          "internalType": "address",
          "name": "winnerAddress",
          "type": "address"
        },
        {
          "indexed": false,
          "internalType": "string",
          "name": "gameId",
          "type": "string"
        },
        {
          "indexed": false,
          "internalType": "bool",
          "name": "isRare",
          "type": "bool"
        }
      ],
      "name": "NFTCreated",
      "type": "event"
    },
    {
      "anonymous": false,
      "inputs": [
        {
          "indexed": true,
          "internalType": "address",
          "name": "previousOwner",
          "type": "address"
        },
        {
          "indexed": true,
          "internalType": "address",
          "name": "newOwner",
          "type": "address"
        }
      ],
      "name": "OwnershipTransferred",
      "type": "event"
    },
    {
      "inputs": [],
      "name": "owner",
      "outputs": [
        {
          "internalType": "address",
          "name": "",
          "type": "address"
        }
      ],
      "stateMutability": "view",
      "type": "function",
      "constant": true
    },
    {
      "inputs": [],
      "name": "renounceOwnership",
      "outputs": [],
      "stateMutability": "nonpayable",
      "type": "function"
    },
    {
      "inputs": [
        {
          "internalType": "address",
          "name": "newOwnerAddress",
          "type": "address"
        }
      ],
      "name": "setOwnership",
      "outputs": [],
      "stateMutability": "nonpayable",
      "type": "function"
    },
    {
      "inputs": [
        {
          "internalType": "address",
          "name": "newOwner",
          "type": "address"
        }
      ],
      "name": "transferOwnership",
      "outputs": [],
      "stateMutability": "nonpayable",
      "type": "function"
    },
    {
      "inputs": [],
      "name": "getContractBalance",
      "outputs": [
        {
          "internalType": "uint256",
          "name": "",
          "type": "uint256"
        }
      ],
      "stateMutability": "view",
      "type": "function",
      "constant": true
    },
    {
      "inputs": [],
      "name": "getBaseGameFee",
      "outputs": [
        {
          "internalType": "uint256",
          "name": "",
          "type": "uint256"
        }
      ],
      "stateMutability": "view",
      "type": "function",
      "constant": true
    },
    {
      "inputs": [
        {
          "internalType": "uint256",
          "name": "newGameFee",
          "type": "uint256"
        }
      ],
      "name": "updateBaseGameFees",
      "outputs": [],
      "stateMutability": "nonpayable",
      "type": "function"
    },
    {
      "inputs": [
        {
          "internalType": "string",
          "name": "gameId",
          "type": "string"
        }
      ],
      "name": "createGame",
      "outputs": [],
      "stateMutability": "payable",
      "type": "function",
      "payable": true
    },
    {
      "inputs": [
        {
          "internalType": "string",
          "name": "gameId",
          "type": "string"
        }
      ],
      "name": "joinGame",
      "outputs": [],
      "stateMutability": "payable",
      "type": "function",
      "payable": true
    },
    {
      "inputs": [
        {
          "internalType": "string",
          "name": "gameId",
          "type": "string"
        },
        {
          "internalType": "uint256",
          "name": "gameTime",
          "type": "uint256"
        }
      ],
      "name": "endGame",
      "outputs": [],
      "stateMutability": "nonpayable",
      "type": "function"
    },
    {
      "inputs": [
        {
          "internalType": "string",
          "name": "gameId",
          "type": "string"
        },
        {
          "internalType": "bool",
          "name": "isRare",
          "type": "bool"
        },
        {
          "internalType": "uint256",
          "name": "winTime",
          "type": "uint256"
        },
        {
          "internalType": "uint8",
          "name": "killScore",
          "type": "uint8"
        }
      ],
      "name": "mintNFT",
      "outputs": [],
      "stateMutability": "nonpayable",
      "type": "function"
    }
  ],
  "bytecode": "0x60a060408190526000608081905260025566b1a2bc2ec5000060065562000026906200014c565b62000031906200017c565b604051809103906000f0801580156200004e573d6000803e3d6000fd5b50600780546001600160a01b0319166001600160a01b039290921691909117905560405130906200007f906200015a565b6200008b919062000168565b604051809103906000f080158015620000a8573d6000803e3d6000fd5b50600880546001600160a01b0319166001600160a01b0392909216919091179055348015620000d657600080fd5b506001600055620000f0620000ea620000f6565b620000fa565b620001b6565b3390565b600180546001600160a01b038381166001600160a01b0319831681179093556040519116919082907f8be0079c531659141344cd1fd0a4f28419497f9722a3daafe3b4186f6b6457e090600090a35050565b610c408062001b7683390190565b6126cd80620027b683390190565b6001600160a01b0391909116815260200190565b60408082526005908201526432ba3432b960d91b60608201526080602082018190526003908201526208aa8960eb1b60a082015260c00190565b6119b080620001c66000396000f3fe60806040526004361061009c5760003560e01c80638da5cb5b116100645780638da5cb5b14610129578063a70160231461014b578063b92234881461016b578063c4c5a8541461018b578063d06894ce146101ab578063f2fde38b146101c05761009c565b80632ebc0504146100a15780633862efbe146100b65780633d536a2e146100d65780636f9fb98a146100e9578063715018a614610114575b600080fd5b6100b46100af36600461117c565b6101e0565b005b3480156100c257600080fd5b506100b46100d1366004611226565b61043e565b6100b46100e436600461117c565b6106ba565b3480156100f557600080fd5b506100fe610941565b60405161010b91906118fd565b60405180910390f35b34801561012057600080fd5b506100b4610945565b34801561013557600080fd5b5061013e610990565b60405161010b91906112e1565b34801561015757600080fd5b506100b4610166366004611139565b61099f565b34801561017757600080fd5b506100b4610186366004611269565b6109ab565b34801561019757600080fd5b506100b46101a63660046111b7565b6109ef565b3480156101b757600080fd5b506100fe610bc8565b3480156101cc57600080fd5b506100b46101db366004611139565b610bce565b6002600054141561020c5760405162461bcd60e51b8152600401610203906117e4565b60405180910390fd5b6002600055610219610c3c565b6001600160a01b0316336001600160a01b0316141561024a5760405162461bcd60e51b815260040161020390611631565b600060038260405161025c91906112c5565b908152604051908190036020019020546001600160a01b031690506000610281610c3c565b6001600160a01b0316826001600160a01b03161415905080156102b65760405162461bcd60e51b81526004016102039061181b565b60006102c0610c3c565b6001600160a01b0316836001600160a01b03161415905080156102f55760405162461bcd60e51b81526004016102039061152f565b6006543410156103175760405162461bcd60e51b8152600401610203906116d4565b6000610321610c3c565b6001600160a01b031660048660405161033a91906112c5565b908152604051908190036020019020546001600160a01b0316149050806103735760405162461bcd60e51b81526004016102039061179b565b600061037d610c3c565b6001600160a01b031660058760405161039691906112c5565b908152604051908190036020019020546001600160a01b031614801591506103d05760405162461bcd60e51b8152600401610203906113ca565b6103d986610c41565b6007546103f0906001600160a01b03163034610c8b565b336001600160a01b03167fab9e6b2a615855ce1ed5dc476076888910d7776481a5fc561e17d72a842fd726876040516104299190611328565b60405180910390a25050600160005550505050565b600260005414156104615760405162461bcd60e51b8152600401610203906117e4565b600260005561046e610d74565b6001600160a01b031661047f610990565b6001600160a01b0316146104a55760405162461bcd60e51b8152600401610203906115fc565b6104ad610c3c565b6001600160a01b0316336001600160a01b031614156104de5760405162461bcd60e51b815260040161020390611631565b60006003836040516104f091906112c5565b908152604051908190036020019020546001600160a01b031690506000610515610c3c565b6001600160a01b0316826001600160a01b031614159050806105495760405162461bcd60e51b8152600401610203906115b5565b6000610553610c3c565b6001600160a01b0316836001600160a01b031614159050806105875760405162461bcd60e51b81526004016102039061141d565b6000610591610c3c565b6001600160a01b03166004876040516105aa91906112c5565b908152604051908190036020019020546001600160a01b031614159050806105e45760405162461bcd60e51b815260040161020390611862565b60006105ee610c3c565b6001600160a01b031660058860405161060791906112c5565b908152604051908190036020019020546001600160a01b031614801591506106415760405162461bcd60e51b815260040161020390611764565b600086116106615760405162461bcd60e51b815260040161020390611668565b61066b3388610d78565b336001600160a01b03167f6763b8a4888eb1fb9140d4cb14e1fc7f987fc1699c6cb8b39d63b7517c55b010886040516106a49190611328565b60405180910390a2505060016000555050505050565b600260005414156106dd5760405162461bcd60e51b8152600401610203906117e4565b60026000556106ea610c3c565b6001600160a01b0316336001600160a01b0316141561071b5760405162461bcd60e51b815260040161020390611631565b600060038260405161072d91906112c5565b908152604051908190036020019020546001600160a01b031690506000610752610c3c565b6001600160a01b0316826001600160a01b031614159050806107865760405162461bcd60e51b8152600401610203906115b5565b6000610790610c3c565b6001600160a01b0316836001600160a01b031614159050806107c45760405162461bcd60e51b81526004016102039061141d565b6006543410156107e65760405162461bcd60e51b8152600401610203906116d4565b60006107f0610c3c565b6001600160a01b031660048660405161080991906112c5565b908152604051908190036020019020546001600160a01b031614801591506108435760405162461bcd60e51b81526004016102039061179b565b6001600160a01b03841633141561086c5760405162461bcd60e51b8152600401610203906114a5565b6000610876610c3c565b6001600160a01b031660058760405161088f91906112c5565b908152604051908190036020019020546001600160a01b031614801591506108c95760405162461bcd60e51b8152600401610203906113ca565b6108d286610dbc565b6007546108e9906001600160a01b03163034610c8b565b336001600160a01b0316856001600160a01b03167fb0cbb988a88555f6347923839ff18c8c159a347bb5c40d0786ed40ee06e9f4708860405161092c9190611328565b60405180910390a35050600160005550505050565b4790565b61094d610d74565b6001600160a01b031661095e610990565b6001600160a01b0316146109845760405162461bcd60e51b8152600401610203906115fc565b61098e6000610dff565b565b6001546001600160a01b031690565b6109a881610bce565b50565b6109b3610d74565b6001600160a01b03166109c4610990565b6001600160a01b0316146109ea5760405162461bcd60e51b8152600401610203906115fc565b600655565b60026000541415610a125760405162461bcd60e51b8152600401610203906117e4565b6002600055610a1f610c3c565b6001600160a01b0316336001600160a01b03161415610a505760405162461bcd60e51b815260040161020390611631565b6000600385604051610a6291906112c5565b908152604051908190036020019020546001600160a01b031690506000610a87610c3c565b6001600160a01b0316826001600160a01b03161415905080610abb5760405162461bcd60e51b8152600401610203906115b5565b6000610ac5610c3c565b6001600160a01b0316600488604051610ade91906112c5565b908152604051908190036020019020546001600160a01b03161415905080610b185760405162461bcd60e51b815260040161020390611570565b6000600588604051610b2a91906112c5565b908152604051908190036020019020546001600160a01b031690506000610b4f610c3c565b6001600160a01b0316826001600160a01b03161415905080610b835760405162461bcd60e51b815260040161020390611393565b336001600160a01b03831614610bab5760405162461bcd60e51b8152600401610203906118ac565b610bb889838a8a8a610e51565b5050600160005550505050505050565b60065490565b610bd6610d74565b6001600160a01b0316610be7610990565b6001600160a01b031614610c0d5760405162461bcd60e51b8152600401610203906115fc565b6001600160a01b038116610c335760405162461bcd60e51b81526004016102039061145f565b6109a881610dff565b600090565b33600382604051610c5291906112c5565b90815260405190819003602001902080546001600160a01b03929092166001600160a01b03199092169190911790556109a86002610f03565b600081846001600160a01b031663dd62ed3e30866040518363ffffffff1660e01b8152600401610cbc9291906112f5565b60206040518083038186803b158015610cd457600080fd5b505afa158015610ce8573d6000803e3d6000fd5b505050506040513d601f19601f82011682018060405250810190610d0c9190611281565b610d169190611906565b9050610d6e8463095ea7b360e01b8584604051602401610d3792919061130f565b60408051601f198184030181529190526020810180516001600160e01b03166001600160e01b031990931692909217909152610f0c565b50505050565b3390565b81600582604051610d8991906112c5565b90815260405190819003602001902080546001600160a01b03929092166001600160a01b03199092169190911790555050565b33600482604051610dcd91906112c5565b90815260405190819003602001902080546001600160a01b03929092166001600160a01b031990921691909117905550565b600180546001600160a01b038381166001600160a01b0319831681179093556040519116919082907f8be0079c531659141344cd1fd0a4f28419497f9722a3daafe3b4186f6b6457e090600090a35050565b60085460405163b87d733960e01b81526001600160a01b039091169063b87d733990610e8790889086908690899060040161135f565b600060405180830381600087803b158015610ea157600080fd5b505af1158015610eb5573d6000803e3d6000fd5b50505050836001600160a01b03167f8d11d8f75b99dce1ca13d075bd170d592c3c7291c30de9f88f714bb640d8c0b58685604051610ef492919061133b565b60405180910390a25050505050565b80546001019055565b6000610f61826040518060400160405280602081526020017f5361666545524332303a206c6f772d6c6576656c2063616c6c206661696c6564815250856001600160a01b0316610fa09092919063ffffffff16565b805190915015610f9b5780806020019051810190610f7f9190611160565b610f9b5760405162461bcd60e51b81526004016102039061171a565b505050565b6060610faf8484600085610fb9565b90505b9392505050565b606082471015610fdb5760405162461bcd60e51b8152600401610203906114e9565b610fe485611079565b6110005760405162461bcd60e51b81526004016102039061169d565b600080866001600160a01b0316858760405161101c91906112c5565b60006040518083038185875af1925050503d8060008114611059576040519150601f19603f3d011682016040523d82523d6000602084013e61105e565b606091505b509150915061106e82828661107f565b979650505050505050565b3b151590565b6060831561108e575081610fb2565b82511561109e5782518084602001fd5b8160405162461bcd60e51b81526004016102039190611328565b600082601f8301126110c8578081fd5b813567ffffffffffffffff808211156110e3576110e3611956565b604051601f8301601f19168101602001828111828210171561110757611107611956565b60405282815284830160200186101561111e578384fd5b82602086016020830137918201602001929092529392505050565b60006020828403121561114a578081fd5b81356001600160a01b0381168114610fb2578182fd5b600060208284031215611171578081fd5b8151610fb28161196c565b60006020828403121561118d578081fd5b813567ffffffffffffffff8111156111a3578182fd5b6111af848285016110b8565b949350505050565b600080600080608085870312156111cc578283fd5b843567ffffffffffffffff8111156111e2578384fd5b6111ee878288016110b8565b94505060208501356111ff8161196c565b925060408501359150606085013560ff8116811461121b578182fd5b939692955090935050565b60008060408385031215611238578182fd5b823567ffffffffffffffff81111561124e578283fd5b61125a858286016110b8565b95602094909401359450505050565b60006020828403121561127a578081fd5b5035919050565b600060208284031215611292578081fd5b5051919050565b600081518084526112b181602086016020860161192a565b601f01601f19169290920160200192915050565b600082516112d781846020870161192a565b9190910192915050565b6001600160a01b0391909116815260200190565b6001600160a01b0392831681529116602082015260400190565b6001600160a01b03929092168252602082015260400190565b600060208252610fb26020830184611299565b60006040825261134e6040830185611299565b905082151560208301529392505050565b6000608082526113726080830187611299565b60208301959095525060ff9290921660408301521515606090910152919050565b60208082526019908201527f57696e6e65722061646472657373206973206e6f742073657400000000000000604082015260600190565b60208082526033908201527f57696e6e657220616464726573732063616e6e6f7420626520736574206265666040820152726f7265207468652067616d652073746172747360681b606082015260800190565b60208082526022908201527f4368616c6c656e676572206164647265737320646f6573206e6f742065786973604082015261747360f01b606082015260800190565b60208082526026908201527f4f776e61626c653a206e6577206f776e657220697320746865207a65726f206160408201526564647265737360d01b606082015260800190565b60208082526024908201527f426f746820706c6179657220616464726573732073686f756c6420626520756e6040820152636971756560e01b606082015260800190565b60208082526026908201527f416464726573733a20696e73756666696369656e742062616c616e636520666f6040820152651c8818d85b1b60d21b606082015260800190565b60208082526021908201527f4368616c6c656e676572206164647265737320616c72656164792065786973746040820152607360f81b606082015260800190565b60208082526025908201527f4368616c6c656e6765206163636570746f722061646472657373206973206e6f6040820152641d081cd95d60da1b606082015260800190565b60208082526027908201527f412067616d6520776974682073706563696669656420494420646f6573206e6f6040820152661d08195e1a5cdd60ca1b606082015260800190565b6020808252818101527f4f776e61626c653a2063616c6c6572206973206e6f7420746865206f776e6572604082015260600190565b6020808252601b908201527f43616c6c65722061646472657373206973206e6f742076616c69640000000000604082015260600190565b6020808252818101527f57696e54696d652068617320746f2062652067726561746572207468616e2030604082015260600190565b6020808252601d908201527f416464726573733a2063616c6c20746f206e6f6e2d636f6e7472616374000000604082015260600190565b60208082526026908201527f53656e742076616c75652073686f756c6420626520657175616c20746f2067616040820152656d652066656560d01b606082015260800190565b6020808252602a908201527f5361666545524332303a204552433230206f7065726174696f6e20646964206e6040820152691bdd081cdd58d8d9595960b21b606082015260800190565b6020808252601d908201527f57696e6e6572206164647265737320616c726561647920657869737473000000604082015260600190565b60208082526029908201527f4368616c6c656e6765206163636570746f72206164647265737320616c72656160408201526864792065786973747360b81b606082015260800190565b6020808252601f908201527f5265656e7472616e637947756172643a207265656e7472616e742063616c6c00604082015260600190565b60208082526027908201527f412067616d6520776974682073706563696669656420494420616c72656164796040820152662065786973747360c81b606082015260800190565b6020808252602a908201527f4368616c6c656e6765206163636570746f72206164647265737320646f6573206040820152696e6f742065786973747360b01b606082015260800190565b60208082526031908201527f4f6e6c79207468652077696e6e6572206f66207468652067616d652063616e206040820152701b5a5b9d081d1a19481391950818d85c99607a1b606082015260800190565b90815260200190565b6000821982111561192557634e487b7160e01b81526011600452602481fd5b500190565b60005b8381101561194557818101518382015260200161192d565b83811115610d6e5750506000910152565b634e487b7160e01b600052604160045260246000fd5b80151581146109a857600080fdfea26469706673582212207c0e757b8745cfb9ed4c7e6d485eea4c7a1cdd230d939ca77691cbb51fdb095064736f6c6343000800003360806040523480156200001157600080fd5b5060405162000c4038038062000c408339810160408190526200003491620001b9565b81516200004990600390602085019062000068565b5080516200005f90600490602084019062000068565b50505062000273565b828054620000769062000220565b90600052602060002090601f0160209004810192826200009a5760008555620000e5565b82601f10620000b557805160ff1916838001178555620000e5565b82800160010185558215620000e5579182015b82811115620000e5578251825591602001919060010190620000c8565b50620000f3929150620000f7565b5090565b5b80821115620000f35760008155600101620000f8565b600082601f8301126200011f578081fd5b81516001600160401b03808211156200013c576200013c6200025d565b6040516020601f8401601f19168201810183811183821017156200016457620001646200025d565b60405283825285840181018710156200017b578485fd5b8492505b838310156200019e57858301810151828401820152918201916200017f565b83831115620001af57848185840101525b5095945050505050565b60008060408385031215620001cc578182fd5b82516001600160401b0380821115620001e3578384fd5b620001f1868387016200010e565b9350602085015191508082111562000207578283fd5b5062000216858286016200010e565b9150509250929050565b6002810460018216806200023557607f821691505b602082108114156200025757634e487b7160e01b600052602260045260246000fd5b50919050565b634e487b7160e01b600052604160045260246000fd5b6109bd80620002836000396000f3fe608060405234801561001057600080fd5b50600436106100a95760003560e01c80633950935111610071578063395093511461012957806370a082311461013c57806395d89b411461014f578063a457c2d714610157578063a9059cbb1461016a578063dd62ed3e1461017d576100a9565b806306fdde03146100ae578063095ea7b3146100cc57806318160ddd146100ec57806323b872dd14610101578063313ce56714610114575b600080fd5b6100b6610190565b6040516100c391906106dd565b60405180910390f35b6100df6100da3660046106a9565b610222565b6040516100c391906106d2565b6100f461023f565b6040516100c39190610911565b6100df61010f36600461066e565b610245565b61011c6102de565b6040516100c3919061091a565b6100df6101373660046106a9565b6102e3565b6100f461014a36600461061b565b610337565b6100b6610356565b6100df6101653660046106a9565b610365565b6100df6101783660046106a9565b6103de565b6100f461018b36600461063c565b6103f2565b60606003805461019f9061094c565b80601f01602080910402602001604051908101604052809291908181526020018280546101cb9061094c565b80156102185780601f106101ed57610100808354040283529160200191610218565b820191906000526020600020905b8154815290600101906020018083116101fb57829003601f168201915b5050505050905090565b600061023661022f61041d565b8484610421565b50600192915050565b60025490565b60006102528484846104d5565b6001600160a01b03841660009081526001602052604081208161027361041d565b6001600160a01b03166001600160a01b03168152602001908152602001600020549050828110156102bf5760405162461bcd60e51b81526004016102b6906107fb565b60405180910390fd5b6102d3856102cb61041d565b858403610421565b506001949350505050565b601290565b60006102366102f061041d565b8484600160006102fe61041d565b6001600160a01b03908116825260208083019390935260409182016000908120918b16815292529020546103329190610928565b610421565b6001600160a01b0381166000908152602081905260409020545b919050565b60606004805461019f9061094c565b6000806001600061037461041d565b6001600160a01b03908116825260208083019390935260409182016000908120918816815292529020549050828110156103c05760405162461bcd60e51b81526004016102b6906108cc565b6103d46103cb61041d565b85858403610421565b5060019392505050565b60006102366103eb61041d565b84846104d5565b6001600160a01b03918216600090815260016020908152604080832093909416825291909152205490565b3390565b6001600160a01b0383166104475760405162461bcd60e51b81526004016102b690610888565b6001600160a01b03821661046d5760405162461bcd60e51b81526004016102b690610773565b6001600160a01b0380841660008181526001602090815260408083209487168084529490915290819020849055517f8c5be1e5ebec7d5bd14f71427d1e84f3dd0314c0f7b2291e5b200ac8c7c3b925906104c8908590610911565b60405180910390a3505050565b6001600160a01b0383166104fb5760405162461bcd60e51b81526004016102b690610843565b6001600160a01b0382166105215760405162461bcd60e51b81526004016102b690610730565b61052c8383836105ff565b6001600160a01b038316600090815260208190526040902054818110156105655760405162461bcd60e51b81526004016102b6906107b5565b6001600160a01b0380851660009081526020819052604080822085850390559185168152908120805484929061059c908490610928565b92505081905550826001600160a01b0316846001600160a01b03167fddf252ad1be2c89b69c2b068fc378daa952ba7f163c4a11628f55a4df523b3ef846040516105e69190610911565b60405180910390a36105f98484846105ff565b50505050565b505050565b80356001600160a01b038116811461035157600080fd5b60006020828403121561062c578081fd5b61063582610604565b9392505050565b6000806040838503121561064e578081fd5b61065783610604565b915061066560208401610604565b90509250929050565b600080600060608486031215610682578081fd5b61068b84610604565b925061069960208501610604565b9150604084013590509250925092565b600080604083850312156106bb578182fd5b6106c483610604565b946020939093013593505050565b901515815260200190565b6000602080835283518082850152825b81811015610709578581018301518582016040015282016106ed565b8181111561071a5783604083870101525b50601f01601f1916929092016040019392505050565b60208082526023908201527f45524332303a207472616e7366657220746f20746865207a65726f206164647260408201526265737360e81b606082015260800190565b60208082526022908201527f45524332303a20617070726f766520746f20746865207a65726f206164647265604082015261737360f01b606082015260800190565b60208082526026908201527f45524332303a207472616e7366657220616d6f756e7420657863656564732062604082015265616c616e636560d01b606082015260800190565b60208082526028908201527f45524332303a207472616e7366657220616d6f756e74206578636565647320616040820152676c6c6f77616e636560c01b606082015260800190565b60208082526025908201527f45524332303a207472616e736665722066726f6d20746865207a65726f206164604082015264647265737360d81b606082015260800190565b60208082526024908201527f45524332303a20617070726f76652066726f6d20746865207a65726f206164646040820152637265737360e01b606082015260800190565b60208082526025908201527f45524332303a2064656372656173656420616c6c6f77616e63652062656c6f77604082015264207a65726f60d81b606082015260800190565b90815260200190565b60ff91909116815260200190565b6000821982111561094757634e487b7160e01b81526011600452602481fd5b500190565b60028104600182168061096057607f821691505b6020821081141561098157634e487b7160e01b600052602260045260246000fd5b5091905056fea2646970667358221220823cbb63cb58a09416d4d9fdbc4e7e66e7be29cc5ef704dedbc5fec7ee6fe87b64736f6c6343000800003360a0604052600060808190526008556200002266b1a2bc2ec500006002620002c4565b6009553480156200003257600080fd5b50604051620026cd380380620026cd83398101604081905262000055916200025f565b604080518082018252600b81526a10d212d35055114813919560aa1b60208083019182528351808501909452600784526643484b4d41544560c81b90840152600160008190558251929392620000ac9290620001b9565b508051620000c2906002906020840190620001b9565b505050620000df620000d96200015460201b60201c565b62000158565b620000e962000154565b6001600160a01b0316620000fc620001aa565b6001600160a01b0316146200012e5760405162461bcd60e51b815260040162000125906200028f565b60405180910390fd5b600a80546001600160a01b0319166001600160a01b03929092169190911790556200032d565b3390565b600780546001600160a01b038381166001600160a01b0319831681179093556040519116919082907f8be0079c531659141344cd1fd0a4f28419497f9722a3daafe3b4186f6b6457e090600090a35050565b6007546001600160a01b031690565b828054620001c790620002f0565b90600052602060002090601f016020900481019282620001eb576000855562000236565b82601f106200020657805160ff191683800117855562000236565b8280016001018555821562000236579182015b828111156200023657825182559160200191906001019062000219565b506200024492915062000248565b5090565b5b8082111562000244576000815560010162000249565b60006020828403121562000271578081fd5b81516001600160a01b038116811462000288578182fd5b9392505050565b6020808252818101527f4f776e61626c653a2063616c6c6572206973206e6f7420746865206f776e6572604082015260600190565b6000816000190483118215151615620002eb57634e487b7160e01b81526011600452602481fd5b500290565b6002810460018216806200030557607f821691505b602082108114156200032757634e487b7160e01b600052602260045260246000fd5b50919050565b612390806200033d6000396000f3fe608060405234801561001057600080fd5b50600436106101425760003560e01c806395d89b41116100b8578063b88d4fde1161007c578063b88d4fde1461028c578063c7673e8a1461029f578063c87b56dd146102b2578063e985e9c5146102c5578063ee54ae79146102d8578063f2fde38b146102e057610142565b806395d89b4114610238578063a22cb46514610240578063a701602314610253578063a8773a7b14610266578063b87d73391461027957610142565b80632a5c792a1161010a5780632a5c792a146101cd57806342842e0e146101e25780636352211e146101f557806370a0823114610208578063715018a6146102285780638da5cb5b1461023057610142565b806301ffc9a71461014757806306fdde0314610170578063081812fc14610185578063095ea7b3146101a557806323b872dd146101ba575b600080fd5b61015a61015536600461193e565b6102f3565b6040516101679190611bbc565b60405180910390f35b61017861033b565b6040516101679190611bc7565b6101986101933660046119f6565b6103cd565b6040516101679190611aca565b6101b86101b3366004611915565b610419565b005b6101b86101c8366004611838565b6104b1565b6101d56104e9565b6040516101679190611b1b565b6101b86101f0366004611838565b61061b565b6101986102033660046119f6565b610636565b61021b6102163660046117ec565b61066b565b6040516101679190612212565b6101b86106af565b6101986106fa565b610178610709565b6101b861024e3660046118ec565b610718565b6101b86102613660046117ec565b6107e6565b6101b86102743660046117ec565b6107f2565b6101b8610287366004611976565b610853565b6101b861029a366004611873565b610986565b6101b86102ad3660046119f6565b6109c5565b6101786102c03660046119f6565b610a09565b61015a6102d3366004611806565b610a8c565b6101d5610aba565b6101b86102ee3660046117ec565b610cdd565b60006001600160e01b031982166380ac58cd60e01b148061032457506001600160e01b03198216635b5e139f60e01b145b80610333575061033382610d4b565b90505b919050565b60606001805461034a90612298565b80601f016020809104026020016040519081016040528092919081815260200182805461037690612298565b80156103c35780601f10610398576101008083540402835291602001916103c3565b820191906000526020600020905b8154815290600101906020018083116103a657829003601f168201915b5050505050905090565b60006103d882610d64565b6103fd5760405162461bcd60e51b81526004016103f490611ff9565b60405180910390fd5b506000908152600560205260409020546001600160a01b031690565b600061042482610636565b9050806001600160a01b0316836001600160a01b031614156104585760405162461bcd60e51b81526004016103f490612112565b806001600160a01b031661046a610d81565b6001600160a01b031614806104865750610486816102d3610d81565b6104a25760405162461bcd60e51b81526004016103f490611e93565b6104ac8383610d85565b505050565b6104c26104bc610d81565b82610df3565b6104de5760405162461bcd60e51b81526004016103f49061218a565b6104ac838383610e78565b6060600b805480602002602001604051908101604052809291908181526020016000905b8282101561061257838290600052602060002090600502016040518060c001604052908160008201805461054090612298565b80601f016020809104026020016040519081016040528092919081815260200182805461056c90612298565b80156105b95780601f1061058e576101008083540402835291602001916105b9565b820191906000526020600020905b81548152906001019060200180831161059c57829003601f168201915b5050509183525050600182810154602080840191909152600284015460408401526003840154606084015260049093015460ff808216608085015261010090910416151560a0909201919091529183529201910161050d565b50505050905090565b6104ac83838360405180602001604052806000815250610986565b6000818152600360205260408120546001600160a01b0316806103335760405162461bcd60e51b81526004016103f490611f3a565b60006001600160a01b0382166106935760405162461bcd60e51b81526004016103f490611ef0565b506001600160a01b031660009081526004602052604090205490565b6106b7610d81565b6001600160a01b03166106c86106fa565b6001600160a01b0316146106ee5760405162461bcd60e51b81526004016103f490612045565b6106f86000610fa5565b565b6007546001600160a01b031690565b60606002805461034a90612298565b610720610d81565b6001600160a01b0316826001600160a01b031614156107515760405162461bcd60e51b81526004016103f490611d68565b806006600061075e610d81565b6001600160a01b03908116825260208083019390935260409182016000908120918716808252919093529120805460ff1916921515929092179091556107a2610d81565b6001600160a01b03167f17307eab39ab6107e8899845ad3d59bd9653f200f220920489ca2b5937696c31836040516107da9190611bbc565b60405180910390a35050565b6107ef81610cdd565b50565b6107fa610d81565b6001600160a01b031661080b6106fa565b6001600160a01b0316146108315760405162461bcd60e51b81526004016103f490612045565b600a80546001600160a01b0319166001600160a01b0392909216919091179055565b600260005414156108765760405162461bcd60e51b81526004016103f4906121db565b6002600055610883610d81565b6001600160a01b03166108946106fa565b6001600160a01b0316146108ba5760405162461bcd60e51b81526004016103f490612045565b838360006108c6610ff7565b90506108d0611008565b600a546001600160a01b03908116911614156108fe5760405162461bcd60e51b81526004016103f490611fb8565b600954600a546001600160a01b031631101561092c5760405162461bcd60e51b81526004016103f490611cef565b600b54811461094d5760405162461bcd60e51b81526004016103f490612153565b6000821161096d5760405162461bcd60e51b81526004016103f490611d9f565b61097886868661100d565b505060016000555050505050565b610997610991610d81565b83610df3565b6109b35760405162461bcd60e51b81526004016103f49061218a565b6109bf848484846110af565b50505050565b6109cd610d81565b6001600160a01b03166109de6106fa565b6001600160a01b031614610a045760405162461bcd60e51b81526004016103f490612045565b600955565b6060610a1482610d64565b610a305760405162461bcd60e51b81526004016103f4906120c3565b6000610a3a6110e2565b90506000815111610a5a5760405180602001604052806000815250610a85565b80610a64846110f4565b604051602001610a75929190611a56565b6040516020818303038152906040525b9392505050565b6001600160a01b03918216600090815260066020908152604080832093909416825291909152205460ff1690565b60606000610ac6610ff7565b905060008167ffffffffffffffff811115610af157634e487b7160e01b600052604160045260246000fd5b604051908082528060200260200182016040528015610b2a57816020015b610b17611681565b815260200190600190039081610b0f5790505b5090506000805b83811015610cd45733610b4382610636565b6001600160a01b03161415610cc2576000600b8281548110610b7557634e487b7160e01b600052603260045260246000fd5b90600052602060002090600502016040518060c0016040529081600082018054610b9e90612298565b80601f0160208091040260200160405190810160405280929190818152602001828054610bca90612298565b8015610c175780601f10610bec57610100808354040283529160200191610c17565b820191906000526020600020905b815481529060010190602001808311610bfa57829003601f168201915b505050918352505060018201546020820152600282015460408201526003820154606082015260049091015460ff808216608084015261010090910416151560a09091015284519091508190859085908110610c8357634e487b7160e01b600052603260045260246000fd5b6020908102919091010152600080610c9c85600161120f565b9150915081610cbd5760405162461bcd60e51b81526004016103f490611bda565b935050505b80610ccc816122d3565b915050610b31565b50909250505090565b610ce5610d81565b6001600160a01b0316610cf66106fa565b6001600160a01b031614610d1c5760405162461bcd60e51b81526004016103f490612045565b6001600160a01b038116610d425760405162461bcd60e51b81526004016103f490611c72565b6107ef81610fa5565b6001600160e01b031981166301ffc9a760e01b14919050565b6000908152600360205260409020546001600160a01b0316151590565b3390565b600081815260056020526040902080546001600160a01b0319166001600160a01b0384169081179091558190610dba82610636565b6001600160a01b03167f8c5be1e5ebec7d5bd14f71427d1e84f3dd0314c0f7b2291e5b200ac8c7c3b92560405160405180910390a45050565b6000610dfe82610d64565b610e1a5760405162461bcd60e51b81526004016103f490611de0565b6000610e2583610636565b9050806001600160a01b0316846001600160a01b03161480610e605750836001600160a01b0316610e55846103cd565b6001600160a01b0316145b80610e705750610e708185610a8c565b949350505050565b826001600160a01b0316610e8b82610636565b6001600160a01b031614610eb15760405162461bcd60e51b81526004016103f49061207a565b6001600160a01b038216610ed75760405162461bcd60e51b81526004016103f490611d24565b610ee28383836104ac565b610eed600082610d85565b6001600160a01b0383166000908152600460205260408120805460019290610f16908490612255565b90915550506001600160a01b0382166000908152600460205260408120805460019290610f44908490612229565b909155505060008181526003602052604080822080546001600160a01b0319166001600160a01b0386811691821790925591518493918716917fddf252ad1be2c89b69c2b068fc378daa952ba7f163c4a11628f55a4df523b3ef91a4505050565b600780546001600160a01b038381166001600160a01b0319831681179093556040519116919082907f8be0079c531659141344cd1fd0a4f28419497f9722a3daafe3b4186f6b6457e090600090a35050565b60006110036008611238565b905090565b600090565b6000611017610ff7565b90506110258185858561123c565b61102f3382611345565b336001600160a01b03167f96234cb3d6c373a1aaa06497a540bc166d4b0359243a088eaf95e21d7253d0be82600b848154811061107c57634e487b7160e01b600052603260045260246000fd5b90600052602060002090600502016002015460405161109c92919061221b565b60405180910390a2506104ac6008611363565b6110ba848484610e78565b6110c68484848461136c565b6109bf5760405162461bcd60e51b81526004016103f490611c20565b60408051602081019091526000815290565b60608161111957506040805180820190915260018152600360fc1b6020820152610336565b8160005b8115611143578061112d816122d3565b915061113c9050600a83612241565b915061111d565b60008167ffffffffffffffff81111561116c57634e487b7160e01b600052604160045260246000fd5b6040519080825280601f01601f191660200182016040528015611196576020820181803683370190505b5090505b8415610e70576111ab600183612255565b91506111b8600a866122ee565b6111c3906030612229565b60f81b8183815181106111e657634e487b7160e01b600052603260045260246000fd5b60200101906001600160f81b031916908160001a905350611208600a86612241565b945061119a565b6000808383018481101561122a576000809250925050611231565b6001925090505b9250929050565b5490565b6000611249423387611487565b905060008560405160200161125e9190611a85565b60408051601f1981840301815260c08301825280835260208381018a90529183018590526060830188905260ff8716608084015285151560a0840152600b805460018101825560009190915283518051929550849360059092027f0175b7a638427703f0dbe7bb9bbf987a2551717b34e79f33b5b1008d1fa01db901926112e892849201906116bc565b5060208201516001820155604082015160028201556060820151600382015560808201516004909101805460a09093015115156101000261ff001960ff90931660ff19909416939093179190911691909117905550505050505050565b61135f8282604051806020016040528060008152506114c2565b5050565b80546001019055565b6000611380846001600160a01b03166114f5565b1561147c57836001600160a01b031663150b7a0261139c610d81565b8786866040518563ffffffff1660e01b81526004016113be9493929190611ade565b602060405180830381600087803b1580156113d857600080fd5b505af1925050508015611408575060408051601f3d908101601f191682019092526114059181019061195a565b60015b611462573d808015611436576040519150601f19603f3d011682016040523d82523d6000602084013e61143b565b606091505b50805161145a5760405162461bcd60e51b81526004016103f490611c20565b805181602001fd5b6001600160e01b031916630a85bd0160e11b149050610e70565b506001949350505050565b60008084848460405160200161149f93929190611aa2565b60405160208183030381529060405290506114b9816114fb565b95945050505050565b6114cc8383611564565b6114d9600084848461136c565b6104ac5760405162461bcd60e51b81526004016103f490611c20565b3b151590565b600080662386f26fc10000905060008360405160200161151b9190611a3a565b6040516020818303038152906040528051906020012060001c90506000806115438385611643565b91509150816114b95760405162461bcd60e51b81526004016103f490611e2c565b6001600160a01b03821661158a5760405162461bcd60e51b81526004016103f490611f83565b61159381610d64565b156115b05760405162461bcd60e51b81526004016103f490611cb8565b6115bc600083836104ac565b6001600160a01b03821660009081526004602052604081208054600192906115e5908490612229565b909155505060008181526003602052604080822080546001600160a01b0319166001600160a01b03861690811790915590518392907fddf252ad1be2c89b69c2b068fc378daa952ba7f163c4a11628f55a4df523b3ef908290a45050565b6000808261165657506000905080611231565b600183858161167557634e487b7160e01b600052601260045260246000fd5b06915091509250929050565b6040518060c0016040528060608152602001600081526020016000815260200160008152602001600060ff1681526020016000151581525090565b8280546116c890612298565b90600052602060002090601f0160209004810192826116ea5760008555611730565b82601f1061170357805160ff1916838001178555611730565b82800160010185558215611730579182015b82811115611730578251825591602001919060010190611715565b5061173c929150611740565b5090565b5b8082111561173c5760008155600101611741565b600067ffffffffffffffff808411156117705761177061232e565b604051601f8501601f1916810160200182811182821017156117945761179461232e565b6040528481529150818385018610156117ac57600080fd5b8484602083013760006020868301015250509392505050565b80356001600160a01b038116811461033657600080fd5b8035801515811461033657600080fd5b6000602082840312156117fd578081fd5b610a85826117c5565b60008060408385031215611818578081fd5b611821836117c5565b915061182f602084016117c5565b90509250929050565b60008060006060848603121561184c578081fd5b611855846117c5565b9250611863602085016117c5565b9150604084013590509250925092565b60008060008060808587031215611888578081fd5b611891856117c5565b935061189f602086016117c5565b925060408501359150606085013567ffffffffffffffff8111156118c1578182fd5b8501601f810187136118d1578182fd5b6118e087823560208401611755565b91505092959194509250565b600080604083850312156118fe578182fd5b611907836117c5565b915061182f602084016117dc565b60008060408385031215611927578182fd5b611930836117c5565b946020939093013593505050565b60006020828403121561194f578081fd5b8135610a8581612344565b60006020828403121561196b578081fd5b8151610a8581612344565b6000806000806080858703121561198b578384fd5b843567ffffffffffffffff8111156119a1578485fd5b8501601f810187136119b1578485fd5b6119c087823560208401611755565b94505060208501359250604085013560ff811681146119dd578283fd5b91506119eb606086016117dc565b905092959194509250565b600060208284031215611a07578081fd5b5035919050565b60008151808452611a2681602086016020860161226c565b601f01601f19169290920160200192915050565b60008251611a4c81846020870161226c565b9190910192915050565b60008351611a6881846020880161226c565b835190830190611a7c81836020880161226c565b01949350505050565b6843484b4d415445202360b81b8152600981019190915260290190565b92835260609190911b6bffffffffffffffffffffffff19166020830152603482015260540190565b6001600160a01b0391909116815260200190565b6001600160a01b0385811682528416602082015260408101839052608060608201819052600090611b1190830184611a0e565b9695505050505050565b60208082528251828201819052600091906040908185019080840286018301878501865b83811015611bae57603f19898403018552815160c08151818652611b6582870182611a0e565b838b0151878c0152898401518a8801526060808501519088015260808085015160ff169088015260a0938401511515939096019290925250509386019390860190600101611b3f565b509098975050505050505050565b901515815260200190565b600060208252610a856020830184611a0e565b60208082526026908201527f496e7465676572206f766572666c6f7720666f722060696e7465726e616c436f60408201526503ab73a32b9360d51b606082015260800190565b60208082526032908201527f4552433732313a207472616e7366657220746f206e6f6e20455243373231526560408201527131b2b4bb32b91034b6b83632b6b2b73a32b960711b606082015260800190565b60208082526026908201527f4f776e61626c653a206e6577206f776e657220697320746865207a65726f206160408201526564647265737360d01b606082015260800190565b6020808252601c908201527f4552433732313a20746f6b656e20616c7265616479206d696e74656400000000604082015260600190565b6020808252818101527f4e6f7420656e6f7567682066756e647320696e2047616d65436f6e7472616374604082015260600190565b60208082526024908201527f4552433732313a207472616e7366657220746f20746865207a65726f206164646040820152637265737360e01b606082015260800190565b60208082526019908201527f4552433732313a20617070726f766520746f2063616c6c657200000000000000604082015260600190565b60208082526021908201527f57696e2074696d652073686f756c642062652067726561746f72207468616e206040820152600360fc1b606082015260800190565b6020808252602c908201527f4552433732313a206f70657261746f7220717565727920666f72206e6f6e657860408201526b34b9ba32b73a103a37b5b2b760a11b606082015260800190565b60208082526041908201527f496e7465676572206f766572666c6f7720666f72206d6f64206f70657261746960408201527f6f6e207768696c652067656e65726174696e672072616e646f6d206e756d62656060820152603960f91b608082015260a00190565b60208082526038908201527f4552433732313a20617070726f76652063616c6c6572206973206e6f74206f7760408201527f6e6572206e6f7220617070726f76656420666f7220616c6c0000000000000000606082015260800190565b6020808252602a908201527f4552433732313a2062616c616e636520717565727920666f7220746865207a65604082015269726f206164647265737360b01b606082015260800190565b60208082526029908201527f4552433732313a206f776e657220717565727920666f72206e6f6e657869737460408201526832b73a103a37b5b2b760b91b606082015260800190565b6020808252818101527f4552433732313a206d696e7420746f20746865207a65726f2061646472657373604082015260600190565b60208082526021908201527f47616d65436f6e74726163742061646472657373206973206e6f742076616c696040820152601960fa1b606082015260800190565b6020808252602c908201527f4552433732313a20617070726f76656420717565727920666f72206e6f6e657860408201526b34b9ba32b73a103a37b5b2b760a11b606082015260800190565b6020808252818101527f4f776e61626c653a2063616c6c6572206973206e6f7420746865206f776e6572604082015260600190565b60208082526029908201527f4552433732313a207472616e73666572206f6620746f6b656e2074686174206960408201526839903737ba1037bbb760b91b606082015260800190565b6020808252602f908201527f4552433732314d657461646174613a2055524920717565727920666f72206e6f60408201526e3732bc34b9ba32b73a103a37b5b2b760891b606082015260800190565b60208082526021908201527f4552433732313a20617070726f76616c20746f2063757272656e74206f776e656040820152603960f91b606082015260800190565b60208082526018908201527f54686520746f6b656e20616c7265616479206578697374730000000000000000604082015260600190565b60208082526031908201527f4552433732313a207472616e736665722063616c6c6572206973206e6f74206f6040820152701ddb995c881b9bdc88185c1c1c9bdd9959607a1b606082015260800190565b6020808252601f908201527f5265656e7472616e637947756172643a207265656e7472616e742063616c6c00604082015260600190565b90815260200190565b918252602082015260400190565b6000821982111561223c5761223c612302565b500190565b60008261225057612250612318565b500490565b60008282101561226757612267612302565b500390565b60005b8381101561228757818101518382015260200161226f565b838111156109bf5750506000910152565b6002810460018216806122ac57607f821691505b602082108114156122cd57634e487b7160e01b600052602260045260246000fd5b50919050565b60006000198214156122e7576122e7612302565b5060010190565b6000826122fd576122fd612318565b500690565b634e487b7160e01b600052601160045260246000fd5b634e487b7160e01b600052601260045260246000fd5b634e487b7160e01b600052604160045260246000fd5b6001600160e01b0319811681146107ef57600080fdfea2646970667358221220c19039fb12d94bf39788572383b92f99e125d905dfe3a233aee0c8032c4f78a564736f6c63430008000033",
  "immutableReferences": {},
  "source": "// SPDX-License-Identifier: MIT\n\npragma solidity ^0.8.0;\n\nimport \"@openzeppelin/contracts/token/ERC20/utils/SafeERC20.sol\";\nimport \"@openzeppelin/contracts/token/ERC20/ERC20.sol\";\nimport \"@openzeppelin/contracts/token/ERC20/IERC20.sol\";\nimport \"@openzeppelin/contracts/security/ReentrancyGuard.sol\";\nimport \"@openzeppelin/contracts/utils/Address.sol\";\nimport \"@openzeppelin/contracts/access/Ownable.sol\";\nimport './BaseContract.sol';\nimport \"./NFTContract.sol\";\nimport './Helpers.sol';\n\ncontract GameContract is BaseContract {\n    \n    using SafeERC20 for IERC20;\n    using Address for address;\n    \n    event GameCreated(address indexed challengerAddress, string gameId);\n    event GameJoined(address indexed challengerAddress, address indexed challengeAcceptorAddress, string gameId);\n    event GameEnd(address indexed winnerAddress, string gameId);\n    event NFTCreated(address indexed winnerAddress, string gameId, bool isRare);\n    \n    enum ActionType {\n        CreateGame,\n        JoinGame,\n        EndGame\n    }\n    \n    // modifier validGame(uint gameId, uint valuePassed, ActionType action, address _winnerAddress) {\n    //     // Check and verify if the caller address is valid\n    //     require(msg.sender != Helpers.nullAddress(), \"Caller address is not valid\");\n\n    //     AddressMapping memory addressMapping = _games[gameId];\n    //     address challengerAddress = addressMapping.challengerAddress;\n    //     address challengeAcceptorAddress = addressMapping.challengeAcceptorAddress;\n    //     address winnerAddress = addressMapping.winnerAddress;\n    //     bool gameExists = challengerAddress != Helpers.nullAddress() || challengeAcceptorAddress != Helpers.nullAddress() || winnerAddress != Helpers.nullAddress();\n\n    //     if (action == ActionType.CreateGame) {\n    //         // Check and verify if a game with specified ID  already exists.\n    //         require(!gameExists, \"A game with specified ID already exists\");\n    //         // Check and verify if a value equal to or greater than `_baseGameFee` was sent along with the transaction.\n    //         require(valuePassed == _baseGameFee, \"Sent value should be equal to game fee\");\n    //         // Check and verify if the winner address is not set.\n    //         require(challengerAddress == Helpers.nullAddress(), \"Challenger address is already set\");\n    //         // Check and verify if challenge acceptor address is not set yet.\n    //         require(challengeAcceptorAddress == Helpers.nullAddress(), \"Challenge acceptor address is already set\");\n    //         // Check and verify if the winner address is not set.\n    //         require(winnerAddress == Helpers.nullAddress(), \"Winner address cannot be set before the game ends\");\n    //     } else if (action == ActionType.JoinGame) {\n    //         // Check and verify if a game currently exists for specified `gameId`.\n    //         require(gameExists, \"A game with specified ID does not exists\");\n    //         // Check and verify if challenger address is already set for the game.\n    //         require(challengerAddress != Helpers.nullAddress(), \"No challenger address set for the game\");\n    //         // Check and verify if challenger address is not equal to caller address.\n    //         require(challengerAddress != msg.sender, \"Challenger and challenge acceptor address cannot be same address\");\n    //         // Check and verify if challenge acceptor address is not equal to caller address.\n    //         require(challengeAcceptorAddress != msg.sender, \"The player already accepted the challenge\");\n    //         // Check and verify if challenge acceptor address is not set yet.\n    //         require(challengeAcceptorAddress == Helpers.nullAddress(), \"A player already accepted this challenge\");\n    //         // Check and verify if a value equal to or greater than `_baseGameFee` was sent along with the transaction.\n    //         require(valuePassed == _baseGameFee, \"Sent value should be equal to game fee\");\n    //         // Check and verify if the winner address is not set.\n    //         require(winnerAddress == Helpers.nullAddress(), \"Winner address cannot be set before the game ends\");\n    //     } else if (action == ActionType.EndGame) {\n    //         // Check and verify if a game exists for the specified `gameId`.\n    //         require(gameExists, \"A game with specified ID does not exists.\");\n    //         // Check and verify if challengerAddress is valid.\n    //         require(challengerAddress != Helpers.nullAddress(), \"Challenger address is not valid.\");\n    //         // Check and verify if challenge acceptor address is valid.\n    //         require(challengeAcceptorAddress != Helpers.nullAddress(), \"Challenge acceptor address is not valid\");\n    //         // Check and verify if the winner address is not set.\n    //         require(winnerAddress == Helpers.nullAddress(), \"Winner address is already set\");\n    //         // Check and verify if the passed _winnerAddress is valid\n    //         require(_winnerAddress != Helpers.nullAddress(), \"Winner address is not valid\");\n    //         // Check and verify if passed _winnerAddress is equal to either player of the game\n    //         require(_winnerAddress == challengerAddress || _winnerAddress == challengeAcceptorAddress, \"Winner address does not belong to either player of the game\");\n    //     } else {\n    //         require(false, \"Action invalid.\");\n    //     }\n    //     _;\n    // }\n\n    mapping(string => address) private _challengerMap;\n    mapping(string => address) private _opponentMap;\n    mapping(string => address) private _winnersMap;\n\n    uint private _baseGameFee = Helpers.GAME_FEE;\n    IERC20 private _token = new ERC20(\"ether\", \"ETH\");\n    NFTContract private nftContract = new NFTContract(address(this));\n    \n    /**\n     * @dev Call this to get the current balance of \n     */\n    function getContractBalance() external view returns (uint) {\n        return address(this).balance;\n    }\n    \n    /**\n     * @dev Call this to get the current `_baseGameFee` \n     */\n    function getBaseGameFee() external view returns (uint) {\n        return _baseGameFee;\n    }\n    \n    /**\n     * @dev Call this to update the current base game fee. This method can only be called via owner of this contract.\n     *\n     * @param newGameFee new fee value to be used for creating a new game.\n     */\n    function updateBaseGameFees(uint newGameFee) external onlyOwner() {\n      _baseGameFee = newGameFee;\n    }\n    \n    /**\n    * @dev Create a new game by depositing a gameFee.\n    * \n    */\n    function createGame(string memory gameId) external payable nonReentrant {\n        // Check and verify if the caller address is valid\n        require(msg.sender != Helpers.nullAddress(), \"Caller address is not valid\");\n        address challengerAddress = _challengerMap[gameId];\n        bool gameExists = challengerAddress != Helpers.nullAddress();\n        // Check and verify if a game with specified ID  already exists.\n        require(!gameExists, \"A game with specified ID already exists\");\n        // Check and verify if a challenger address does not already exists.\n        bool challengerExists = challengerAddress != Helpers.nullAddress();\n        require(!challengerExists, \"Challenger address already exists\");\n        // Check and verify if a value equal to or greater than `_baseGameFee` was sent along with the transaction.\n        require(msg.value >= _baseGameFee, \"Sent value should be equal to game fee\");\n        // Check and verify if the challenge acceptor address exist\n        bool challengeAcceptorNotExists = _opponentMap[gameId] == Helpers.nullAddress();\n        require(challengeAcceptorNotExists, \"Challenge acceptor address already exists\");\n        bool winnerExists = _winnersMap[gameId] != Helpers.nullAddress();\n        // Check and verify if the winner address is not set.\n        require(!winnerExists, \"Winner address cannot be set before the game starts\");\n        // Create a new game after the funds are locked\n        _createGame(gameId);\n        // Safe increase allowance for this contract to spend `_baseGameFee` after the game is finished\n        SafeERC20.safeIncreaseAllowance(_token, address(this), msg.value);\n        // Emit new game event\n        emit GameCreated(msg.sender, gameId);\n    }\n    \n    /**\n     * @dev Call this to join a game with provided `gameId`. Throw an exeption if no game for this `gameId` exists.\n     * \n     * @param gameId id of game to be ended\n     */\n    function joinGame(string memory gameId) external payable nonReentrant {\n        // Check and verify if the caller address is valid\n        require(msg.sender != Helpers.nullAddress(), \"Caller address is not valid\");\n        address challengerAddress = _challengerMap[gameId];\n        bool gameExists = challengerAddress != Helpers.nullAddress();\n        // Check and verify if a game with specified ID  already exists.\n        require(gameExists, \"A game with specified ID does not exist\");\n        // Check and verify if a challenger address exists.\n        bool challengerExists = challengerAddress != Helpers.nullAddress();\n        require(challengerExists, \"Challenger address does not exists\");\n        // Check and verify if a value equal to or greater than `_baseGameFee` was sent along with the transaction.\n        require(msg.value >= _baseGameFee, \"Sent value should be equal to game fee\");\n        // Check and verify if the challenge acceptor address exist\n        bool challengeAcceptorExists = _opponentMap[gameId] != Helpers.nullAddress();\n        require(!challengeAcceptorExists, \"Challenge acceptor address already exists\");\n        // Check and verify if both player address are unique\n        require(challengerAddress != msg.sender, \"Both player address should be unique\");\n        // Check and verify if the winner address is not set.\n        bool winnerExists = _winnersMap[gameId] != Helpers.nullAddress();\n        require(!winnerExists, \"Winner address cannot be set before the game starts\");\n        // Join an already created game with specified `gameId`\n        _joinGame(gameId);\n        // Safe increase allowance for this contract to spend `msg.value` after the game is finished\n        SafeERC20.safeIncreaseAllowance(_token, address(this), msg.value);\n        // Emit game joined event\n        emit GameJoined(challengerAddress, msg.sender, gameId);\n    }\n    \n    /**\n     * @dev Call this to end a game with specified `gameId`. A game would end either when one player wins or if no \n     * player accepts a challenge within 30 minutes.\n     * \n     * @param gameId id of this game\n     * @param gameTime time taken (in seconds) to win the game\n     */\n    function endGame(\n        string memory gameId,\n        uint gameTime\n    ) external nonReentrant onlyOwner() {\n        // Check and verify if the caller address is valid\n        require(msg.sender != Helpers.nullAddress(), \"Caller address is not valid\");\n        address challengerAddress = _challengerMap[gameId];\n        bool gameExists = challengerAddress != Helpers.nullAddress();\n        // Check and verify if a game with specified ID  already exists.\n        require(gameExists, \"A game with specified ID does not exist\");\n        // Check and verify if a challenger address exists.\n        bool challengerExists = challengerAddress != Helpers.nullAddress();\n        require(challengerExists, \"Challenger address does not exists\");\n        // Check and verify if the challenge acceptor address exist\n        bool challengeAcceptorExists = _opponentMap[gameId] != Helpers.nullAddress();\n        require(challengeAcceptorExists, \"Challenge acceptor address does not exists\");\n        // Check and verify if the winner address is not set.\n        bool winnerExists = _winnersMap[gameId] != Helpers.nullAddress();\n        require(!winnerExists, \"Winner address already exists\");\n        // Check and verify if the `winTime` is greater than 0\n        require(gameTime > 0, \"WinTime has to be greater than 0\");\n        // End the current game and update winner address\n        _endGame(msg.sender, gameId);\n        // Emit end game event\n        emit GameEnd(msg.sender, gameId);\n    }\n    \n    /**\n     * @dev Winner of the game can call this to mint the winning card NFT.\n     *\n     * @param gameId id of this game\n     * @param isRare true if this NFT is rare\n     * @param winTime time taken (in seconds) to win the game\n     * @param killScore count of longest consecutive kill by one single piece on board\n     */\n    function mintNFT(\n        string memory gameId, \n        bool isRare,\n        uint winTime, \n        uint8 killScore\n    ) external nonReentrant {\n        // Check and verify if the caller address is valid\n        require(msg.sender != Helpers.nullAddress(), \"Caller address is not valid\");\n        address challengerAddress = _challengerMap[gameId];\n        bool gameExists = challengerAddress != Helpers.nullAddress();\n        // Check and verify if a game with specified ID  already exists.\n        require(gameExists, \"A game with specified ID does not exist\");\n        // Check and verify if the challenge acceptor address exist\n        bool challengeAcceptorExists = _opponentMap[gameId] != Helpers.nullAddress();\n        require(challengeAcceptorExists, \"Challenge acceptor address is not set\");\n        address winnerAddress = _winnersMap[gameId];\n        bool winnerExists = winnerAddress != Helpers.nullAddress();\n        // Check and verify if the winner address is not set.\n        require(winnerExists, \"Winner address is not set\");\n        // Check and verify if the caller address matches to winner address\n        require(msg.sender == winnerAddress, \"Only the winner of the game can mint the NFT card\");\n        // Create and mint NFT and assign it to winner address\n        _createAndMintNFT(gameId, winnerAddress, isRare, winTime, killScore);\n    }\n    \n    /**\n     * @dev Create a new game and update the mapping for `games`.\n     * \n     * @param gameId id of game to be started\n     */\n    function _createGame(string memory gameId) private increment() {\n        _challengerMap[gameId] = msg.sender;\n    }\n    \n    /**\n     * @dev Call this to join a game with provided `gameId`.\n     * \n     * @param gameId id of game to be ended\n     */\n    function _joinGame(string memory gameId) private {\n        _opponentMap[gameId] = msg.sender;\n    }\n    \n    /**\n     * @dev Call this to set the `winnerAddress` when a game finishes\n     * \n     * @param winnerAddress address of player who won the game\n     * @param gameId id of this game\n     */\n    function _endGame(address winnerAddress, string memory gameId) private {\n        _winnersMap[gameId] = winnerAddress;\n    }\n\n    /**\n     * @dev Call this method when the game ends to create and mint NFT.\n     * \n     * @param gameId id of this game.\n     * @param winnerAddress address of player who won the game\n     * @param isRare true if this NFT is rare\n     * @param winTime time taken (in seconds) to win the game\n     * @param killScore count of longest consecutive kill by one single piece on board\n     */\n    function _createAndMintNFT(\n        string memory gameId, \n        address winnerAddress, \n        bool isRare,\n        uint winTime, \n        uint8 killScore\n    ) private {\n        // Create nft here and once created then emit NFTCreated event \n        nftContract.createAndMintToken(gameId, winTime, killScore, isRare);\n        emit NFTCreated(winnerAddress, gameId, isRare);\n    }\n}",
  "sourcePath": "/Users/saurabh-macbook/Documents/dapps/chkmate/frontend_base_dapp/contracts/GameContract.sol",
  "compiler": {
    "name": "solc",
    "version": "0.8.0+commit.c7dfd78e.Emscripten.clang"
  },
  "schemaVersion": "3.4.3",
  "updatedAt": "2021-10-10T00:49:27.891Z",
  "networkType": "ethereum",
  "devdoc": {
    "kind": "dev",
    "methods": {
      "createGame(string)": {
        "details": "Create a new game by depositing a gameFee. "
      },
      "endGame(string,uint256)": {
        "details": "Call this to end a game with specified `gameId`. A game would end either when one player wins or if no  player accepts a challenge within 30 minutes. ",
        "params": {
          "gameId": "id of this game",
          "gameTime": "time taken (in seconds) to win the game"
        }
      },
      "getBaseGameFee()": {
        "details": "Call this to get the current `_baseGameFee` "
      },
      "getContractBalance()": {
        "details": "Call this to get the current balance of "
      },
      "joinGame(string)": {
        "details": "Call this to join a game with provided `gameId`. Throw an exeption if no game for this `gameId` exists. ",
        "params": {
          "gameId": "id of game to be ended"
        }
      },
      "mintNFT(string,bool,uint256,uint8)": {
        "details": "Winner of the game can call this to mint the winning card NFT.",
        "params": {
          "gameId": "id of this game",
          "isRare": "true if this NFT is rare",
          "killScore": "count of longest consecutive kill by one single piece on board",
          "winTime": "time taken (in seconds) to win the game"
        }
      },
      "owner()": {
        "details": "Returns the address of the current owner."
      },
      "renounceOwnership()": {
        "details": "Leaves the contract without owner. It will not be possible to call `onlyOwner` functions anymore. Can only be called by the current owner. NOTE: Renouncing ownership will leave the contract without an owner, thereby removing any functionality that is only available to the owner."
      },
      "setOwnership(address)": {
        "details": "Call this method to update ownership in future (if needed). This external  method can only be called by the owner of this contract. Since `transferOwnership()` already have this check it's not required for this method. ",
        "params": {
          "newOwnerAddress": "address of new owner to which ownership is to be transfered."
        }
      },
      "transferOwnership(address)": {
        "details": "Transfers ownership of the contract to a new account (`newOwner`). Can only be called by the current owner."
      },
      "updateBaseGameFees(uint256)": {
        "details": "Call this to update the current base game fee. This method can only be called via owner of this contract.",
        "params": {
          "newGameFee": "new fee value to be used for creating a new game."
        }
      }
    },
    "version": 1
  },
  "userdoc": {
    "kind": "user",
    "methods": {},
    "version": 1
  }
}