{
  "contractName": "NFTContract",
  "abi": [
    {
      "inputs": [
        {
          "internalType": "address",
          "name": "gameContractAddress",
          "type": "address"
        }
      ],
      "stateMutability": "nonpayable",
      "type": "constructor"
    },
    {
      "anonymous": false,
      "inputs": [
        {
          "indexed": true,
          "internalType": "address",
          "name": "owner",
          "type": "address"
        },
        {
          "indexed": true,
          "internalType": "address",
          "name": "approved",
          "type": "address"
        },
        {
          "indexed": true,
          "internalType": "uint256",
          "name": "tokenId",
          "type": "uint256"
        }
      ],
      "name": "Approval",
      "type": "event"
    },
    {
      "anonymous": false,
      "inputs": [
        {
          "indexed": true,
          "internalType": "address",
          "name": "owner",
          "type": "address"
        },
        {
          "indexed": true,
          "internalType": "address",
          "name": "operator",
          "type": "address"
        },
        {
          "indexed": false,
          "internalType": "bool",
          "name": "approved",
          "type": "bool"
        }
      ],
      "name": "ApprovalForAll",
      "type": "event"
    },
    {
      "anonymous": false,
      "inputs": [
        {
          "indexed": true,
          "internalType": "address",
          "name": "previousOwner",
          "type": "address"
        },
        {
          "indexed": true,
          "internalType": "address",
          "name": "newOwner",
          "type": "address"
        }
      ],
      "name": "OwnershipTransferred",
      "type": "event"
    },
    {
      "anonymous": false,
      "inputs": [
        {
          "indexed": true,
          "internalType": "address",
          "name": "owner",
          "type": "address"
        },
        {
          "indexed": false,
          "internalType": "uint256",
          "name": "id",
          "type": "uint256"
        },
        {
          "indexed": false,
          "internalType": "uint256",
          "name": "dna",
          "type": "uint256"
        }
      ],
      "name": "TokenMinted",
      "type": "event"
    },
    {
      "anonymous": false,
      "inputs": [
        {
          "indexed": true,
          "internalType": "address",
          "name": "from",
          "type": "address"
        },
        {
          "indexed": true,
          "internalType": "address",
          "name": "to",
          "type": "address"
        },
        {
          "indexed": true,
          "internalType": "uint256",
          "name": "tokenId",
          "type": "uint256"
        }
      ],
      "name": "Transfer",
      "type": "event"
    },
    {
      "inputs": [
        {
          "internalType": "address",
          "name": "to",
          "type": "address"
        },
        {
          "internalType": "uint256",
          "name": "tokenId",
          "type": "uint256"
        }
      ],
      "name": "approve",
      "outputs": [],
      "stateMutability": "nonpayable",
      "type": "function"
    },
    {
      "inputs": [
        {
          "internalType": "address",
          "name": "owner",
          "type": "address"
        }
      ],
      "name": "balanceOf",
      "outputs": [
        {
          "internalType": "uint256",
          "name": "",
          "type": "uint256"
        }
      ],
      "stateMutability": "view",
      "type": "function",
      "constant": true
    },
    {
      "inputs": [
        {
          "internalType": "uint256",
          "name": "tokenId",
          "type": "uint256"
        }
      ],
      "name": "getApproved",
      "outputs": [
        {
          "internalType": "address",
          "name": "",
          "type": "address"
        }
      ],
      "stateMutability": "view",
      "type": "function",
      "constant": true
    },
    {
      "inputs": [
        {
          "internalType": "address",
          "name": "owner",
          "type": "address"
        },
        {
          "internalType": "address",
          "name": "operator",
          "type": "address"
        }
      ],
      "name": "isApprovedForAll",
      "outputs": [
        {
          "internalType": "bool",
          "name": "",
          "type": "bool"
        }
      ],
      "stateMutability": "view",
      "type": "function",
      "constant": true
    },
    {
      "inputs": [],
      "name": "name",
      "outputs": [
        {
          "internalType": "string",
          "name": "",
          "type": "string"
        }
      ],
      "stateMutability": "view",
      "type": "function",
      "constant": true
    },
    {
      "inputs": [],
      "name": "owner",
      "outputs": [
        {
          "internalType": "address",
          "name": "",
          "type": "address"
        }
      ],
      "stateMutability": "view",
      "type": "function",
      "constant": true
    },
    {
      "inputs": [
        {
          "internalType": "uint256",
          "name": "tokenId",
          "type": "uint256"
        }
      ],
      "name": "ownerOf",
      "outputs": [
        {
          "internalType": "address",
          "name": "",
          "type": "address"
        }
      ],
      "stateMutability": "view",
      "type": "function",
      "constant": true
    },
    {
      "inputs": [],
      "name": "renounceOwnership",
      "outputs": [],
      "stateMutability": "nonpayable",
      "type": "function"
    },
    {
      "inputs": [
        {
          "internalType": "address",
          "name": "from",
          "type": "address"
        },
        {
          "internalType": "address",
          "name": "to",
          "type": "address"
        },
        {
          "internalType": "uint256",
          "name": "tokenId",
          "type": "uint256"
        }
      ],
      "name": "safeTransferFrom",
      "outputs": [],
      "stateMutability": "nonpayable",
      "type": "function"
    },
    {
      "inputs": [
        {
          "internalType": "address",
          "name": "from",
          "type": "address"
        },
        {
          "internalType": "address",
          "name": "to",
          "type": "address"
        },
        {
          "internalType": "uint256",
          "name": "tokenId",
          "type": "uint256"
        },
        {
          "internalType": "bytes",
          "name": "_data",
          "type": "bytes"
        }
      ],
      "name": "safeTransferFrom",
      "outputs": [],
      "stateMutability": "nonpayable",
      "type": "function"
    },
    {
      "inputs": [
        {
          "internalType": "address",
          "name": "operator",
          "type": "address"
        },
        {
          "internalType": "bool",
          "name": "approved",
          "type": "bool"
        }
      ],
      "name": "setApprovalForAll",
      "outputs": [],
      "stateMutability": "nonpayable",
      "type": "function"
    },
    {
      "inputs": [
        {
          "internalType": "address",
          "name": "newOwnerAddress",
          "type": "address"
        }
      ],
      "name": "setOwnership",
      "outputs": [],
      "stateMutability": "nonpayable",
      "type": "function"
    },
    {
      "inputs": [
        {
          "internalType": "bytes4",
          "name": "interfaceId",
          "type": "bytes4"
        }
      ],
      "name": "supportsInterface",
      "outputs": [
        {
          "internalType": "bool",
          "name": "",
          "type": "bool"
        }
      ],
      "stateMutability": "view",
      "type": "function",
      "constant": true
    },
    {
      "inputs": [],
      "name": "symbol",
      "outputs": [
        {
          "internalType": "string",
          "name": "",
          "type": "string"
        }
      ],
      "stateMutability": "view",
      "type": "function",
      "constant": true
    },
    {
      "inputs": [
        {
          "internalType": "uint256",
          "name": "tokenId",
          "type": "uint256"
        }
      ],
      "name": "tokenURI",
      "outputs": [
        {
          "internalType": "string",
          "name": "",
          "type": "string"
        }
      ],
      "stateMutability": "view",
      "type": "function",
      "constant": true
    },
    {
      "inputs": [
        {
          "internalType": "address",
          "name": "from",
          "type": "address"
        },
        {
          "internalType": "address",
          "name": "to",
          "type": "address"
        },
        {
          "internalType": "uint256",
          "name": "tokenId",
          "type": "uint256"
        }
      ],
      "name": "transferFrom",
      "outputs": [],
      "stateMutability": "nonpayable",
      "type": "function"
    },
    {
      "inputs": [
        {
          "internalType": "address",
          "name": "newOwner",
          "type": "address"
        }
      ],
      "name": "transferOwnership",
      "outputs": [],
      "stateMutability": "nonpayable",
      "type": "function"
    },
    {
      "inputs": [],
      "name": "getAllTokens",
      "outputs": [
        {
          "components": [
            {
              "internalType": "string",
              "name": "name",
              "type": "string"
            },
            {
              "internalType": "uint256",
              "name": "id",
              "type": "uint256"
            },
            {
              "internalType": "uint256",
              "name": "dna",
              "type": "uint256"
            },
            {
              "internalType": "uint256",
              "name": "winTime",
              "type": "uint256"
            },
            {
              "internalType": "uint8",
              "name": "killScore",
              "type": "uint8"
            },
            {
              "internalType": "bool",
              "name": "isRare",
              "type": "bool"
            }
          ],
          "internalType": "struct NFTContract.CHKMATE[]",
          "name": "",
          "type": "tuple[]"
        }
      ],
      "stateMutability": "view",
      "type": "function",
      "constant": true
    },
    {
      "inputs": [],
      "name": "getAllTokensForCaller",
      "outputs": [
        {
          "components": [
            {
              "internalType": "string",
              "name": "name",
              "type": "string"
            },
            {
              "internalType": "uint256",
              "name": "id",
              "type": "uint256"
            },
            {
              "internalType": "uint256",
              "name": "dna",
              "type": "uint256"
            },
            {
              "internalType": "uint256",
              "name": "winTime",
              "type": "uint256"
            },
            {
              "internalType": "uint8",
              "name": "killScore",
              "type": "uint8"
            },
            {
              "internalType": "bool",
              "name": "isRare",
              "type": "bool"
            }
          ],
          "internalType": "struct NFTContract.CHKMATE[]",
          "name": "",
          "type": "tuple[]"
        }
      ],
      "stateMutability": "view",
      "type": "function",
      "constant": true
    },
    {
      "inputs": [
        {
          "internalType": "uint256",
          "name": "newMintingFee",
          "type": "uint256"
        }
      ],
      "name": "updateMintingFees",
      "outputs": [],
      "stateMutability": "nonpayable",
      "type": "function"
    },
    {
      "inputs": [
        {
          "internalType": "address",
          "name": "newGameContractAddress",
          "type": "address"
        }
      ],
      "name": "updateGameContractAddress",
      "outputs": [],
      "stateMutability": "nonpayable",
      "type": "function"
    },
    {
      "inputs": [
        {
          "internalType": "uint256",
          "name": "winTime",
          "type": "uint256"
        },
        {
          "internalType": "uint8",
          "name": "killScore",
          "type": "uint8"
        },
        {
          "internalType": "bool",
          "name": "isRare",
          "type": "bool"
        }
      ],
      "name": "createAndMintToken",
      "outputs": [],
      "stateMutability": "payable",
      "type": "function",
      "payable": true
    }
  ],
  "bytecode": "0x60a060405260006080819052600855662386f26fc100006009553480156200002657600080fd5b50604051620029e8380380620029e8833981016040819052620000499162000253565b604080518082018252600b81526a10d212d35055114813919560aa1b60208083019182528351808501909452600784526643484b4d41544560c81b90840152600160008190558251929392620000a09290620001ad565b508051620000b6906002906020840190620001ad565b505050620000d3620000cd6200014860201b60201c565b6200014c565b620000dd62000148565b6001600160a01b0316620000f06200019e565b6001600160a01b031614620001225760405162461bcd60e51b8152600401620001199062000283565b60405180910390fd5b600a80546001600160a01b0319166001600160a01b0392909216919091179055620002f5565b3390565b600780546001600160a01b038381166001600160a01b0319831681179093556040519116919082907f8be0079c531659141344cd1fd0a4f28419497f9722a3daafe3b4186f6b6457e090600090a35050565b6007546001600160a01b031690565b828054620001bb90620002b8565b90600052602060002090601f016020900481019282620001df57600085556200022a565b82601f10620001fa57805160ff19168380011785556200022a565b828001600101855582156200022a579182015b828111156200022a5782518255916020019190600101906200020d565b50620002389291506200023c565b5090565b5b808211156200023857600081556001016200023d565b60006020828403121562000265578081fd5b81516001600160a01b03811681146200027c578182fd5b9392505050565b6020808252818101527f4f776e61626c653a2063616c6c6572206973206e6f7420746865206f776e6572604082015260600190565b600281046001821680620002cd57607f821691505b60208210811415620002ef57634e487b7160e01b600052602260045260246000fd5b50919050565b6126e380620003056000396000f3fe6080604052600436106101355760003560e01c80638da5cb5b116100ab578063b88d4fde1161006f578063b88d4fde14610342578063c7673e8a14610362578063c87b56dd14610382578063e985e9c5146103a2578063ee54ae79146103c2578063f2fde38b146103d757610135565b80638da5cb5b146102b857806395d89b41146102cd578063a22cb465146102e2578063a701602314610302578063a8773a7b1461032257610135565b80632a5c792a116100fd5780632a5c792a1461020157806342842e0e146102235780636352211e1461024357806370a0823114610263578063715018a6146102905780637f82625b146102a557610135565b806301ffc9a71461013a57806306fdde0314610170578063081812fc14610192578063095ea7b3146101bf57806323b872dd146101e1575b600080fd5b34801561014657600080fd5b5061015a610155366004611ba4565b6103f7565b6040516101679190611de7565b60405180910390f35b34801561017c57600080fd5b5061018561043f565b6040516101679190611df2565b34801561019e57600080fd5b506101b26101ad366004611bdc565b6104d1565b6040516101679190611cf5565b3480156101cb57600080fd5b506101df6101da366004611b7b565b61051d565b005b3480156101ed57600080fd5b506101df6101fc366004611a4b565b6105b5565b34801561020d57600080fd5b506102166105ed565b6040516101679190611d46565b34801561022f57600080fd5b506101df61023e366004611a4b565b61071f565b34801561024f57600080fd5b506101b261025e366004611bdc565b61073a565b34801561026f57600080fd5b5061028361027e3660046119ff565b61076f565b6040516101679190612565565b34801561029c57600080fd5b506101df6107b3565b6101df6102b3366004611bf4565b6107fe565b3480156102c457600080fd5b506101b26109c8565b3480156102d957600080fd5b506101856109d7565b3480156102ee57600080fd5b506101df6102fd366004611b52565b6109e6565b34801561030e57600080fd5b506101df61031d3660046119ff565b610ab4565b34801561032e57600080fd5b506101df61033d3660046119ff565b610ac0565b34801561034e57600080fd5b506101df61035d366004611a86565b610b21565b34801561036e57600080fd5b506101df61037d366004611bdc565b610b60565b34801561038e57600080fd5b5061018561039d366004611bdc565b610ba4565b3480156103ae57600080fd5b5061015a6103bd366004611a19565b610c27565b3480156103ce57600080fd5b50610216610c55565b3480156103e357600080fd5b506101df6103f23660046119ff565b610e78565b60006001600160e01b031982166380ac58cd60e01b148061042857506001600160e01b03198216635b5e139f60e01b145b80610437575061043782610ee6565b90505b919050565b60606001805461044e906125eb565b80601f016020809104026020016040519081016040528092919081815260200182805461047a906125eb565b80156104c75780601f1061049c576101008083540402835291602001916104c7565b820191906000526020600020905b8154815290600101906020018083116104aa57829003601f168201915b5050505050905090565b60006104dc82610eff565b6105015760405162461bcd60e51b81526004016104f890612315565b60405180910390fd5b506000908152600560205260409020546001600160a01b031690565b60006105288261073a565b9050806001600160a01b0316836001600160a01b0316141561055c5760405162461bcd60e51b81526004016104f89061242e565b806001600160a01b031661056e610f1c565b6001600160a01b0316148061058a575061058a816103bd610f1c565b6105a65760405162461bcd60e51b81526004016104f8906121af565b6105b08383610f20565b505050565b6105c66105c0610f1c565b82610f8e565b6105e25760405162461bcd60e51b81526004016104f8906124a6565b6105b0838383611013565b6060600b805480602002602001604051908101604052809291908181526020016000905b8282101561071657838290600052602060002090600502016040518060c0016040529081600082018054610644906125eb565b80601f0160208091040260200160405190810160405280929190818152602001828054610670906125eb565b80156106bd5780601f10610692576101008083540402835291602001916106bd565b820191906000526020600020905b8154815290600101906020018083116106a057829003601f168201915b5050509183525050600182810154602080840191909152600284015460408401526003840154606084015260049093015460ff808216608085015261010090910416151560a09092019190915291835292019101610611565b50505050905090565b6105b083838360405180602001604052806000815250610b21565b6000818152600360205260408120546001600160a01b0316806104375760405162461bcd60e51b81526004016104f890612256565b60006001600160a01b0382166107975760405162461bcd60e51b81526004016104f89061220c565b506001600160a01b031660009081526004602052604090205490565b6107bb610f1c565b6001600160a01b03166107cc6109c8565b6001600160a01b0316146107f25760405162461bcd60e51b81526004016104f890612361565b6107fc6000611140565b565b600260005414156108215760405162461bcd60e51b81526004016104f89061252e565b600260005561082e610f1c565b6001600160a01b031661083f6109c8565b6001600160a01b0316146108655760405162461bcd60e51b81526004016104f890612361565b826000610870611192565b905060095434146108935760405162461bcd60e51b81526004016104f890611e05565b61089b6111a3565b600a546001600160a01b03908116911614156108c95760405162461bcd60e51b81526004016104f8906122d4565b600954600a546001600160a01b03163110156108f75760405162461bcd60e51b81526004016104f890611f77565b6108ff6111a3565b6001600160a01b03166109118261073a565b6001600160a01b0316146109375760405162461bcd60e51b81526004016104f8906124f7565b600b818154811061095857634e487b7160e01b600052603260045260246000fd5b9060005260206000209060050201600101546000146109895760405162461bcd60e51b81526004016104f89061246f565b600082116109a95760405162461bcd60e51b81526004016104f890612027565b6109b48585856111a8565b6109bc61124a565b50506001600055505050565b6007546001600160a01b031690565b60606002805461044e906125eb565b6109ee610f1c565b6001600160a01b0316826001600160a01b03161415610a1f5760405162461bcd60e51b81526004016104f890611ff0565b8060066000610a2c610f1c565b6001600160a01b03908116825260208083019390935260409182016000908120918716808252919093529120805460ff191692151592909217909155610a70610f1c565b6001600160a01b03167f17307eab39ab6107e8899845ad3d59bd9653f200f220920489ca2b5937696c3183604051610aa89190611de7565b60405180910390a35050565b610abd81610e78565b50565b610ac8610f1c565b6001600160a01b0316610ad96109c8565b6001600160a01b031614610aff5760405162461bcd60e51b81526004016104f890612361565b600a80546001600160a01b0319166001600160a01b0392909216919091179055565b610b32610b2c610f1c565b83610f8e565b610b4e5760405162461bcd60e51b81526004016104f8906124a6565b610b5a848484846112a1565b50505050565b610b68610f1c565b6001600160a01b0316610b796109c8565b6001600160a01b031614610b9f5760405162461bcd60e51b81526004016104f890612361565b600955565b6060610baf82610eff565b610bcb5760405162461bcd60e51b81526004016104f8906123df565b6000610bd56112d4565b90506000815111610bf55760405180602001604052806000815250610c20565b80610bff846112e6565b604051602001610c10929190611c7e565b6040516020818303038152906040525b9392505050565b6001600160a01b03918216600090815260066020908152604080832093909416825291909152205460ff1690565b60606000610c61611192565b905060008167ffffffffffffffff811115610c8c57634e487b7160e01b600052604160045260246000fd5b604051908082528060200260200182016040528015610cc557816020015b610cb2611904565b815260200190600190039081610caa5790505b5090506000805b83811015610e6f5733610cde8261073a565b6001600160a01b03161415610e5d576000600b8281548110610d1057634e487b7160e01b600052603260045260246000fd5b90600052602060002090600502016040518060c0016040529081600082018054610d39906125eb565b80601f0160208091040260200160405190810160405280929190818152602001828054610d65906125eb565b8015610db25780601f10610d8757610100808354040283529160200191610db2565b820191906000526020600020905b815481529060010190602001808311610d9557829003601f168201915b505050918352505060018201546020820152600282015460408201526003820154606082015260049091015460ff808216608084015261010090910416151560a09091015284519091508190859085908110610e1e57634e487b7160e01b600052603260045260246000fd5b6020908102919091010152600080610e37856001611401565b9150915081610e585760405162461bcd60e51b81526004016104f890611e62565b935050505b80610e6781612626565b915050610ccc565b50909250505090565b610e80610f1c565b6001600160a01b0316610e916109c8565b6001600160a01b031614610eb75760405162461bcd60e51b81526004016104f890612361565b6001600160a01b038116610edd5760405162461bcd60e51b81526004016104f890611efa565b610abd81611140565b6001600160e01b031981166301ffc9a760e01b14919050565b6000908152600360205260409020546001600160a01b0316151590565b3390565b600081815260056020526040902080546001600160a01b0319166001600160a01b0384169081179091558190610f558261073a565b6001600160a01b03167f8c5be1e5ebec7d5bd14f71427d1e84f3dd0314c0f7b2291e5b200ac8c7c3b92560405160405180910390a45050565b6000610f9982610eff565b610fb55760405162461bcd60e51b81526004016104f8906120fc565b6000610fc08361073a565b9050806001600160a01b0316846001600160a01b03161480610ffb5750836001600160a01b0316610ff0846104d1565b6001600160a01b0316145b8061100b575061100b8185610c27565b949350505050565b826001600160a01b03166110268261073a565b6001600160a01b03161461104c5760405162461bcd60e51b81526004016104f890612396565b6001600160a01b0382166110725760405162461bcd60e51b81526004016104f890611fac565b61107d8383836105b0565b611088600082610f20565b6001600160a01b03831660009081526004602052604081208054600192906110b19084906125a8565b90915550506001600160a01b03821660009081526004602052604081208054600192906110df90849061257c565b909155505060008181526003602052604080822080546001600160a01b0319166001600160a01b0386811691821790925591518493918716917fddf252ad1be2c89b69c2b068fc378daa952ba7f163c4a11628f55a4df523b3ef91a4505050565b600780546001600160a01b038381166001600160a01b0319831681179093556040519116919082907f8be0079c531659141344cd1fd0a4f28419497f9722a3daafe3b4186f6b6457e090600090a35050565b600061119e600861142a565b905090565b600090565b60006111b2611192565b90506111c08185858561142e565b6111ca338261155e565b336001600160a01b03167f96234cb3d6c373a1aaa06497a540bc166d4b0359243a088eaf95e21d7253d0be82600b848154811061121757634e487b7160e01b600052603260045260246000fd5b90600052602060002090600502016002015460405161123792919061256e565b60405180910390a2506105b0600861157c565b611252610f1c565b6001600160a01b03166112636109c8565b6001600160a01b0316146112895760405162461bcd60e51b81526004016104f890612361565b60006112936109c8565b9050610abd81600954611585565b6112ac848484611013565b6112b884848484611621565b610b5a5760405162461bcd60e51b81526004016104f890611ea8565b60408051602081019091526000815290565b60608161130b57506040805180820190915260018152600360fc1b602082015261043a565b8160005b8115611335578061131f81612626565b915061132e9050600a83612594565b915061130f565b60008167ffffffffffffffff81111561135e57634e487b7160e01b600052604160045260246000fd5b6040519080825280601f01601f191660200182016040528015611388576020820181803683370190505b5090505b841561100b5761139d6001836125a8565b91506113aa600a86612641565b6113b590603061257c565b60f81b8183815181106113d857634e487b7160e01b600052603260045260246000fd5b60200101906001600160f81b031916908160001a9053506113fa600a86612594565b945061138c565b6000808383018481101561141c576000809250925050611423565b6001925090505b9250929050565b5490565b600042338660405160200161144593929190611ccd565b604051602081830303815290604052905060006114618261173c565b90506000866040516020016114769190611cb0565b60408051601f1981840301815260c08301825280835260208381018b90529183018590526060830189905260ff8816608084015286151560a0840152600b805460018101825560009190915283518051929550849360059092027f0175b7a638427703f0dbe7bb9bbf987a2551717b34e79f33b5b1008d1fa01db90192611500928492019061193f565b5060208201516001820155604082015160028201556060820151600382015560808201516004909101805460a09093015115156101000261ff001960ff90931660ff1990941693909317919091169190911790555050505050505050565b6115788282604051806020016040528060008152506117ae565b5050565b80546001019055565b804710156115a55760405162461bcd60e51b81526004016104f8906120c5565b6000826001600160a01b0316826040516115be90611cad565b60006040518083038185875af1925050503d80600081146115fb576040519150601f19603f3d011682016040523d82523d6000602084013e611600565b606091505b50509050806105b05760405162461bcd60e51b81526004016104f890612068565b6000611635846001600160a01b03166117e1565b1561173157836001600160a01b031663150b7a02611651610f1c565b8786866040518563ffffffff1660e01b81526004016116739493929190611d09565b602060405180830381600087803b15801561168d57600080fd5b505af19250505080156116bd575060408051601f3d908101601f191682019092526116ba91810190611bc0565b60015b611717573d8080156116eb576040519150601f19603f3d011682016040523d82523d6000602084013e6116f0565b606091505b50805161170f5760405162461bcd60e51b81526004016104f890611ea8565b805181602001fd5b6001600160e01b031916630a85bd0160e11b14905061100b565b506001949350505050565b600080662386f26fc10000905060008360405160200161175c9190611c62565b6040516020818303038152906040528051906020012060001c905060008061178483856117e7565b91509150816117a55760405162461bcd60e51b81526004016104f890612148565b95945050505050565b6117b88383611825565b6117c56000848484611621565b6105b05760405162461bcd60e51b81526004016104f890611ea8565b3b151590565b600080826117fa57506000905080611423565b600183858161181957634e487b7160e01b600052601260045260246000fd5b06915091509250929050565b6001600160a01b03821661184b5760405162461bcd60e51b81526004016104f89061229f565b61185481610eff565b156118715760405162461bcd60e51b81526004016104f890611f40565b61187d600083836105b0565b6001600160a01b03821660009081526004602052604081208054600192906118a690849061257c565b909155505060008181526003602052604080822080546001600160a01b0319166001600160a01b03861690811790915590518392907fddf252ad1be2c89b69c2b068fc378daa952ba7f163c4a11628f55a4df523b3ef908290a45050565b6040518060c0016040528060608152602001600081526020016000815260200160008152602001600060ff1681526020016000151581525090565b82805461194b906125eb565b90600052602060002090601f01602090048101928261196d57600085556119b3565b82601f1061198657805160ff19168380011785556119b3565b828001600101855582156119b3579182015b828111156119b3578251825591602001919060010190611998565b506119bf9291506119c3565b5090565b5b808211156119bf57600081556001016119c4565b80356001600160a01b038116811461043a57600080fd5b8035801515811461043a57600080fd5b600060208284031215611a10578081fd5b610c20826119d8565b60008060408385031215611a2b578081fd5b611a34836119d8565b9150611a42602084016119d8565b90509250929050565b600080600060608486031215611a5f578081fd5b611a68846119d8565b9250611a76602085016119d8565b9150604084013590509250925092565b60008060008060808587031215611a9b578081fd5b611aa4856119d8565b93506020611ab38187016119d8565b935060408601359250606086013567ffffffffffffffff80821115611ad6578384fd5b818801915088601f830112611ae9578384fd5b813581811115611afb57611afb612681565b604051601f8201601f1916810185018381118282101715611b1e57611b1e612681565b60405281815283820185018b1015611b34578586fd5b81858501868301379081019093019390935250939692955090935050565b60008060408385031215611b64578182fd5b611b6d836119d8565b9150611a42602084016119ef565b60008060408385031215611b8d578182fd5b611b96836119d8565b946020939093013593505050565b600060208284031215611bb5578081fd5b8135610c2081612697565b600060208284031215611bd1578081fd5b8151610c2081612697565b600060208284031215611bed578081fd5b5035919050565b600080600060608486031215611c08578283fd5b83359250602084013560ff81168114611c1f578283fd5b9150611c2d604085016119ef565b90509250925092565b60008151808452611c4e8160208601602086016125bf565b601f01601f19169290920160200192915050565b60008251611c748184602087016125bf565b9190910192915050565b60008351611c908184602088016125bf565b835190830190611ca48183602088016125bf565b01949350505050565b90565b6843484b4d415445202360b81b8152600981019190915260290190565b92835260609190911b6bffffffffffffffffffffffff19166020830152603482015260540190565b6001600160a01b0391909116815260200190565b6001600160a01b0385811682528416602082015260408101839052608060608201819052600090611d3c90830184611c36565b9695505050505050565b60208082528251828201819052600091906040908185019080840286018301878501865b83811015611dd957603f19898403018552815160c08151818652611d9082870182611c36565b838b0151878c0152898401518a8801526060808501519088015260808085015160ff169088015260a0938401511515939096019290925250509386019390860190600101611d6a565b509098975050505050505050565b901515815260200190565b600060208252610c206020830184611c36565b6020808252603a908201527f50617373656420746f6b656e2076616c75652073686f756c642062652065717560408201527f616c20746f2063757272656e74206d696e74696e67206665652e000000000000606082015260800190565b60208082526026908201527f496e7465676572206f766572666c6f7720666f722060696e7465726e616c436f60408201526503ab73a32b9360d51b606082015260800190565b60208082526032908201527f4552433732313a207472616e7366657220746f206e6f6e20455243373231526560408201527131b2b4bb32b91034b6b83632b6b2b73a32b960711b606082015260800190565b60208082526026908201527f4f776e61626c653a206e6577206f776e657220697320746865207a65726f206160408201526564647265737360d01b606082015260800190565b6020808252601c908201527f4552433732313a20746f6b656e20616c7265616479206d696e74656400000000604082015260600190565b6020808252818101527f4e6f7420656e6f7567682066756e647320696e2047616d65436f6e7472616374604082015260600190565b60208082526024908201527f4552433732313a207472616e7366657220746f20746865207a65726f206164646040820152637265737360e01b606082015260800190565b60208082526019908201527f4552433732313a20617070726f766520746f2063616c6c657200000000000000604082015260600190565b60208082526021908201527f57696e2074696d652073686f756c642062652067726561746f72207468616e206040820152600360fc1b606082015260800190565b6020808252603a908201527f416464726573733a20756e61626c6520746f2073656e642076616c75652c207260408201527f6563697069656e74206d61792068617665207265766572746564000000000000606082015260800190565b6020808252601d908201527f416464726573733a20696e73756666696369656e742062616c616e6365000000604082015260600190565b6020808252602c908201527f4552433732313a206f70657261746f7220717565727920666f72206e6f6e657860408201526b34b9ba32b73a103a37b5b2b760a11b606082015260800190565b60208082526041908201527f496e7465676572206f766572666c6f7720666f72206d6f64206f70657261746960408201527f6f6e207768696c652067656e65726174696e672072616e646f6d206e756d62656060820152603960f91b608082015260a00190565b60208082526038908201527f4552433732313a20617070726f76652063616c6c6572206973206e6f74206f7760408201527f6e6572206e6f7220617070726f76656420666f7220616c6c0000000000000000606082015260800190565b6020808252602a908201527f4552433732313a2062616c616e636520717565727920666f7220746865207a65604082015269726f206164647265737360b01b606082015260800190565b60208082526029908201527f4552433732313a206f776e657220717565727920666f72206e6f6e657869737460408201526832b73a103a37b5b2b760b91b606082015260800190565b6020808252818101527f4552433732313a206d696e7420746f20746865207a65726f2061646472657373604082015260600190565b60208082526021908201527f47616d65436f6e74726163742061646472657373206973206e6f742076616c696040820152601960fa1b606082015260800190565b6020808252602c908201527f4552433732313a20617070726f76656420717565727920666f72206e6f6e657860408201526b34b9ba32b73a103a37b5b2b760a11b606082015260800190565b6020808252818101527f4f776e61626c653a2063616c6c6572206973206e6f7420746865206f776e6572604082015260600190565b60208082526029908201527f4552433732313a207472616e73666572206f6620746f6b656e2074686174206960408201526839903737ba1037bbb760b91b606082015260800190565b6020808252602f908201527f4552433732314d657461646174613a2055524920717565727920666f72206e6f60408201526e3732bc34b9ba32b73a103a37b5b2b760891b606082015260800190565b60208082526021908201527f4552433732313a20617070726f76616c20746f2063757272656e74206f776e656040820152603960f91b606082015260800190565b60208082526018908201527f54686520746f6b656e20616c7265616479206578697374730000000000000000604082015260600190565b60208082526031908201527f4552433732313a207472616e736665722063616c6c6572206973206e6f74206f6040820152701ddb995c881b9bdc88185c1c1c9bdd9959607a1b606082015260800190565b6020808252601d908201527f54686520746f6b656e20616c7265616479206861732061206f776e6572000000604082015260600190565b6020808252601f908201527f5265656e7472616e637947756172643a207265656e7472616e742063616c6c00604082015260600190565b90815260200190565b918252602082015260400190565b6000821982111561258f5761258f612655565b500190565b6000826125a3576125a361266b565b500490565b6000828210156125ba576125ba612655565b500390565b60005b838110156125da5781810151838201526020016125c2565b83811115610b5a5750506000910152565b6002810460018216806125ff57607f821691505b6020821081141561262057634e487b7160e01b600052602260045260246000fd5b50919050565b600060001982141561263a5761263a612655565b5060010190565b6000826126505761265061266b565b500690565b634e487b7160e01b600052601160045260246000fd5b634e487b7160e01b600052601260045260246000fd5b634e487b7160e01b600052604160045260246000fd5b6001600160e01b031981168114610abd57600080fdfea26469706673582212203d6014ec7a6fe9abe9bc77275777404da8897bd940ff595fbd3a74101feda8f964736f6c63430008000033",
  "immutableReferences": {},
  "source": "// SPDX-License-Identifier: MIT\n\npragma solidity ^0.8.0;\n\nimport \"@openzeppelin/contracts/security/ReentrancyGuard.sol\";\nimport \"@openzeppelin/contracts/token/ERC721/ERC721.sol\";\nimport \"@openzeppelin/contracts/utils/math/SafeMath.sol\";\nimport \"@openzeppelin/contracts/utils/Address.sol\";\nimport \"@openzeppelin/contracts/access/Ownable.sol\";\nimport './BaseContract.sol';\nimport './Helpers.sol';\n\n/**\n * @title NFT contract for the winning card\n * @dev Contract provides mint operation for owner to mint the NFT\n */\ncontract NFTContract is ERC721, BaseContract {\n    \n    using SafeMath for uint;\n    using Address for address;\n    \n    event TokenMinted(address indexed owner, uint id, uint dna);\n    \n    struct CHKMATE {\n      string name;\n      uint id;\n      uint dna;\n      uint winTime; // in seconds\n      uint8 killScore; // longest kill\n      bool isRare;\n    }\n    \n    modifier validRequest(uint winTime) {\n      uint counterValue = currentCounterValue();\n      // Check and verify if the sent value is equal to current minting fee\n      require(msg.value == _mintingFee, \"Passed token value should be equal to current minting fee.\");\n      // Check to make sure the `_gameContractAddress` is valid\n      require(_gameContractAddress != Helpers.nullAddress(), \"GameContract address is not valid\"); // This might be moved to GameContract\n      // Check to make sure the contract holds 0.01 ether\n      require(_gameContractAddress.balance >= _mintingFee, \"Not enough funds in GameContract\"); // This might be moved to GameContract\n      // Check and verify the current `_tokenCounter` does not belong to any existing NFT\n      require(ownerOf(counterValue) == Helpers.nullAddress(), \"The token already has a owner\");\n      // Check and verify if the current `_tokens` array does not contain a token at `counterValue`\n      require(_tokens[counterValue].id == 0, \"The token already exists\");\n      // Check and verify `winTime` is not equal to 0\n      require(winTime > 0, \"Win time should be greator than 0\");\n      _;\n    }\n    \n    uint private _mintingFee = 0.01 ether;\n    address private _gameContractAddress;\n    CHKMATE[] private _tokens;\n    \n    constructor(address gameContractAddress) ERC721(\"CHKMATE NFT\", \"CHKMATE\") onlyOwner() {\n        _gameContractAddress = gameContractAddress;\n    }\n    \n    /**\n     * @dev Call this to get a list of all tokens which are currently minted.\n     *\n     * @return list of currently minted tokens\n     */\n    function getAllTokens() external view returns (CHKMATE[] memory) {\n      return _tokens;\n    }\n    \n    /**\n     * @dev Call this to get a list of all tokens that belong to caller\n     *\n     * @return list of currently minted tokens that belongs to caller\n     */\n    function getAllTokensForCaller() external view returns (CHKMATE[] memory) {\n      uint currentCounter = currentCounterValue();\n      CHKMATE[] memory callerTokens = new CHKMATE[](currentCounter);\n      uint internalCounter = 0;\n      for (uint i = 0; i < currentCounter; i++) {\n        if (ownerOf(i) == msg.sender) {\n          CHKMATE memory currentToken = _tokens[i];\n          callerTokens[internalCounter] = currentToken;\n          (bool success, uint result)= internalCounter.tryAdd(1);\n          require(success, \"Integer overflow for `internalCounter`\");\n          internalCounter = result;\n        }\n      }\n      return callerTokens;\n    }\n    \n    /**\n     * @dev Call this to update the current minting fee. This method can only be\n     * called via owner of this contract.\n     *\n     * @param newMintingFee new fee value to be used for minting new tokens.\n     */\n    function updateMintingFees(uint newMintingFee) external onlyOwner() {\n      _mintingFee = newMintingFee;\n    }\n    \n    /**\n     * @dev Update the current game contract address. This method can only be\n     * called via owner of this contract.\n     */\n    function updateGameContractAddress(address newGameContractAddress) external onlyOwner() {\n      _gameContractAddress = newGameContractAddress;\n    }\n    \n    /** \n     * @dev Create and mint a new token for the winner. Only the creator of this contract\n     * can call this method externally.\n     * \n     * @param winTime total time (in seconds) taken by winner to win the game\n     * @param killScore count of longest consecutive kill by one single player on board\n     * @param isRare true if this token is Rare, false otherwise\n     */\n    function createAndMintToken(\n      uint winTime,\n      uint8 killScore,\n      bool isRare\n    ) external payable nonReentrant onlyOwner() validRequest(winTime)  {\n      // Create a new token and update the global list\n      _createAndMintToken(winTime, killScore, isRare);\n      // Withdraw the funds from contract address to game owner address\n      _withdrawValue();\n    }\n    \n    /**\n     * @dev Call this to withdraw funds from contract address.\n     */\n    function _withdrawValue() private onlyOwner() {\n      address payable _owner = payable(owner());\n      Address.sendValue(_owner, _mintingFee);\n    }\n    \n    /**\n     * @dev Create and mint a new token. After miniting is finished emit an event and\n     * update the current counter by 1.\n     *\n     * @param winTime total time taked by winner to win this game.\n     * @param killScore count of longest consecutive kill by one single player on board\n     * @param isRare true if this token is Rare, false otherwise\n     */\n    function _createAndMintToken(\n      uint winTime,\n      uint8 killScore,\n      bool isRare\n    ) private increment() {\n      uint counterValue = currentCounterValue();\n      _createToken(counterValue, winTime, killScore, isRare);\n      _safeMint(msg.sender, counterValue); // TODO: Add if caller is winnerAddress in GameContract\n      emit TokenMinted(msg.sender, counterValue, _tokens[counterValue].dna);\n    }\n    \n    /**\n     * @dev Create a new Token and update `_tokens` mapping.\n     *\n     * @param counterValue current value of counter\n     * @param winTime total time taked by winner to win this game.\n     * @param killScore count of longest consecutive kill by one single player on board\n     * @param isRare true if this token is Rare, false otherwise\n     */\n    function _createToken(\n      uint counterValue, \n      uint winTime, \n      uint8 killScore, \n      bool isRare\n    ) private {\n      string memory data = string(abi.encodePacked(block.timestamp, msg.sender, counterValue));\n      uint tokenDna = Helpers.randomNumber(data);\n      string memory tokenName = string(abi.encodePacked(\"CHKMATE #\", counterValue));\n      CHKMATE memory token = CHKMATE({\n        name: tokenName, \n        id: counterValue, \n        dna: tokenDna, \n        winTime: winTime, \n        killScore: killScore, \n        isRare: isRare\n      });\n      _tokens.push(token);\n    }\n}",
  "sourcePath": "/Users/saurabh-macbook/Documents/dapps/chkmate/frontend_base_dapp/contracts/NFTContract.sol",
  "compiler": {
    "name": "solc",
    "version": "0.8.0+commit.c7dfd78e.Emscripten.clang"
  },
  "schemaVersion": "3.4.3",
  "updatedAt": "2021-09-08T21:09:26.216Z",
  "networkType": "ethereum",
  "devdoc": {
    "details": "Contract provides mint operation for owner to mint the NFT",
    "kind": "dev",
    "methods": {
      "approve(address,uint256)": {
        "details": "See {IERC721-approve}."
      },
      "balanceOf(address)": {
        "details": "See {IERC721-balanceOf}."
      },
      "createAndMintToken(uint256,uint8,bool)": {
        "details": "Create and mint a new token for the winner. Only the creator of this contract can call this method externally. ",
        "params": {
          "isRare": "true if this token is Rare, false otherwise",
          "killScore": "count of longest consecutive kill by one single player on board",
          "winTime": "total time (in seconds) taken by winner to win the game"
        }
      },
      "getAllTokens()": {
        "details": "Call this to get a list of all tokens which are currently minted.",
        "returns": {
          "_0": "list of currently minted tokens"
        }
      },
      "getAllTokensForCaller()": {
        "details": "Call this to get a list of all tokens that belong to caller",
        "returns": {
          "_0": "list of currently minted tokens that belongs to caller"
        }
      },
      "getApproved(uint256)": {
        "details": "See {IERC721-getApproved}."
      },
      "isApprovedForAll(address,address)": {
        "details": "See {IERC721-isApprovedForAll}."
      },
      "name()": {
        "details": "See {IERC721Metadata-name}."
      },
      "owner()": {
        "details": "Returns the address of the current owner."
      },
      "ownerOf(uint256)": {
        "details": "See {IERC721-ownerOf}."
      },
      "renounceOwnership()": {
        "details": "Leaves the contract without owner. It will not be possible to call `onlyOwner` functions anymore. Can only be called by the current owner. NOTE: Renouncing ownership will leave the contract without an owner, thereby removing any functionality that is only available to the owner."
      },
      "safeTransferFrom(address,address,uint256)": {
        "details": "See {IERC721-safeTransferFrom}."
      },
      "safeTransferFrom(address,address,uint256,bytes)": {
        "details": "See {IERC721-safeTransferFrom}."
      },
      "setApprovalForAll(address,bool)": {
        "details": "See {IERC721-setApprovalForAll}."
      },
      "setOwnership(address)": {
        "details": "Call this method to update ownership in future (if needed). This external  method can only be called by the owner of this contract. Since `transferOwnership()` already have this check it's not required for this method. ",
        "params": {
          "newOwnerAddress": "address of new owner to which ownership is to be transfered."
        }
      },
      "supportsInterface(bytes4)": {
        "details": "See {IERC165-supportsInterface}."
      },
      "symbol()": {
        "details": "See {IERC721Metadata-symbol}."
      },
      "tokenURI(uint256)": {
        "details": "See {IERC721Metadata-tokenURI}."
      },
      "transferFrom(address,address,uint256)": {
        "details": "See {IERC721-transferFrom}."
      },
      "transferOwnership(address)": {
        "details": "Transfers ownership of the contract to a new account (`newOwner`). Can only be called by the current owner."
      },
      "updateGameContractAddress(address)": {
        "details": "Update the current game contract address. This method can only be called via owner of this contract."
      },
      "updateMintingFees(uint256)": {
        "details": "Call this to update the current minting fee. This method can only be called via owner of this contract.",
        "params": {
          "newMintingFee": "new fee value to be used for minting new tokens."
        }
      }
    },
    "title": "NFT contract for the winning card",
    "version": 1
  },
  "userdoc": {
    "kind": "user",
    "methods": {},
    "version": 1
  }
}