{
  "contractName": "NFTContract",
  "abi": [
    {
      "inputs": [
        {
          "internalType": "address",
          "name": "gameContractAddress",
          "type": "address"
        }
      ],
      "stateMutability": "nonpayable",
      "type": "constructor"
    },
    {
      "anonymous": false,
      "inputs": [
        {
          "indexed": true,
          "internalType": "address",
          "name": "owner",
          "type": "address"
        },
        {
          "indexed": true,
          "internalType": "address",
          "name": "approved",
          "type": "address"
        },
        {
          "indexed": true,
          "internalType": "uint256",
          "name": "tokenId",
          "type": "uint256"
        }
      ],
      "name": "Approval",
      "type": "event"
    },
    {
      "anonymous": false,
      "inputs": [
        {
          "indexed": true,
          "internalType": "address",
          "name": "owner",
          "type": "address"
        },
        {
          "indexed": true,
          "internalType": "address",
          "name": "operator",
          "type": "address"
        },
        {
          "indexed": false,
          "internalType": "bool",
          "name": "approved",
          "type": "bool"
        }
      ],
      "name": "ApprovalForAll",
      "type": "event"
    },
    {
      "anonymous": false,
      "inputs": [
        {
          "indexed": true,
          "internalType": "address",
          "name": "previousOwner",
          "type": "address"
        },
        {
          "indexed": true,
          "internalType": "address",
          "name": "newOwner",
          "type": "address"
        }
      ],
      "name": "OwnershipTransferred",
      "type": "event"
    },
    {
      "anonymous": false,
      "inputs": [
        {
          "indexed": true,
          "internalType": "address",
          "name": "owner",
          "type": "address"
        },
        {
          "indexed": false,
          "internalType": "uint256",
          "name": "id",
          "type": "uint256"
        },
        {
          "indexed": false,
          "internalType": "uint256",
          "name": "dna",
          "type": "uint256"
        }
      ],
      "name": "TokenMinted",
      "type": "event"
    },
    {
      "anonymous": false,
      "inputs": [
        {
          "indexed": true,
          "internalType": "address",
          "name": "from",
          "type": "address"
        },
        {
          "indexed": true,
          "internalType": "address",
          "name": "to",
          "type": "address"
        },
        {
          "indexed": true,
          "internalType": "uint256",
          "name": "tokenId",
          "type": "uint256"
        }
      ],
      "name": "Transfer",
      "type": "event"
    },
    {
      "inputs": [
        {
          "internalType": "address",
          "name": "to",
          "type": "address"
        },
        {
          "internalType": "uint256",
          "name": "tokenId",
          "type": "uint256"
        }
      ],
      "name": "approve",
      "outputs": [],
      "stateMutability": "nonpayable",
      "type": "function"
    },
    {
      "inputs": [
        {
          "internalType": "address",
          "name": "owner",
          "type": "address"
        }
      ],
      "name": "balanceOf",
      "outputs": [
        {
          "internalType": "uint256",
          "name": "",
          "type": "uint256"
        }
      ],
      "stateMutability": "view",
      "type": "function",
      "constant": true
    },
    {
      "inputs": [
        {
          "internalType": "uint256",
          "name": "tokenId",
          "type": "uint256"
        }
      ],
      "name": "getApproved",
      "outputs": [
        {
          "internalType": "address",
          "name": "",
          "type": "address"
        }
      ],
      "stateMutability": "view",
      "type": "function",
      "constant": true
    },
    {
      "inputs": [
        {
          "internalType": "address",
          "name": "owner",
          "type": "address"
        },
        {
          "internalType": "address",
          "name": "operator",
          "type": "address"
        }
      ],
      "name": "isApprovedForAll",
      "outputs": [
        {
          "internalType": "bool",
          "name": "",
          "type": "bool"
        }
      ],
      "stateMutability": "view",
      "type": "function",
      "constant": true
    },
    {
      "inputs": [],
      "name": "name",
      "outputs": [
        {
          "internalType": "string",
          "name": "",
          "type": "string"
        }
      ],
      "stateMutability": "view",
      "type": "function",
      "constant": true
    },
    {
      "inputs": [],
      "name": "owner",
      "outputs": [
        {
          "internalType": "address",
          "name": "",
          "type": "address"
        }
      ],
      "stateMutability": "view",
      "type": "function",
      "constant": true
    },
    {
      "inputs": [
        {
          "internalType": "uint256",
          "name": "tokenId",
          "type": "uint256"
        }
      ],
      "name": "ownerOf",
      "outputs": [
        {
          "internalType": "address",
          "name": "",
          "type": "address"
        }
      ],
      "stateMutability": "view",
      "type": "function",
      "constant": true
    },
    {
      "inputs": [],
      "name": "renounceOwnership",
      "outputs": [],
      "stateMutability": "nonpayable",
      "type": "function"
    },
    {
      "inputs": [
        {
          "internalType": "address",
          "name": "from",
          "type": "address"
        },
        {
          "internalType": "address",
          "name": "to",
          "type": "address"
        },
        {
          "internalType": "uint256",
          "name": "tokenId",
          "type": "uint256"
        }
      ],
      "name": "safeTransferFrom",
      "outputs": [],
      "stateMutability": "nonpayable",
      "type": "function"
    },
    {
      "inputs": [
        {
          "internalType": "address",
          "name": "from",
          "type": "address"
        },
        {
          "internalType": "address",
          "name": "to",
          "type": "address"
        },
        {
          "internalType": "uint256",
          "name": "tokenId",
          "type": "uint256"
        },
        {
          "internalType": "bytes",
          "name": "_data",
          "type": "bytes"
        }
      ],
      "name": "safeTransferFrom",
      "outputs": [],
      "stateMutability": "nonpayable",
      "type": "function"
    },
    {
      "inputs": [
        {
          "internalType": "address",
          "name": "operator",
          "type": "address"
        },
        {
          "internalType": "bool",
          "name": "approved",
          "type": "bool"
        }
      ],
      "name": "setApprovalForAll",
      "outputs": [],
      "stateMutability": "nonpayable",
      "type": "function"
    },
    {
      "inputs": [
        {
          "internalType": "address",
          "name": "newOwnerAddress",
          "type": "address"
        }
      ],
      "name": "setOwnership",
      "outputs": [],
      "stateMutability": "nonpayable",
      "type": "function"
    },
    {
      "inputs": [
        {
          "internalType": "bytes4",
          "name": "interfaceId",
          "type": "bytes4"
        }
      ],
      "name": "supportsInterface",
      "outputs": [
        {
          "internalType": "bool",
          "name": "",
          "type": "bool"
        }
      ],
      "stateMutability": "view",
      "type": "function",
      "constant": true
    },
    {
      "inputs": [],
      "name": "symbol",
      "outputs": [
        {
          "internalType": "string",
          "name": "",
          "type": "string"
        }
      ],
      "stateMutability": "view",
      "type": "function",
      "constant": true
    },
    {
      "inputs": [
        {
          "internalType": "uint256",
          "name": "tokenId",
          "type": "uint256"
        }
      ],
      "name": "tokenURI",
      "outputs": [
        {
          "internalType": "string",
          "name": "",
          "type": "string"
        }
      ],
      "stateMutability": "view",
      "type": "function",
      "constant": true
    },
    {
      "inputs": [
        {
          "internalType": "address",
          "name": "from",
          "type": "address"
        },
        {
          "internalType": "address",
          "name": "to",
          "type": "address"
        },
        {
          "internalType": "uint256",
          "name": "tokenId",
          "type": "uint256"
        }
      ],
      "name": "transferFrom",
      "outputs": [],
      "stateMutability": "nonpayable",
      "type": "function"
    },
    {
      "inputs": [
        {
          "internalType": "address",
          "name": "newOwner",
          "type": "address"
        }
      ],
      "name": "transferOwnership",
      "outputs": [],
      "stateMutability": "nonpayable",
      "type": "function"
    },
    {
      "inputs": [],
      "name": "getAllTokens",
      "outputs": [
        {
          "components": [
            {
              "internalType": "string",
              "name": "name",
              "type": "string"
            },
            {
              "internalType": "uint256",
              "name": "id",
              "type": "uint256"
            },
            {
              "internalType": "uint256",
              "name": "dna",
              "type": "uint256"
            },
            {
              "internalType": "uint256",
              "name": "winTime",
              "type": "uint256"
            },
            {
              "internalType": "uint8",
              "name": "killScore",
              "type": "uint8"
            },
            {
              "internalType": "bool",
              "name": "isRare",
              "type": "bool"
            }
          ],
          "internalType": "struct NFTContract.CHKMATE[]",
          "name": "",
          "type": "tuple[]"
        }
      ],
      "stateMutability": "view",
      "type": "function",
      "constant": true
    },
    {
      "inputs": [],
      "name": "getAllTokensForCaller",
      "outputs": [
        {
          "components": [
            {
              "internalType": "string",
              "name": "name",
              "type": "string"
            },
            {
              "internalType": "uint256",
              "name": "id",
              "type": "uint256"
            },
            {
              "internalType": "uint256",
              "name": "dna",
              "type": "uint256"
            },
            {
              "internalType": "uint256",
              "name": "winTime",
              "type": "uint256"
            },
            {
              "internalType": "uint8",
              "name": "killScore",
              "type": "uint8"
            },
            {
              "internalType": "bool",
              "name": "isRare",
              "type": "bool"
            }
          ],
          "internalType": "struct NFTContract.CHKMATE[]",
          "name": "",
          "type": "tuple[]"
        }
      ],
      "stateMutability": "view",
      "type": "function",
      "constant": true
    },
    {
      "inputs": [
        {
          "internalType": "uint256",
          "name": "newMintingFee",
          "type": "uint256"
        }
      ],
      "name": "updateMintingFees",
      "outputs": [],
      "stateMutability": "nonpayable",
      "type": "function"
    },
    {
      "inputs": [
        {
          "internalType": "address",
          "name": "newGameContractAddress",
          "type": "address"
        }
      ],
      "name": "updateGameContractAddress",
      "outputs": [],
      "stateMutability": "nonpayable",
      "type": "function"
    },
    {
      "inputs": [
        {
          "internalType": "uint256",
          "name": "gameId",
          "type": "uint256"
        },
        {
          "internalType": "uint256",
          "name": "winTime",
          "type": "uint256"
        },
        {
          "internalType": "uint8",
          "name": "killScore",
          "type": "uint8"
        },
        {
          "internalType": "bool",
          "name": "isRare",
          "type": "bool"
        }
      ],
      "name": "createAndMintToken",
      "outputs": [],
      "stateMutability": "nonpayable",
      "type": "function"
    }
  ],
  "bytecode": "0x60a060405260006080819052600855662386f26fc100006009553480156200002657600080fd5b506040516200264438038062002644833981016040819052620000499162000253565b604080518082018252600b81526a10d212d35055114813919560aa1b60208083019182528351808501909452600784526643484b4d41544560c81b90840152600160008190558251929392620000a09290620001ad565b508051620000b6906002906020840190620001ad565b505050620000d3620000cd6200014860201b60201c565b6200014c565b620000dd62000148565b6001600160a01b0316620000f06200019e565b6001600160a01b031614620001225760405162461bcd60e51b8152600401620001199062000283565b60405180910390fd5b600a80546001600160a01b0319166001600160a01b0392909216919091179055620002f5565b3390565b600780546001600160a01b038381166001600160a01b0319831681179093556040519116919082907f8be0079c531659141344cd1fd0a4f28419497f9722a3daafe3b4186f6b6457e090600090a35050565b6007546001600160a01b031690565b828054620001bb90620002b8565b90600052602060002090601f016020900481019282620001df57600085556200022a565b82601f10620001fa57805160ff19168380011785556200022a565b828001600101855582156200022a579182015b828111156200022a5782518255916020019190600101906200020d565b50620002389291506200023c565b5090565b5b808211156200023857600081556001016200023d565b60006020828403121562000265578081fd5b81516001600160a01b03811681146200027c578182fd5b9392505050565b6020808252818101527f4f776e61626c653a2063616c6c6572206973206e6f7420746865206f776e6572604082015260600190565b600281046001821680620002cd57607f821691505b60208210811415620002ef57634e487b7160e01b600052602260045260246000fd5b50919050565b61233f80620003056000396000f3fe608060405234801561001057600080fd5b50600436106101425760003560e01c80638fc72aa6116100b8578063b88d4fde1161007c578063b88d4fde1461028c578063c7673e8a1461029f578063c87b56dd146102b2578063e985e9c5146102c5578063ee54ae79146102d8578063f2fde38b146102e057610142565b80638fc72aa61461023857806395d89b411461024b578063a22cb46514610253578063a701602314610266578063a8773a7b1461027957610142565b80632a5c792a1161010a5780632a5c792a146101cd57806342842e0e146101e25780636352211e146101f557806370a0823114610208578063715018a6146102285780638da5cb5b1461023057610142565b806301ffc9a71461014757806306fdde0314610170578063081812fc14610185578063095ea7b3146101a557806323b872dd146101ba575b600080fd5b61015a610155366004611921565b6102f3565b6040516101679190611b6b565b60405180910390f35b61017861033b565b6040516101679190611b76565b610198610193366004611959565b6103cd565b6040516101679190611a79565b6101b86101b33660046118f8565b610419565b005b6101b86101c83660046117c8565b6104b1565b6101d56104e9565b6040516101679190611aca565b6101b86101f03660046117c8565b61061b565b610198610203366004611959565b610636565b61021b61021636600461177c565b61066b565b60405161016791906121c1565b6101b86106af565b6101986106fa565b6101b8610246366004611971565b610709565b61017861083c565b6101b86102613660046118cf565b61084b565b6101b861027436600461177c565b610919565b6101b861028736600461177c565b610925565b6101b861029a366004611803565b610986565b6101b86102ad366004611959565b6109c5565b6101786102c0366004611959565b610a09565b61015a6102d3366004611796565b610a8c565b6101d5610aba565b6101b86102ee36600461177c565b610cdd565b60006001600160e01b031982166380ac58cd60e01b148061032457506001600160e01b03198216635b5e139f60e01b145b80610333575061033382610d4b565b90505b919050565b60606001805461034a90612247565b80601f016020809104026020016040519081016040528092919081815260200182805461037690612247565b80156103c35780601f10610398576101008083540402835291602001916103c3565b820191906000526020600020905b8154815290600101906020018083116103a657829003601f168201915b5050505050905090565b60006103d882610d64565b6103fd5760405162461bcd60e51b81526004016103f490611fa8565b60405180910390fd5b506000908152600560205260409020546001600160a01b031690565b600061042482610636565b9050806001600160a01b0316836001600160a01b031614156104585760405162461bcd60e51b81526004016103f4906120c1565b806001600160a01b031661046a610d81565b6001600160a01b031614806104865750610486816102d3610d81565b6104a25760405162461bcd60e51b81526004016103f490611e42565b6104ac8383610d85565b505050565b6104c26104bc610d81565b82610df3565b6104de5760405162461bcd60e51b81526004016103f490612139565b6104ac838383610e78565b6060600b805480602002602001604051908101604052809291908181526020016000905b8282101561061257838290600052602060002090600502016040518060c001604052908160008201805461054090612247565b80601f016020809104026020016040519081016040528092919081815260200182805461056c90612247565b80156105b95780601f1061058e576101008083540402835291602001916105b9565b820191906000526020600020905b81548152906001019060200180831161059c57829003601f168201915b5050509183525050600182810154602080840191909152600284015460408401526003840154606084015260049093015460ff808216608085015261010090910416151560a0909201919091529183529201910161050d565b50505050905090565b6104ac83838360405180602001604052806000815250610986565b6000818152600360205260408120546001600160a01b0316806103335760405162461bcd60e51b81526004016103f490611ee9565b60006001600160a01b0382166106935760405162461bcd60e51b81526004016103f490611e9f565b506001600160a01b031660009081526004602052604090205490565b6106b7610d81565b6001600160a01b03166106c86106fa565b6001600160a01b0316146106ee5760405162461bcd60e51b81526004016103f490611ff4565b6106f86000610fa5565b565b6007546001600160a01b031690565b6002600054141561072c5760405162461bcd60e51b81526004016103f49061218a565b6002600055610739610d81565b6001600160a01b031661074a6106fa565b6001600160a01b0316146107705760405162461bcd60e51b81526004016103f490611ff4565b8383600061077c610ff7565b9050610786611008565b600a546001600160a01b03908116911614156107b45760405162461bcd60e51b81526004016103f490611f67565b600954600a546001600160a01b03163110156107e25760405162461bcd60e51b81526004016103f490611c9e565b600b5481146108035760405162461bcd60e51b81526004016103f490612102565b600082116108235760405162461bcd60e51b81526004016103f490611d4e565b61082e86868661100d565b505060016000555050505050565b60606002805461034a90612247565b610853610d81565b6001600160a01b0316826001600160a01b031614156108845760405162461bcd60e51b81526004016103f490611d17565b8060066000610891610d81565b6001600160a01b03908116825260208083019390935260409182016000908120918716808252919093529120805460ff1916921515929092179091556108d5610d81565b6001600160a01b03167f17307eab39ab6107e8899845ad3d59bd9653f200f220920489ca2b5937696c318360405161090d9190611b6b565b60405180910390a35050565b61092281610cdd565b50565b61092d610d81565b6001600160a01b031661093e6106fa565b6001600160a01b0316146109645760405162461bcd60e51b81526004016103f490611ff4565b600a80546001600160a01b0319166001600160a01b0392909216919091179055565b610997610991610d81565b83610df3565b6109b35760405162461bcd60e51b81526004016103f490612139565b6109bf848484846110af565b50505050565b6109cd610d81565b6001600160a01b03166109de6106fa565b6001600160a01b031614610a045760405162461bcd60e51b81526004016103f490611ff4565b600955565b6060610a1482610d64565b610a305760405162461bcd60e51b81526004016103f490612072565b6000610a3a6110e2565b90506000815111610a5a5760405180602001604052806000815250610a85565b80610a64846110f4565b604051602001610a75929190611a05565b6040516020818303038152906040525b9392505050565b6001600160a01b03918216600090815260066020908152604080832093909416825291909152205460ff1690565b60606000610ac6610ff7565b905060008167ffffffffffffffff811115610af157634e487b7160e01b600052604160045260246000fd5b604051908082528060200260200182016040528015610b2a57816020015b610b17611681565b815260200190600190039081610b0f5790505b5090506000805b83811015610cd45733610b4382610636565b6001600160a01b03161415610cc2576000600b8281548110610b7557634e487b7160e01b600052603260045260246000fd5b90600052602060002090600502016040518060c0016040529081600082018054610b9e90612247565b80601f0160208091040260200160405190810160405280929190818152602001828054610bca90612247565b8015610c175780601f10610bec57610100808354040283529160200191610c17565b820191906000526020600020905b815481529060010190602001808311610bfa57829003601f168201915b505050918352505060018201546020820152600282015460408201526003820154606082015260049091015460ff808216608084015261010090910416151560a09091015284519091508190859085908110610c8357634e487b7160e01b600052603260045260246000fd5b6020908102919091010152600080610c9c85600161120f565b9150915081610cbd5760405162461bcd60e51b81526004016103f490611b89565b935050505b80610ccc81612282565b915050610b31565b50909250505090565b610ce5610d81565b6001600160a01b0316610cf66106fa565b6001600160a01b031614610d1c5760405162461bcd60e51b81526004016103f490611ff4565b6001600160a01b038116610d425760405162461bcd60e51b81526004016103f490611c21565b61092281610fa5565b6001600160e01b031981166301ffc9a760e01b14919050565b6000908152600360205260409020546001600160a01b0316151590565b3390565b600081815260056020526040902080546001600160a01b0319166001600160a01b0384169081179091558190610dba82610636565b6001600160a01b03167f8c5be1e5ebec7d5bd14f71427d1e84f3dd0314c0f7b2291e5b200ac8c7c3b92560405160405180910390a45050565b6000610dfe82610d64565b610e1a5760405162461bcd60e51b81526004016103f490611d8f565b6000610e2583610636565b9050806001600160a01b0316846001600160a01b03161480610e605750836001600160a01b0316610e55846103cd565b6001600160a01b0316145b80610e705750610e708185610a8c565b949350505050565b826001600160a01b0316610e8b82610636565b6001600160a01b031614610eb15760405162461bcd60e51b81526004016103f490612029565b6001600160a01b038216610ed75760405162461bcd60e51b81526004016103f490611cd3565b610ee28383836104ac565b610eed600082610d85565b6001600160a01b0383166000908152600460205260408120805460019290610f16908490612204565b90915550506001600160a01b0382166000908152600460205260408120805460019290610f449084906121d8565b909155505060008181526003602052604080822080546001600160a01b0319166001600160a01b0386811691821790925591518493918716917fddf252ad1be2c89b69c2b068fc378daa952ba7f163c4a11628f55a4df523b3ef91a4505050565b600780546001600160a01b038381166001600160a01b0319831681179093556040519116919082907f8be0079c531659141344cd1fd0a4f28419497f9722a3daafe3b4186f6b6457e090600090a35050565b60006110036008611238565b905090565b600090565b6000611017610ff7565b90506110258185858561123c565b61102f3382611345565b336001600160a01b03167f96234cb3d6c373a1aaa06497a540bc166d4b0359243a088eaf95e21d7253d0be82600b848154811061107c57634e487b7160e01b600052603260045260246000fd5b90600052602060002090600502016002015460405161109c9291906121ca565b60405180910390a2506104ac6008611363565b6110ba848484610e78565b6110c68484848461136c565b6109bf5760405162461bcd60e51b81526004016103f490611bcf565b60408051602081019091526000815290565b60608161111957506040805180820190915260018152600360fc1b6020820152610336565b8160005b8115611143578061112d81612282565b915061113c9050600a836121f0565b915061111d565b60008167ffffffffffffffff81111561116c57634e487b7160e01b600052604160045260246000fd5b6040519080825280601f01601f191660200182016040528015611196576020820181803683370190505b5090505b8415610e70576111ab600183612204565b91506111b8600a8661229d565b6111c39060306121d8565b60f81b8183815181106111e657634e487b7160e01b600052603260045260246000fd5b60200101906001600160f81b031916908160001a905350611208600a866121f0565b945061119a565b6000808383018481101561122a576000809250925050611231565b6001925090505b9250929050565b5490565b6000611249423387611487565b905060008560405160200161125e9190611a34565b60408051601f1981840301815260c08301825280835260208381018a90529183018590526060830188905260ff8716608084015285151560a0840152600b805460018101825560009190915283518051929550849360059092027f0175b7a638427703f0dbe7bb9bbf987a2551717b34e79f33b5b1008d1fa01db901926112e892849201906116bc565b5060208201516001820155604082015160028201556060820151600382015560808201516004909101805460a09093015115156101000261ff001960ff90931660ff19909416939093179190911691909117905550505050505050565b61135f8282604051806020016040528060008152506114c2565b5050565b80546001019055565b6000611380846001600160a01b03166114f5565b1561147c57836001600160a01b031663150b7a0261139c610d81565b8786866040518563ffffffff1660e01b81526004016113be9493929190611a8d565b602060405180830381600087803b1580156113d857600080fd5b505af1925050508015611408575060408051601f3d908101601f191682019092526114059181019061193d565b60015b611462573d808015611436576040519150601f19603f3d011682016040523d82523d6000602084013e61143b565b606091505b50805161145a5760405162461bcd60e51b81526004016103f490611bcf565b805181602001fd5b6001600160e01b031916630a85bd0160e11b149050610e70565b506001949350505050565b60008084848460405160200161149f93929190611a51565b60405160208183030381529060405290506114b9816114fb565b95945050505050565b6114cc8383611564565b6114d9600084848461136c565b6104ac5760405162461bcd60e51b81526004016103f490611bcf565b3b151590565b600080662386f26fc10000905060008360405160200161151b91906119e9565b6040516020818303038152906040528051906020012060001c90506000806115438385611643565b91509150816114b95760405162461bcd60e51b81526004016103f490611ddb565b6001600160a01b03821661158a5760405162461bcd60e51b81526004016103f490611f32565b61159381610d64565b156115b05760405162461bcd60e51b81526004016103f490611c67565b6115bc600083836104ac565b6001600160a01b03821660009081526004602052604081208054600192906115e59084906121d8565b909155505060008181526003602052604080822080546001600160a01b0319166001600160a01b03861690811790915590518392907fddf252ad1be2c89b69c2b068fc378daa952ba7f163c4a11628f55a4df523b3ef908290a45050565b6000808261165657506000905080611231565b600183858161167557634e487b7160e01b600052601260045260246000fd5b06915091509250929050565b6040518060c0016040528060608152602001600081526020016000815260200160008152602001600060ff1681526020016000151581525090565b8280546116c890612247565b90600052602060002090601f0160209004810192826116ea5760008555611730565b82601f1061170357805160ff1916838001178555611730565b82800160010185558215611730579182015b82811115611730578251825591602001919060010190611715565b5061173c929150611740565b5090565b5b8082111561173c5760008155600101611741565b80356001600160a01b038116811461033657600080fd5b8035801515811461033657600080fd5b60006020828403121561178d578081fd5b610a8582611755565b600080604083850312156117a8578081fd5b6117b183611755565b91506117bf60208401611755565b90509250929050565b6000806000606084860312156117dc578081fd5b6117e584611755565b92506117f360208501611755565b9150604084013590509250925092565b60008060008060808587031215611818578081fd5b61182185611755565b93506020611830818701611755565b935060408601359250606086013567ffffffffffffffff80821115611853578384fd5b818801915088601f830112611866578384fd5b813581811115611878576118786122dd565b604051601f8201601f191681018501838111828210171561189b5761189b6122dd565b60405281815283820185018b10156118b1578586fd5b81858501868301379081019093019390935250939692955090935050565b600080604083850312156118e1578182fd5b6118ea83611755565b91506117bf6020840161176c565b6000806040838503121561190a578182fd5b61191383611755565b946020939093013593505050565b600060208284031215611932578081fd5b8135610a85816122f3565b60006020828403121561194e578081fd5b8151610a85816122f3565b60006020828403121561196a578081fd5b5035919050565b60008060008060808587031215611986578384fd5b8435935060208501359250604085013560ff811681146119a4578283fd5b91506119b26060860161176c565b905092959194509250565b600081518084526119d581602086016020860161221b565b601f01601f19169290920160200192915050565b600082516119fb81846020870161221b565b9190910192915050565b60008351611a1781846020880161221b565b835190830190611a2b81836020880161221b565b01949350505050565b6843484b4d415445202360b81b8152600981019190915260290190565b92835260609190911b6bffffffffffffffffffffffff19166020830152603482015260540190565b6001600160a01b0391909116815260200190565b6001600160a01b0385811682528416602082015260408101839052608060608201819052600090611ac0908301846119bd565b9695505050505050565b60208082528251828201819052600091906040908185019080840286018301878501865b83811015611b5d57603f19898403018552815160c08151818652611b14828701826119bd565b838b0151878c0152898401518a8801526060808501519088015260808085015160ff169088015260a0938401511515939096019290925250509386019390860190600101611aee565b509098975050505050505050565b901515815260200190565b600060208252610a8560208301846119bd565b60208082526026908201527f496e7465676572206f766572666c6f7720666f722060696e7465726e616c436f60408201526503ab73a32b9360d51b606082015260800190565b60208082526032908201527f4552433732313a207472616e7366657220746f206e6f6e20455243373231526560408201527131b2b4bb32b91034b6b83632b6b2b73a32b960711b606082015260800190565b60208082526026908201527f4f776e61626c653a206e6577206f776e657220697320746865207a65726f206160408201526564647265737360d01b606082015260800190565b6020808252601c908201527f4552433732313a20746f6b656e20616c7265616479206d696e74656400000000604082015260600190565b6020808252818101527f4e6f7420656e6f7567682066756e647320696e2047616d65436f6e7472616374604082015260600190565b60208082526024908201527f4552433732313a207472616e7366657220746f20746865207a65726f206164646040820152637265737360e01b606082015260800190565b60208082526019908201527f4552433732313a20617070726f766520746f2063616c6c657200000000000000604082015260600190565b60208082526021908201527f57696e2074696d652073686f756c642062652067726561746f72207468616e206040820152600360fc1b606082015260800190565b6020808252602c908201527f4552433732313a206f70657261746f7220717565727920666f72206e6f6e657860408201526b34b9ba32b73a103a37b5b2b760a11b606082015260800190565b60208082526041908201527f496e7465676572206f766572666c6f7720666f72206d6f64206f70657261746960408201527f6f6e207768696c652067656e65726174696e672072616e646f6d206e756d62656060820152603960f91b608082015260a00190565b60208082526038908201527f4552433732313a20617070726f76652063616c6c6572206973206e6f74206f7760408201527f6e6572206e6f7220617070726f76656420666f7220616c6c0000000000000000606082015260800190565b6020808252602a908201527f4552433732313a2062616c616e636520717565727920666f7220746865207a65604082015269726f206164647265737360b01b606082015260800190565b60208082526029908201527f4552433732313a206f776e657220717565727920666f72206e6f6e657869737460408201526832b73a103a37b5b2b760b91b606082015260800190565b6020808252818101527f4552433732313a206d696e7420746f20746865207a65726f2061646472657373604082015260600190565b60208082526021908201527f47616d65436f6e74726163742061646472657373206973206e6f742076616c696040820152601960fa1b606082015260800190565b6020808252602c908201527f4552433732313a20617070726f76656420717565727920666f72206e6f6e657860408201526b34b9ba32b73a103a37b5b2b760a11b606082015260800190565b6020808252818101527f4f776e61626c653a2063616c6c6572206973206e6f7420746865206f776e6572604082015260600190565b60208082526029908201527f4552433732313a207472616e73666572206f6620746f6b656e2074686174206960408201526839903737ba1037bbb760b91b606082015260800190565b6020808252602f908201527f4552433732314d657461646174613a2055524920717565727920666f72206e6f60408201526e3732bc34b9ba32b73a103a37b5b2b760891b606082015260800190565b60208082526021908201527f4552433732313a20617070726f76616c20746f2063757272656e74206f776e656040820152603960f91b606082015260800190565b60208082526018908201527f54686520746f6b656e20616c7265616479206578697374730000000000000000604082015260600190565b60208082526031908201527f4552433732313a207472616e736665722063616c6c6572206973206e6f74206f6040820152701ddb995c881b9bdc88185c1c1c9bdd9959607a1b606082015260800190565b6020808252601f908201527f5265656e7472616e637947756172643a207265656e7472616e742063616c6c00604082015260600190565b90815260200190565b918252602082015260400190565b600082198211156121eb576121eb6122b1565b500190565b6000826121ff576121ff6122c7565b500490565b600082821015612216576122166122b1565b500390565b60005b8381101561223657818101518382015260200161221e565b838111156109bf5750506000910152565b60028104600182168061225b57607f821691505b6020821081141561227c57634e487b7160e01b600052602260045260246000fd5b50919050565b6000600019821415612296576122966122b1565b5060010190565b6000826122ac576122ac6122c7565b500690565b634e487b7160e01b600052601160045260246000fd5b634e487b7160e01b600052601260045260246000fd5b634e487b7160e01b600052604160045260246000fd5b6001600160e01b03198116811461092257600080fdfea26469706673582212206195cef3242c8626cfa9ccbc709b65fa7c5dcd2503de1eed41f84adbcdcdf92a64736f6c63430008000033",
  "immutableReferences": {},
  "source": "// SPDX-License-Identifier: MIT\n\npragma solidity ^0.8.0;\n\nimport \"@openzeppelin/contracts/security/ReentrancyGuard.sol\";\nimport \"@openzeppelin/contracts/token/ERC721/ERC721.sol\";\nimport \"@openzeppelin/contracts/utils/math/SafeMath.sol\";\nimport \"@openzeppelin/contracts/utils/Address.sol\";\nimport \"@openzeppelin/contracts/access/Ownable.sol\";\nimport './BaseContract.sol';\nimport './Helpers.sol';\n\n/**\n * @title NFT contract for the winning card\n * @dev Contract provides mint operation for owner to mint the NFT\n */\ncontract NFTContract is ERC721, BaseContract {\n    \n    using SafeMath for uint;\n    using Address for address;\n    \n    event TokenMinted(address indexed owner, uint id, uint dna);\n    \n    struct CHKMATE {\n        string name;\n        uint id;\n        uint dna;\n        uint winTime; // in seconds\n        uint8 killScore; // longest kill\n        bool isRare;\n    }\n    \n    modifier validRequest(uint gameId, uint winTime) {\n        uint counterValue = currentCounterValue();\n        // Check to make sure the `_gameContractAddress` is valid\n        require(_gameContractAddress != Helpers.nullAddress(), \"GameContract address is not valid\"); // This might be moved to GameContract\n        // Check to make sure the contract holds 0.01 ether\n        require(_gameContractAddress.balance >= _mintingFee, \"Not enough funds in GameContract\"); // This might be moved to GameContract\n        // Check and verify if the current `_tokens` array does not contain a token at `counterValue`\n        require(_tokens.length == counterValue, \"The token already exists\");\n        // Check and verify `winTime` is not equal to 0\n        require(winTime > 0, \"Win time should be greator than 0\");\n        _;\n    }\n    \n    uint private _mintingFee = 0.01 ether;\n    address private _gameContractAddress;\n    CHKMATE[] private _tokens;\n    \n    constructor(address gameContractAddress) ERC721(\"CHKMATE NFT\", \"CHKMATE\") onlyOwner() {\n        _gameContractAddress = gameContractAddress;\n    }\n    \n    /**\n     * @dev Call this to get a list of all tokens which are currently minted.\n     *\n     * @return list of currently minted tokens\n     */\n    function getAllTokens() external view returns (CHKMATE[] memory) {\n        return _tokens;\n    }\n    \n    /**\n     * @dev Call this to get a list of all tokens that belong to caller\n     *\n     * @return list of currently minted tokens that belongs to caller\n     */\n    function getAllTokensForCaller() external view returns (CHKMATE[] memory) {\n        uint currentCounter = currentCounterValue();\n        CHKMATE[] memory callerTokens = new CHKMATE[](currentCounter);\n        uint internalCounter = 0;\n        for (uint i = 0; i < currentCounter; i++) {\n          if (ownerOf(i) == msg.sender) {\n            CHKMATE memory currentToken = _tokens[i];\n            callerTokens[internalCounter] = currentToken;\n            (bool success, uint result)= internalCounter.tryAdd(1);\n            require(success, \"Integer overflow for `internalCounter`\");\n            internalCounter = result;\n          }\n        }\n        return callerTokens;\n    }\n    \n    /**\n     * @dev Call this to update the current minting fee. This method can only be\n     * called via owner of this contract.\n     *\n     * @param newMintingFee new fee value to be used for minting new tokens.\n     */\n    function updateMintingFees(uint newMintingFee) external onlyOwner() {\n        _mintingFee = newMintingFee;\n    }\n    \n    /**\n     * @dev Update the current game contract address. This method can only be\n     * called via owner of this contract.\n     */\n    function updateGameContractAddress(address newGameContractAddress) external onlyOwner() {\n        _gameContractAddress = newGameContractAddress;\n    }\n    \n    /** \n     * @dev Create and mint a new token for the winner. Only the creator of this contract\n     * can call this method externally.\n     * \n     * @param gameId id of game that just ended\n     * @param winTime total time (in seconds) taken by winner to win the game\n     * @param killScore count of longest consecutive kill by one single player on board\n     * @param isRare true if this token is Rare, false otherwise\n     */\n    function createAndMintToken(\n        uint gameId,\n        uint winTime,\n        uint8 killScore,\n        bool isRare\n    ) external nonReentrant onlyOwner() validRequest(gameId, winTime)  {\n        // Create a new token and update the global list\n        _createAndMintToken(winTime, killScore, isRare);\n        // Withdraw the funds from contract address to game owner address\n        //_withdrawValue();\n    }\n    \n    /**\n     * @dev Call this to withdraw funds from contract address.\n     */\n    function _withdrawValue() private onlyOwner() {\n        address payable _owner = payable(owner());\n        Address.sendValue(_owner, _mintingFee);\n    }\n    \n    /**\n     * @dev Create and mint a new token. After miniting is finished emit an event and\n     * update the current counter by 1.\n     *\n     * @param winTime total time taked by winner to win this game.\n     * @param killScore total\n     */\n    function _createAndMintToken(\n        uint winTime,\n        uint8 killScore,\n        bool isRare\n    ) private increment() {\n        uint counterValue = currentCounterValue();\n        _createToken(counterValue, winTime, killScore, isRare);\n        _safeMint(msg.sender, counterValue);\n        emit TokenMinted(msg.sender, counterValue, _tokens[counterValue].dna);\n    }\n    \n    /**\n     * @dev Create a new Token and update `_tokens` mapping.\n     */\n    function _createToken(\n        uint counterValue, \n        uint winTime, \n        uint8 killScore, \n        bool isRare\n    ) private {\n        //string memory data = string(abi.encodePacked(block.timestamp, msg.sender, counterValue));\n        uint tokenDna = Helpers.getDNA(block.timestamp, msg.sender, counterValue);\n        string memory tokenName = string(abi.encodePacked(\"CHKMATE #\", counterValue));\n        CHKMATE memory token = CHKMATE({\n          name: tokenName, \n          id: counterValue, \n          dna: tokenDna, \n          winTime: winTime, \n          killScore: killScore, \n          isRare: isRare\n        });\n        _tokens.push(token);\n    }\n}",
  "sourcePath": "/Users/saurabh-macbook/Documents/dapps/chkmate/frontend_base_dapp/contracts/NFTContract.sol",
  "compiler": {
    "name": "solc",
    "version": "0.8.0+commit.c7dfd78e.Emscripten.clang"
  },
  "schemaVersion": "3.4.3",
  "updatedAt": "2021-10-04T03:40:11.413Z",
  "networkType": "ethereum",
  "devdoc": {
    "details": "Contract provides mint operation for owner to mint the NFT",
    "kind": "dev",
    "methods": {
      "approve(address,uint256)": {
        "details": "See {IERC721-approve}."
      },
      "balanceOf(address)": {
        "details": "See {IERC721-balanceOf}."
      },
      "createAndMintToken(uint256,uint256,uint8,bool)": {
        "details": "Create and mint a new token for the winner. Only the creator of this contract can call this method externally. ",
        "params": {
          "gameId": "id of game that just ended",
          "isRare": "true if this token is Rare, false otherwise",
          "killScore": "count of longest consecutive kill by one single player on board",
          "winTime": "total time (in seconds) taken by winner to win the game"
        }
      },
      "getAllTokens()": {
        "details": "Call this to get a list of all tokens which are currently minted.",
        "returns": {
          "_0": "list of currently minted tokens"
        }
      },
      "getAllTokensForCaller()": {
        "details": "Call this to get a list of all tokens that belong to caller",
        "returns": {
          "_0": "list of currently minted tokens that belongs to caller"
        }
      },
      "getApproved(uint256)": {
        "details": "See {IERC721-getApproved}."
      },
      "isApprovedForAll(address,address)": {
        "details": "See {IERC721-isApprovedForAll}."
      },
      "name()": {
        "details": "See {IERC721Metadata-name}."
      },
      "owner()": {
        "details": "Returns the address of the current owner."
      },
      "ownerOf(uint256)": {
        "details": "See {IERC721-ownerOf}."
      },
      "renounceOwnership()": {
        "details": "Leaves the contract without owner. It will not be possible to call `onlyOwner` functions anymore. Can only be called by the current owner. NOTE: Renouncing ownership will leave the contract without an owner, thereby removing any functionality that is only available to the owner."
      },
      "safeTransferFrom(address,address,uint256)": {
        "details": "See {IERC721-safeTransferFrom}."
      },
      "safeTransferFrom(address,address,uint256,bytes)": {
        "details": "See {IERC721-safeTransferFrom}."
      },
      "setApprovalForAll(address,bool)": {
        "details": "See {IERC721-setApprovalForAll}."
      },
      "setOwnership(address)": {
        "details": "Call this method to update ownership in future (if needed). This external  method can only be called by the owner of this contract. Since `transferOwnership()` already have this check it's not required for this method. ",
        "params": {
          "newOwnerAddress": "address of new owner to which ownership is to be transfered."
        }
      },
      "supportsInterface(bytes4)": {
        "details": "See {IERC165-supportsInterface}."
      },
      "symbol()": {
        "details": "See {IERC721Metadata-symbol}."
      },
      "tokenURI(uint256)": {
        "details": "See {IERC721Metadata-tokenURI}."
      },
      "transferFrom(address,address,uint256)": {
        "details": "See {IERC721-transferFrom}."
      },
      "transferOwnership(address)": {
        "details": "Transfers ownership of the contract to a new account (`newOwner`). Can only be called by the current owner."
      },
      "updateGameContractAddress(address)": {
        "details": "Update the current game contract address. This method can only be called via owner of this contract."
      },
      "updateMintingFees(uint256)": {
        "details": "Call this to update the current minting fee. This method can only be called via owner of this contract.",
        "params": {
          "newMintingFee": "new fee value to be used for minting new tokens."
        }
      }
    },
    "title": "NFT contract for the winning card",
    "version": 1
  },
  "userdoc": {
    "kind": "user",
    "methods": {},
    "version": 1
  }
}